:020000040800F2
:100000008891002081020008E96E00084D6A00080E
:10001000E56E0008CD2B0008C97B00080000000039
:1000200000000000000000000000000061720008F5
:10003000ED2C000800000000216F00088572000808
:100040009B0200089B0200089B0200089B0200081C
:100050009B0200089B0200089B0200089B0200080C
:100060009B0200089B0200089B020008812C0008EC
:10007000912C0008A12C00089B020008B12C00085C
:100080009B0200089B0200089B0200089B020008DC
:100090009B020008D12B00089B0200089B0200086D
:1000A0009B020008B97200089B0200089B0200082E
:1000B000C9720008D97200089B0200089B02000860
:1000C0009B0200089B0200089B0200089B0200089C
:1000D0009B0200089D7B00089B0200089B02000811
:1000E0009B0200089B0200089B0200089B0200087C
:1000F0009B0200089B0200089B0200089B0200086C
:100100009B0200089B0200089B0200089B0200085B
:100110009B0200089B0200089B0200089B0200084B
:100120009B0200089B0200089B0200089B0200083B
:1001300000F002F800F094F80AA090E8000C824465
:100140008344AAF10107DA4501D100F089F8AFF242
:10015000090EBAE80F0013F0010F18BFFB1A43F0A5
:100160000103184780090100A0090100103A24BFCB
:1001700078C878C1FAD8520724BF30C830C144BF0C
:1001800004680C607047000000230024002500264E
:10019000103A28BF78C1FBD8520728BF30C148BFEA
:1001A0000B6070476E2900F0AA86702901F0DB8190
:1001B000662910F01B81652910F01881672910F05D
:1001C0001581612910F0148103681B0A28BF41F0D2
:1001D0008001692900F0CE80642900F0CB80752968
:1001E00000F0C8806F2901F06981782901F0A781AA
:1001F000E92900F0FB80E42900F0F880F52900F0FF
:10020000F580EF2901F06681F82901F0A6810368E5
:10021000DB0928BF41F08001632901F0C280732906
:1002200001F0C780E32901F0CF86F32901F0D486DD
:10023000002070471FB59DE8030001F0ABFC01F002
:1002400089FC0400002000210FF0DCFA401C6060F3
:10025000002000210FF0C0FAE0601FBD10B510BDF6
:1002600002F031F91146FFF7E5FF0BF07BFC02F0DD
:100270009BFB03B4FFF7F2FF03BC01F061FC00003D
:100280000948804709480047FEE7FEE7FEE7FEE72A
:10029000FEE7FEE7FEE7FEE7FEE7FEE70448054966
:1002A000054A064B70470000B5720008310100088E
:1002B0008885002088910020888900208889002076
:1002C0007CB51D4616460C00009001D02044401E0F
:1002D000074B7B442A4669460190304601F037F8C7
:1002E00005461CB10020694601F044F828467CBD53
:1002F000A91000000FB41CB5084B06AA7B44694640
:100300000090059801F023F804460020694601F0AA
:1003100031F820461CBC5DF814FB0000751000008D
:1003200070B50C460546012A05D02878800600D510
:10033000EA69002302E0012305E05B1C934202D23C
:10034000E05C0028F9D1A869E618C01AA861286AFB
:1003500018442862284600F040FD04E0D5E9012158
:1003600014F8010B9047B442F8D3284600F04BFD37
:1003700070BD00002DE9F041064600241068752983
:10038000314616A510D000F04FFD002802DA404299
:1003900013A507E031688A0701D512A502E04907D5
:1003A00004D511A5012401E000F047FD00210A2237
:1003B00006F1240709E0B0FBF2FCB0FBF2F302FB0C
:1003C0001C00303078541846491C0028F3D12346CD
:1003D0002A463046BDE8F04100F038BD000000007C
:1003E0002D0000002B000000200000002DE9F0414E
:1003F0008046D21D22F007020025D2E90002F5292D
:1004000015A614D0011E72F1000106DA0023D0EB0C
:10041000030063EB020211A608E0D8F800108B0776
:1004200001D50FA602E0490701D50EA60125114608
:10043000002408F1240704E000F07FFC30323A5534
:10044000641C50EA0102F7D12B4632462146404651
:10045000BDE8F04100F0FABC000000002D000000F3
:100460002B000000200000002DE9F05F89460446C3
:100470004FF0000ADFF874B1FB44C0F820A020461A
:10048000E1688847002874D0252806D0D4E90121E6
:100490009047206A401C2062F1E700265F46204614
:1004A000E16888472028054607DB312D05D27819F9
:1004B00010F8200C08B10643F1E7B00701D526F08B
:1004C0000406C4F81CA00027C4F818A02A2D09D0DF
:1004D00028460EF0ACFF38B304EB8708303DC8F86F
:1004E000185019E059F8041B204604EB870291616B
:1004F000E1688847012F054618D1E069002820DA15
:1005000026F020061DE0D8F8180000EB800005EB6F
:1005100040003038C8F818002046E1688847054692
:100520000EF085FF0028EED1012F0AD02E2D08D124
:100530002046E16888477F1C0546022F46F02006CA
:10054000C4DBA069002803DA404246F00106A0613E
:10055000F00701D026F010066C2D0BD0682D09D0C5
:100560004C2D39D06A2D35D0742D35D07A2D33D01D
:1005700016E038E0E1682F4620468847B842054635
:1005800009D16C2F26D04FF48060E16806432046E5
:100590008847054604E06C2F1AD04FF4807006435C
:1005A0000DB3A5F14100192802D8203546F40066A4
:1005B0004A462946204626604E46FFF7F3FD80B1A5
:1005C00001280BD0F61D26F0070000F1080956E7B8
:1005D0004020E4E78020D8E70020D6E706F10409B0
:1005E0004DE7284652E7206ABDE8F09FC0000100B1
:1005F0000FB400B58DB010A9099000910B904FF089
:10060000FF300A9000200C90064878440690064877
:1006100078446A4607900F9909A801F03FFA0DB097
:100620005DF814FBAF140000C71400002DE9FF4F64
:100630001C4691464FF0FF3581B000218A4688461E
:10064000D4E90167A16902986D1C8847216A834635
:1006500088470028F6D1BBF1FF3F0CD0002F26F4CD
:10066000C0661ADD700615D5BBF12B0F0AD0BBF1A1
:100670002D0F0FD104E04FF0FF3005B0BDE8F08F33
:1006800046F48066A16902986D1C88477F1E8346E8
:10069000002F02DDBBF1300F03D0B9F1000F2AD0DB
:1006A00025E0A1696D1C02987F1E46F400768847FC
:1006B000002F834605DDBBF1780F06D0BBF1580F44
:1006C00003D0B9F1000F10D011E0B9F1000F02D042
:1006D000B9F1100F0BD1A1696D1C02987F1E26F491
:1006E000007688478346102000E0082081464FEAC4
:1006F000E970009017E00A20F8E74346AAFB0928B2
:10070000DDF800C07F1E03FB098046F4007605F18A
:1007100001050AFB0C0112EB0B0A029841EBEB7886
:10072000A16988478346002F06DD4946584600F0F8
:1007300025FF5FEA000BE0D5E16902988847B00524
:1007400002D46FF0010098E7F00718D1700610D5B9
:100750005146700505D50023D1EB030163EB080278
:1007600000E042462068031D23600068C0E90012D3
:1007700005E02068011D21600068C0E900A8284646
:100780007BE72DE9FF5F1D464FF0FF3B91464FF0A1
:1007900000085F46D5E90146A96901987F1C884792
:1007A000296A824688470028F6D1BAF1FF3F0CD06B
:1007B000002E24F4C06419DD600614D5BAF12B0FA5
:1007C00009D0BAF12D0F0ED103E0584604B0BDE8B0
:1007D000F09F44F48064A96901987F1C8847761EC5
:1007E0008246002E02DDBAF1300F03D0B9F1000FBE
:1007F00026D032E0A969761E01987F1C44F400746B
:100800008847002E824605DDBAF1780F06D0BAF18E
:10081000580F03D0B9F1000F10D01EE0B9F1000F4E
:1008200002D0B9F1100F18D1A969761E01987F1C6A
:1008300024F4007488478246102002E0082000E07B
:100840000A20814609E0A96908FB0908761E01987B
:100850007F1C44F4007488478246002E05DD49461B
:10086000504600F08BFE0028EDDAE96901988847D0
:10087000A00502D46FF00100A8E7E00725D16006CB
:1008800013D5600502D5C8F1000000E04046296894
:100890000A1D2A600968220501D5087015E02207A3
:1008A00001D5088011E008600FE02868011D29606B
:1008B0000068210502D580F8008006E0210702D5F6
:1008C000A0F8008001E0C0F8008038467EE72DE9FE
:1008D000FF5F4FF000089946144646469169D2E9F9
:1008E00001A7DDF838B001988847054659EA0B00A2
:1008F00005D009E0A1690198761C88470546216A60
:10090000284688470028F5D1681C03D05FEACA70E2
:1009100005D015E04FF0FF3004B0BDE8F09F20682F
:10092000011D2160D0F800800AE05FEACA7001D1A1
:1009300008F8015BA169761C01987F1E884705466F
:10094000002F1ADD681C18D0B9F1000F0DD0E81780
:1009500005EBD060421120F01F0059F822102A1A2E
:10096000012090400142E0D107E0BBF1000FDCD153
:100970002846216A88470028D7D0E169019888472E
:10098000BBF1000F07D1002E05DD5FEACA7002D16E
:10099000002188F80010A068B84203DDBBF1000F09
:1009A00003D017B16FF00100B6E73046B4E700009E
:1009B000014A01F0A3B800000000002030B5054650
:1009C0000B462A4613F8014B12F8010B08B1A0425E
:1009D000F8D01CB1002802D06D1CF1E7284630BDCC
:1009E00040EA010310B59B070FD1042A0DD310C8AC
:1009F00008C9121F9C42F8D020BA19BA884201D9FE
:100A0000012010BD4FF0FF3010BD1AB1D30703D045
:100A1000521C07E0002010BD10F8013B11F8014BFB
:100A20001B1B07D110F8013B11F8014B1B1B01D117
:100A3000921EF1D1184610BD10B5431C02E010F80B
:100A4000011B71B18107FAD14FF0013202C88C1A33
:100A50008C4314EAC211F9D0C01A0A0603D0C01E92
:100A600010BDC01A10BD0A0401D0801E10BD0902BD
:100A7000FCD0401E10BD032A40F2308010F0030C61
:100A800000F0158011F8013BBCF1020F624498BFE1
:100A900011F801CB00F8013B38BF11F8013BA2F17E
:100AA000040298BF00F801CB38BF00F8013B11F0F9
:100AB000030300F02580083AC0F0088051F8043B99
:100AC000083A51F804CBA0E80810F5E7121D5CBF06
:100AD00051F8043B40F8043BAFF30080D20724BF39
:100AE00011F8013B11F801CB48BF11F8012B24BFCD
:100AF00000F8013B00F801CB48BF00F8012B70471C
:100B000010B5203AC0F00B80B1E81850A0E818509A
:100B1000B1E81850A0E81850203ABFF4F5AF5FEAEA
:100B2000027C24BFB1E81850A0E8185044BF18C98F
:100B300018C0BDE810405FEA827C24BF51F8043B36
:100B400040F8043B08BF7047D20728BF31F8023B8A
:100B500048BF11F8012B28BF20F8023B48BF00F81E
:100B6000012B704702F0FF0343EA032242EA0242EC
:100B700000F024B84FF000020429C0F0128010F0F9
:100B8000030C00F01B80CCF1040CBCF1020F18BF69
:100B900000F8012BA8BF20F8022BA1EB0C0100F0FC
:100BA0000DB85FEAC17C24BF00F8012B00F8012BCF
:100BB00048BF00F8012B70474FF0000200B5134604
:100BC00094469646203922BFA0E80C50A0E80C506D
:100BD000B1F12001BFF4F7AF090728BFA0E80C501E
:100BE00048BF0CC05DF804EB890028BF40F8042B17
:100BF00008BF704748BF20F8022B11F0804F18BF84
:100C000000F8012B704700004FF0013C50F8042B16
:100C100051F8043B9A4221D1A2EB0C03934313EA0F
:100C2000CC1317D150F8042B51F8043B9A4215D13C
:100C3000A2EB0C03934313EACC130BD150F8042B13
:100C400051F8043B9A4209D1A2EB0C03934313EAF7
:100C5000CC13DBD04FF00000704700BFD01A01BAB0
:100C6000B1FA81F101F0180122FA01F0CB40DBB2B8
:100C7000C0B2C01AC1F120012CFA01F3D11A91437C
:100C800011EAC311E6D1704770477047704770B5DD
:100C9000064600F05BFF056806F10B0020F0070434
:100CA000B4429CBF002070BD2B466A68BAB1106880
:100CB000A04210D304F1080188423CBF506858603C
:100CC00007D35168101941601168091B0160586011
:100CD0001460101D70BD13465268002AE7D12146EA
:100CE000284600F043FF0028DED170BD70B50446F1
:100CF000051F00F02BFF0068002C14BF446870BD76
:100D0000002C18BFAC423CBF20466468F8D3016891
:100D10000A18AA4218BF456003D12A680546114443
:100D2000016028684119A1421CBF6C6070BD6168F8
:100D3000696021680844286070BD30B5B0F10A02CE
:100D400071F100034FEA900E4EEA817EB0EB0E0087
:100D500061EB91014FEA101E4EEA017E10EB0E008E
:100D600041EB11114FEA102E4EEA016E10EB0E000E
:100D700041EB11214FEA104E4EEA014E10EB0E00EE
:100D800041EB1141401841F100014FEAD00040EA27
:100D900041704FEAD1014FEA810444EA907410EBAC
:100DA000800544EB01046D1944EB0404521BA3417C
:100DB0004FF0000348BF0A3200D530BD401C41F15E
:100DC000000130BD10B500F0C9FE006810BD10B5BF
:100DD000044600F0C3FE046010BD70B5044685698A
:100DE0000068C10601D5302600E02026C00707D0E4
:100DF00070BDD4E9012130469047206A401C206232
:100E00006D1EF6D570BD70B5044685690078C007C3
:100E100007D170BDD4E9012120209047206A401CF1
:100E200020626D1EF6D570BD09684A0501D540B235
:100E30007047C905FCD500B2704709684A0501D55D
:100E4000C0B27047C905FCD580B270472DE9F047A4
:100E50000D4699469246044600F12408016888062A
:100E600004D5E06921F01001216000E00120A842D2
:100E700001DD471B00E00027A1697A1902EB090098
:100E8000081AA0612078C00602D42046FFF7A5FF0B
:100E9000002608E0D4E901211AF806009047206AEC
:100EA000401C761C20624E45F4DB2078C0060AD533
:100EB0002046FFF792FF06E0D4E901213020904759
:100EC000206A401C2062381EA7F10107F4DC07E00D
:100ED000D4E9012118F805009047206A401C2062DF
:100EE000281EA5F10105F3DC2046FFF78CFF2078D2
:100EF000000602D50220BDE8F0870120FBE711685B
:100F00000268006A530501D508700AE0D30501D5CF
:100F1000088006E0130603D5C217C1E9000200E00D
:100F20000860012070472DE9FF4F0C461E464FF028
:100F3000FF378BB0D2E90001DDF860800A908A4665
:100F4000C1F30A5505B93D46002108464FF000009F
:100F5000BAF1000F00F4400005DA00EB80004FF416
:100F6000400101EA50004FEA9059B9F1010F00DD4C
:100F7000B9460A9850EA4A000ED044F61050A5F23D
:100F8000FF3545432F14B8F1000F1ED07542291EBE
:100F90001EDDC9F100021CE0B8F1010F4FF00000A6
:100FA00001D0302103E0F24305E02154401CB0425F
:100FB000FBDB30460022002121540B99C1F8088048
:100FC000C1E900200FB0BDE8F08FBD1B6D1CDEE74E
:100FD0004A4600DA694206A801F0BCF906AB93E87C
:100FE000070003AB83E8070050460A990DF084FC24
:100FF0008DE80700A0F500501F3800900398002DE1
:101000000ADD42F21F014A460844002303A9039067
:1010100068460DF02FFF09E0A0F500504A461F3842
:10102000002303A9039068460DF04EFF8DE80700EA
:101030000004000C03D04FF0FF30410800E01046E0
:10104000B8F1000F03D00022009215461EE0751E75
:1010500005D4FFF772FE303262556D1EF9D5B346E6
:101060000122084302D000227F1C04E020783028AF
:1010700001D100227F1E002A099784D01DE0112D86
:1010800007DAFFF75AFE303262556D1C50EA010252
:10109000F5D1084302D00098C8B10EE00021681EC7
:1010A00005E0235C625C63542254401E491C81426B
:1010B000F7DBAB46A81B401E0990002004F80B008C
:1010C0000B98099AC0F80880C0E9002B7AE711262E
:1010D0004FF0000857E72DE9F04F88460446D21D2F
:1010E00022F0070191B0D1E90001CDE90A010EF02B
:1010F00037F802460B98C00F01D02D2007E020687A
:10110000810701D52B2002E0202101EAC000032A3B
:10111000099001D0072A05DB03464146204600F02E
:1011200009FF0BE12078800601D5E06900E0062088
:10113000B8F1650F814606D0B8F1660F18D0B8F146
:10114000670F70D131E00020B9F1110F009001DB81
:10115000112301E009F101030AAA01A90CA8FFF774
:10116000E2FEDDE90C70002609F10105834647E047
:1011700001204B4600904FF000470AAA01A90CA895
:10118000FFF7D1FEDDE90DB00C995D46002610B9E0
:1011900009F101000D18B9EB050003D4C0F1FF36C9
:1011A00009F10105A5EB09002BE0B9F1010F01DA06
:1011B0004FF001090020B9F1110F0090484601DD00
:1011C000112300E003460AAA01A90CA8FFF7ABFE11
:1011D000DDE90C704D4600268346207800070AD4CE
:1011E000AB4500DA5D4601A8012D04DD411911F877
:1011F000011C302907D04F4502DA17F1040F04DA39
:10120000012082460FE06D1EEEE7002F02DCED1B91
:101210003E4403E0781CA84200DD7D1CB81B00F1B1
:10122000010A4FF000472078000703D4AA4501DBEC
:101230004FF0FF3A0021B7F1004F0DF143088DF850
:10124000431024D002202B23002F01DA7F422D23CC
:101250000A21021EA0F1010000DC5FB197FBF1FC46
:1012600097FBF1F201FB1C7C17460CF1300C08F8DF
:1012700001CDEEE7A8F1010003702188090501D531
:10128000452100E06521A0F1010800F8011C099842
:101290000FA9A1EB0807FF1D00B10120411901EBC7
:1012A000EA70A1693844081A401EA0612078C0067F
:1012B00002D42046FFF791FD099828B1D4E9012115
:1012C0009047206A401C20622078C00622D5204624
:1012D000FFF783FD1EE0002E04DBB34502DD01A80D
:1012E000805D00E03020D4E901219047206A401C55
:1012F0002062761CAAF101005FEA000A0AD100F020
:1013000029FCC0680168405CD4E901219047206A4B
:10131000401C2062281EA5F10105DCDC07E0D4E9B1
:10132000012118F8010B9047206A401C2062381EEA
:10133000A7F10107F3DC2046FFF765FD032011B09C
:1013400041E6000001694A1C02610878704700B557
:101350008FB0CDE901310021059105497944CDE9EE
:10136000031011466846FFF77FF80FB000BD00007C
:10137000E5FFFFFF0A6802F8010B0A607047D1E938
:1013800000239A4202D2531C0B601070704710B5B4
:10139000436913B1AFF3008001E0FEF7C1FF012004
:1013A00010BD127800F124010A7000224A70012257
:1013B000EDE711684FF0FF32E9E700002DE9FF5F2C
:1013C00015468A460446DFF8AC80F8440027D8E981
:1013D00000103E46CDE9001010E03AF816106A46BB
:1013E00002A801F029F8411C07D02178890603D50D
:1013F000E269391891420DD80744761C207880069E
:1014000002D5E069B84205DDAE42E6DB3AF81600E7
:101410000028E2D1A069C01BA0612046FFF7DDFCD7
:10142000D8E90010CDE90010002017E03AF81810B4
:101430006A4602A801F000F8B0F1FF3F81460BD0E8
:1014400000250DF1080B05E0D4E901211BF805008A
:1014500090476D1C4D45F7D308F10100B04280461E
:10146000E4DB206A384420622046FFF7CCFCBDE86C
:10147000FF9F000082F1000030B4002100F124043D
:1014800008E002F00705D208303542EA4372DB0873
:101490006554491C52EA0305F3D10468002310A2E5
:1014A000250708D504F020040C4304D0C4690123A7
:1014B0000CA2641EC46130BCFFF7C8BC10B5044662
:1014C00021461068FFF7B9FC02462046BDE81040EF
:1014D0000023D1E7D21D22F00701D1E90023CBE799
:1014E0000000000030000000F0B40D46018809053E
:1014F00002D5214C7C4402E01F4C7C440E34002178
:1015000000F1240608E002F00F071209E75D42EA45
:1015100003721B097754491C52EA0307F3D102787E
:101520000023120704D5702D06D009B1022311340F
:101530002246F0BCFFF78ABC01231034F8E770B5EF
:1015400004460D4621461068FFF777FC02462946FF
:101550002046BDE870400023C6E7D21D22F00703F5
:10156000D3E90023C0E70368126843F02003036057
:101570000823C3610023B7E760F000003A2800D2D7
:10158000303820F02002412A01D3A2F137008842EE
:1015900001D34FF0FF3070472DE9FF4F06468BB067
:1015A0000878FF2806D0491C2D2805D000244FF0CC
:1015B000000908E000200CE00124F8E709EB8903AA
:1015C000491C00EB43090878FF28F7D114B1C9F191
:1015D00000008146107800252C46AA4629462D2871
:1015E00001D02B2804D1521C2D2813D00020824674
:1015F0008B461078FF280FD04FF0000C0A21521CA8
:10160000A5FB017804FB018105FB0C11C5194BEB0F
:101610000104EEE70120EAE7002108464FF0000050
:10162000BAF1000F02D000EB80004008C0F38157F0
:10163000012F01DD4FF0FF370E9955EA040009EB49
:1016400001080BD04FF0020918F5FA7F16DA4FEABD
:10165000CA70002F706008DD012007E04FEACA70F1
:10166000C6E900B00FB0BDE8F08F0020306000F098
:1016700075FAC0F800901821084616E0B8F5FA7F10
:1016800018DD002F02DAF748784401E0F648784484
:10169000D0E90010C6E9001040EACA70706000F09E
:1016A0005DFAC0F80090142108460FB0BDE8F04F75
:1016B0000EF099BE002108464FF00000B8F100017D
:1016C000099002DAC7F1000200E03A4601DAC8F1F7
:1016D000000106A800F03EFE06AB93E8070003AB4E
:1016E00083E8070044F23E005BEA0401009058469C
:1016F00004D144F21E012C465D460091210C0904E0
:10170000014306D10099240444EA15442D041039FC
:10171000009104F07F41014306D10099240244EA7C
:1017200015642D020839009104F07041014306D17F
:101730000099240144EA15742D01091F009104F059
:101740004041014306D10099A40044EA9574AD00DC
:10175000891E009104F00041084304D100986D19DE
:101760006441401E00904FF001033A466846B8F1CC
:10177000000FCDE9014503A902DD0DF0BAFB01E040
:101780000DF08DFBBAF1000F04460D4601D084F038
:101790000044002108464FF00000099940F2FF770D
:1017A000484010F00C0F07D124F00040284303D02C
:1017B000C4F30A50B84212D100F0D0F9C0F800903A
:1017C000C4F30A50B8420AD1A8487844D0E90010BE
:1017D000C6E9001004F000410843706042E7C6E922
:1017E00000543FE72DE9FF4F1F464FF0000A4FF02E
:1017F000FF38454691B0D7E90146CDF83CA000F04E
:10180000A9F9C0680168405C1090B96912986D1C14
:101810008847396A814688470028F6D1B9F1FF3FE9
:101820000AD0002E24F4D06411DDB9F12B0F08D0BA
:10183000B9F12D0F0BD102E0404615B013E744F487
:101840008064B96912986D1C8847761E81466005D0
:1018500004A901D52D2000E02B20002E01F1010B61
:101860000DF130088DF810003FDDB9F1690F08D097
:10187000B9F1490F05D0B9F16E0F02D0B9F14E0F91
:101880001CD13B4601A8009580E85002DDE9121208
:101890006FF002000EF038FEC11CCED10EE0B96927
:1018A00012986D1C884781461398761E44F4007484
:1018B00005600F98401C002E0F9016DDB9F1300F17
:1018C000EDD0B9F1780F02D0B9F1580F0DD10F98C2
:1018D00001280AD13B46CDE90054DDE91212001F70
:1018E00002960EF00FFEC11CA7D1109989453ED17A
:1018F00044F0800406E01399681CAAF1010A44F43C
:1019000000740860B9696D1C1298761E88473028EB
:101910008146F0D02BE01099894505D1200603D4EB
:10192000761E44F0800418E048460DF080FD08B3B0
:10193000761E0DF123029345A9F1300044F40074A2
:1019400006D20BF8010B200607D5AAF1010003E02F
:10195000200602D40AF101008246A00502D513999F
:10196000681C0860B96912986D1C88478146002E72
:10197000D1DC53E0002E51DDB9F1650F02D0B9F191
:10198000450F4BD1A00549D5B9696D1C1298761E3B
:1019900024F440748847002E81460CDD2B2804D0A7
:1019A000B9F12D0F07D144F48074B96912986D1CF8
:1019B0008847761E8146E00501D52D2100E02B21C8
:1019C00008F8011BCDF8008021E0761E0DF13901E9
:1019D000884544F400740CD2A9F1300010F0FF00E7
:1019E00088F8000002D10099884509D908F101085A
:1019F00006E0E00501D51E4801E042F20F70824684
:101A0000B96912986D1C8847814613980560002EAD
:101A100004DD48460DF00BFD0028D6D1F969129877
:101A20008847FF2053468BF8000088F8000000200C
:101A30000A900B9004AA0CA90AA8FFF7ADFDA00517
:101A400002D46FF00100F8E614F0240F12D0E00782
:101A50001CD13868DDE90A12031D3B600068C0E94B
:101A6000001213E080F4000072F4000036F300006E
:101A7000F1D8FFFF0AA968460DF0B4FBE00705D1D5
:101A80003868009A011D3960006802602846D4E673
:101A9000026811441378016018467047D160054907
:101AA0007944516104497944116200211161114660
:101AB00000F096BAEDFFFFFF7D010000426842B1E1
:101AC000016811F8013B23B1521EC0E9001218460B
:101AD00070470121C160881E704742685AB1C368CF
:101AE000016843B983688B4205D0491E521CC0E986
:101AF0000012002070474FF0FF3070472DE9F04191
:101B000015460E46040002D12C6804B90BA42046E9
:101B100000F0C6FC0444207870B1274631463846B0
:101B200000F0AEFC0444207810B1002004F8010B52
:101B300038462C60BDE8F0810027F9E7000000007E
:101B400001491820ABBEFEE726000200004870479E
:101B5000680000200048704780000020004870475F
:101B600060000020704770477047704738B50446E2
:101B70000A4600206946AFF30080002808BF38BD40
:101B800002460099204600F0CBFC012038BD012020
:101B900000F018BFF8B5AFF30080054600200C46F2
:101BA000102000BF0646A819A0420DD9324669464A
:101BB0000020AFF30080070008BF00F003FF00988B
:101BC000A04218BF0546C419FFF7C0FF05600746CD
:101BD000F01D20F007004619284600F00AF8B4422C
:101BE00008BFF8BDA21B31463868BDE8F84000F0D8
:101BF00097BC00210160C0E90110704710207047B8
:101C0000B2F120030AD5C2F1200301FA02F120FA51
:101C100003F341EA030100FA02F0704700FA03F10E
:101C20004FF00000704710B5044600F071FC0068EA
:101C3000005D00F0010010BD2DE9F04F04460D4697
:101C4000D21D22F0070089B0D0E9009748463946F6
:101C50000DF086FA0246F80F01D02D2307E0206828
:101C6000810701D52B2302E0202101EAC0038DF872
:101C700020300BB1012000E00020032A824601D071
:101C8000072A04DB2946204600F054F93FE120787A
:101C9000800601D40D2500E0E569C7F30A560D2D35
:101CA00049DA00214FEA175B08464FF00000002F89
:101CB00000F4400007DA00EB80004FF4400100EB35
:101CC000D07001EA60008115012901DD4FF0FF317C
:101CD00000224FEA850CBCF1180F06D31346ACF175
:101CE00018004FF08052C24003E04FF4801323FAF3
:101CF0000CF30CF10C0CBCF1200F04D3ACF1200C54
:101D000009FA0CF001E007FA0CF000294FF0004846
:101D100001DD18B90FE00ED140450CD319EB0209D3
:101D20005F4121B9404502D19F4329EA0209BBEB3B
:101D3000175F00D0761C2088000502D57B487844C8
:101D400002E07A487844193808AA302302F80A30A9
:101D5000037C0AF10101002E0AF1020A53546A467B
:101D600002DC4FF0300101E04FF031014FF001088B
:101D70008DF8001002D0A6F2FF3603E059EA4701C1
:101D800000D06B4E002D02DC2178090704D54FF0FE
:101D900002082E218DF80110C44600210BE0C7F384
:101DA00003433F01C35C491C6D1E02F8083005293E
:101DB00008F1010801DA002DF1DC00210CE000EB54
:101DC0001973491C1B786D1E082902F808304FEA68
:101DD000091908F1010801DA002DF0DC21688B06F1
:101DE00002D516E0A8F10108E04505DD02EB080385
:101DF00013F8013C302BF5D0B8F1000F09DD02EBF0
:101E0000080313F8013C2E2B03D1090701D4A8F1D4
:101E10000108002D05DD3E2102F808106D1E08F1B5
:101E20000108407C002E02F8080008F1010804DADD
:101E30002D20764202F8080002E02B2002F808006C
:101E40000A214FF47A70864208F101080BDB96FBF9
:101E5000F0F3303302F8083096FBF0F308F1010894
:101E600000FB136601E0642E0CDB642096FBF0F3AC
:101E7000303302F8083096FBF0F308F1010800FB5C
:101E8000136601E00A2E06DB96FBF1F0303002F813
:101E9000080008F1010896FBF1F001FB10603030FA
:101EA00002F80800A16908F1010808EB050202EB3D
:101EB0000A00081AA0612078C00602D42046FEF766
:101EC0008CFF216A08AE01EB0A00206204E0D4E92D
:101ED000012116F8010B9047BAF1010AF7D22078D8
:101EE000C00602D52046FEF778FF6E4609E016F8D8
:101EF000010B3E280FD0D4E901219047206A401CF5
:101F00002062B8F10108F2D22046FEF77CFF09B04A
:101F10000320BDE8F08F206A2844206203E0D4E962
:101F20000121302090476D1EEBD3F8E771E80000E7
:101F300002FCFFFF2DE9F0411F460446032601681D
:101F4000072A01F4006004DB08B116A505E016A518
:101F500003E008B115A500E015A521F010002060F0
:101F6000A069C01EA0610FB1401EA0612046FEF70F
:101F700034FF4FB1D4E9012138469047206A401C14
:101F80002062C01C206206E0206AFAE7D4E9012141
:101F900015F8010B9047761EF8D22046FEF733FF66
:101FA000BDE8F0814E414E006E616E00494E460024
:101FB000696E660010B5436913B1AFF3008001E0AC
:101FC000FFF7FCF9012010BD128800F12401828482
:101FD0000022C2840122EDE711684FF0FF32E9E7E9
:101FE0002DE9F34F4FF0000A0C4656468DB0012004
:101FF0000C9001F10C000B9062690B980121904745
:10200000051E2DD0252D2CD0216A8847C0B16269CC
:102010000B9801219047216A88470028F7D162690F
:10202000411E0B98904700E0761CA1690D988847E7
:10203000216A88470028F7D1E1690D988847DBE7D6
:10204000A1690D988847A842074601D1761CD3E7BD
:10205000E1690D9888477F1C02D1BAF1000F6FD05B
:102060006BE162690B9800273D46394690472A2864
:1020700004D162690B98012190470125DFF8D082D5
:1020800062690B9801219047A0F130010A290AD218
:102090004745E5DC07EB870100EB4107303FDFD424
:1020A00045F01005ECE7E90601D46FF000476C2815
:1020B0000AD04C2814D0682815D06A280DD074286E
:1020C0001CD07A281AD01DE062690B980121904734
:1020D0006C2802D045F0040514E045F002050DE03F
:1020E00045F020050AE062690B98012190476828B5
:1020F00002D045F0080505E045F4006562690B98DB
:1021000001219047C4E9015765283DD019DC5828C2
:102110007AD00CDC452837D004DC252826D041288D
:102120009ED131E046282FD0472899D12CE05B285A
:1021300077D0612828D063287CD0642823D15AE046
:10214000F6E06F2848D008DC66281DD067281BD031
:10215000692821D06E2816D127E0702845D0732831
:1021600068D0752847D078280DD14DE0A1690D9829
:102170008847252805463FF469AFE1690D988847EF
:102180006D1C3FF46AAFD8E00D9923466A466FF0A4
:1021900001000EF0B5F9C5E045F0400023464FF0D0
:1021A00000026060A80736D43EE0E8077FF447AF3E
:1021B0002068011D21600068290501D506701BE714
:1021C000290701D5068017E7A90703D5F117C0E94C
:1021D000006111E706600FE745F0400023464FF02D
:1021E00008026060A80716D41EE040F60E0125EA3A
:1021F0000100606016E045F0400023464FF00A02FF
:102200006060A80707D40FE045F040006060A807B1
:1022100008D5234610220D996FF00100FEF706FA4B
:1022200080E007E0102223460D996FF00100FEF7D1
:10223000A8FA77E04FF0000963284F46C8464B469E
:10224000CB4602D05B2806D038E0E80601D4012056
:10225000A060012732E06269D4F80CB00B9801212C
:1022600090475E2807D14FF0010949466269D4F8CA
:102270000CB00B989047216939B900210A4603AB8D
:1022800043F82120491C0829FADBD8B3216949B356
:1022900008F1010862690B98012190475D28F4D18B
:1022A000B9F1000F09D0002003A951F82020D24332
:1022B00041F82020401C0828F7DB03AB20690028E8
:1022C00020794FEA40701ED05B462246CDF8008050
:1022D000CDE901970D9900286FF0010020DAAFF3E6
:1022E00000801FE0C11703AA00EBD1614B1121F060
:1022F0001F0102EB8302411A136801208840034347
:102300001360C7E719E00D99224600286FF001001D
:10231000009702DAAFF3008004E0FEF7D8FA01E09C
:10232000AFF3008000280ADA401C06D10C9820B1D7
:102330004FF0FF300FB0BDE8F08F5046FAE7E907E5
:1023400001D10AF1010A064400200C9054E6000075
:10235000CCCCCC0C2DE9F047814616468AB03548E6
:1023600078440DC88DE80D0032487844801C03ACD9
:102370000DC884E80D0041F69B300844372190FBDE
:10238000F1F290FBF1F5A5F1800501FB12041B3C75
:1023900002D56442012000E00020DFF898A08046CA
:1023A0000027FA44AAF1BE0A0EE0E0070AD032463E
:1023B000684607EB470101230AEB81010CF084FD1D
:1023C0008DE8070064107F1C002CEED1194F7F446C
:1023D000AE3F19E0E80715D007EB04100DF1180A1D
:1023E00090E80E008AE80E00C068F04201D198190A
:1023F00008903246012306A903A80CF065FD03AB43
:1024000083E807006D10641C002DE3D14FF0010339
:1024100032466946B8F1000F03A802D00CF02AFD3D
:1024200001E00CF051FDC9E90001C9F808200AB02B
:10243000BDE8F087E0E200002DE9F04116460C46C9
:10244000054600F065F8036893F80101012807D0FC
:10245000FF2C12D8185D80B101202C70BDE8F081EE
:10246000D3F807013246214603F20713C71828465E
:10247000BC46BDE8F041002360474FF0FF30EDE778
:1024800030B503461D781DB10A4603E0AC4201D1C8
:10249000181A30BD12F8014B002CF7D15B1CF1E784
:1024A00030B503461D783DB10A4612F8014B1CB108
:1024B000AC42FAD15B1CF5E7181A30BD00487047F2
:1024C0006000002070477546FFF7F8FFAE46050034
:1024D0006946534620F00700854618B020B5FDF741
:1024E000DDFEBDE820404FF000064FF000074FF042
:1024F00000084FF0000BAC46ACE8C009ACE8C009DE
:10250000ACE8C009ACE8C00921F007018D4670476E
:1025100010B5FFF71FFB001D10BD00BFE9D2000082
:10252000034640688C46002818BF88423CBF0346DB
:102530004068F8D318681844884207D00CF10300AB
:1025400020F00700001D411A521A0146081D0A60BA
:10255000FEF7CCBB2DE9FF4F1F464FF03C0987B07B
:102560004FF00042DDE9141001F10108DDF858A038
:1025700002EA405003900020059083460546044639
:102580000490B969461E08988847AAF1010A02908A
:10259000BAF1000F3BDD02982E2815D01021FEF76E
:1025A000EDFF00282EDB4FF0010B0599014317D0FA
:1025B000B9F1000F0BDB4A46C117FFF721FB0543BA
:1025C0000C43A9F1040905E0012004900BE008B1D7
:1025D00045F0010501200590049820B9361D02E060
:1025E000049800B1361FB969089808F101088847B6
:1025F000BBF1000FAAF1010A0290C9D00999C1F8F4
:102600000080C5E70298702808D0502806D0F969E4
:1026100008988847BBF1000F14D04FE000200290CB
:102620000120BBF1000F049009D0B969089808F1A6
:1026300001088847AAF10109B9F1000F07DCF9691F
:10264000089888476FF001000BB0BDE8F08F2B2889
:1026500004D02D280CD14FF0FF300490B9690898B0
:1026600008F101088847A9F10109B9F1000FE6DD79
:10267000411CE4D00A21FEF781FF0028DFDB02992C
:1026800008F1010801EB810100EB41000290B969FA
:10269000089888470A21FEF771FF099AA9F10109F4
:1026A000B9F1000FC2F8008001DD0028E7DAF9690E
:1026B000089888470499029800FB016655EA0400CF
:1026C00004D004F04041090002D006E0039898E0ED
:1026D000A40044EA9574AD00B61E04F00041080061
:1026E00002D16D196441761E159810F0240F03D0A5
:1026F0004FF00B095C4803E04FF028096FF07D00B4
:102700008246564507DAAAEB06018944B9F1410F22
:1027100001DD4FF0410901200021A9F10102FFF77D
:102720006FFA024628400B462140084301D00121A0
:1027300000E00021501E029143F1FF31284021406A
:10274000084301D0012000E000200299834651EAAD
:102750000B014FD0002108464FF00000039900F410
:10276000400039B100EB80004FF4400100EBD07025
:1027700001EA60008015012802DD4FF0FF3000E023
:1027800013D0401C36D0029860B3BBF1000F0CD1BF
:102790004A4601200021FFF733FA28402140084330
:1027A00001D0012000E00020E0B101204A460021D4
:1027B000FFF726FA034640190A4661412D1A8C415B
:1027C00011D3B9F1400F09DD159810F0240F02D094
:1027D000AAF1340603E0AAF1170600E0761C0025F2
:1027E0004FF0004406E05B1E42F1FF3220EA030591
:1027F00021EA0204CAF10100B04206DA1B4903983B
:1028000008430190002000900EE0039AC4F3D32106
:10281000E80A0A43164940EA44500A433146CDE9E2
:10282000000268460CF0F8FD159810F0240F0BD04C
:102830001598C00715D13868DDE90012031D3B600B
:102840000068C0E900120CE002A869460CF0CAFC5E
:102850001598C00705D13868029A011D39600068D3
:1028600002604046F0E6000002FCFFFF0000F07F3F
:102870000000F03F2DE9FF4F92461D4685B04FF016
:102880000041DDE9124BDDE914727F1E01EA4B5075
:10289000414940F0FF4940EA0108002122F02000B0
:1028A0004928049102D04E2828D04CE03BA00126B4
:1028B00007C88DE80700A9690698641C88477F1E31
:1028C000014606D41DF8060018B121F0200181420E
:1028D0000BD0E96906988847032E34D0082E32D0F1
:1028E0006FF0010009B0BDE8F08F761C032E01D017
:1028F000082EE0D1601CCAF80000DCE7A969069840
:10290000641C88477F1E2AD420F02000412826D14D
:10291000A9690698641C88477F1E20D420F02000F7
:102920004E281CD1A9690698641C88477F1E48F46C
:10293000002849F48009CAF8004001D4282806D0AC
:10294000E969069888475FEACB7012D022E0A9694E
:102950000698641C88477F1E01D4002803DAE969C1
:1029600006988847BCE72928F1D1641CCAF80040C2
:10297000E9E71BF0240F07D028680499031D2B609A
:102980000068C0E9001805E02868021D2A60006898
:10299000C0F800902046A5E70000F07F494E464968
:1029A0004E4954590000000010B50446AFF30080B2
:1029B0002046BDE81040FDF75CBC002801D0FFF7C1
:1029C000BFB8704710B500F01DF8BDE81040FFF724
:1029D000F4BF70B505460C460A2000E06D1C00F0FF
:1029E00039F835B128780028F8D102E0641C00F0ED
:1029F00031F814B120780028F8D1BDE870400A20E1
:102A000000F028B810B5012805D0002103A0FFF779
:102A1000E0FF012010BD09A1F8E70000534947522B
:102A2000544D454D3A204F7574206F66206865619E
:102A300070206D656D6F7279000000003A20486566
:102A40006170206D656D6F727920636F7272757041
:102A50007465640008B569468DF800000320ABBEBC
:102A600008BD0000B0B5044600688168C90709D0F8
:102A7000816821F00101816001F09EFC2168896874
:102A8000C90701D10020B0BD054603E02068806879
:102A9000C007F7D001F090FC401B0328F6D3206854
:102AA0008068C007F2D0A06A40F01000A062E06A1F
:102AB00040F00100E0620120B0BD000080B5014699
:102AC000406A826A12F0500F04D0006A026B084616
:102AD000904780BD0168826A42F400728262896810
:102AE00001F46021B1F5602F01D1017B11B100F03B
:102AF0008BF980BD816A21F480718162816AC90489
:102B0000F5D4816A41F00101816200F07DF980BD58
:102B100080B5406A816A41F040018162C16A41F03A
:102B20000401C16200F074F980BD000080B5406A04
:102B300000F06CF980BD0000B0B582B00446002002
:102B4000019021688A68D2073DD1886840F0010071
:102B5000886040F20400C2F2000000684DF6836114
:102B6000C4F21B31A0FB0101880C00BF0190019849
:102B700010B101980138F9E701F01EFC216889685D
:102B8000C9071CD1054603E020688068C00719D139
:102B900001F012FC401B0328F6D320688068C007B0
:102BA000F2D1A06A40F01000A062E06A40F001009B
:102BB000E062002084F82400012002B0B0BD0020B3
:102BC00002B0B0BD002002B0B0BD0000FEE70000C2
:102BD00080B540F69820C2F2000000F077FD80BD7D
:102BE00080B588B00A460021CDE904110290082082
:102BF000069040F698208DF81C10C2F2000002A941
:102C000001AB00F00FFC002818BF00F071F808B00D
:102C100080BD0000B0B58AB003200121002201244C
:102C200000250AF003FE41F2D431C2F2000108602F
:102C300044F22000CDE900054FF68070029002209A
:102C400003A931C1CDE90654089440F698240E201A
:102C5000C2F2000409906946204600F02DFC20468F
:102C600000F088FF002818BF00F042F840F69820D6
:102C7000C2F20000102100F0C1FB0AB0B0BD00009C
:102C800080B540F6C020C2F2000001F089F880BD96
:102C900080B540F60430C2F2000001F081F880BD3A
:102CA00080B540F64830C2F2000001F079F880BDEE
:102CB00080B540F68C30C2F2000001F071F880BDA2
:102CC000B0B5D0E900CED0E90F40012505FA00F0FB
:102CD00060600846CCF80430BEF1100F04BF104607
:102CE0000A46CCF80800CCF80C20B0BD70470000B4
:102CF000EFF3108072B600BFFEE7000070B581B040
:102D00000022009290F82420012A01D1022177E0CC
:102D10004A680123062A80F8243005D803686FF03A
:102D2000040C03F1340E0AE003680C2A87BF03F198
:102D30002C0E6FF0400C03F1300E6FF0220C02EB02
:102D40008202DEF8005062441F230C68934025EA9B
:102D5000030304FA02F21A43CEF800200E68D0F8FA
:102D600000E006EB46051024092E88BF1E3D88BFF3
:102D70000C245EF8042007238968AB409A43A940DD
:102D800011434EF8041026F001014FF0000C1029F9
:102D90004FF0000132D142F20041C4F201018E45F0
:102DA00005D0816A41F020018162012126E0896815
:102DB000090222D4DEF80810102E41F40001CEF8EA
:102DC00008101AD140F20401C2F2000109684DF660
:102DD0008362C4F21B32A1FB0212910C01EB810150
:102DE00049000091009941B1009901390091009981
:102DF00000294FF00001F7D100E0002180F824C045
:102E0000084601B070BD0000704700007047000028
:102E1000704700000068C06C70470000002804BFC5
:102E2000012070472DE9F0418046044658F8280FEC
:102E300030B90020E06284F82400204600F08EF8CB
:102E40002046FFF70FFEA26AA16A002808BF12F011
:102E5000100206D041F010010120C8F80010BDE8B2
:102E6000F08141F2021291430231A162D4E90013D0
:102E7000E66981F08045A26885F49E3586F4402796
:102E80002F4308BF4FF4002646EA0307531EB3FA48
:102E900083F35E091346B2F5807F18BF3302267DA7
:102EA000257B012E47EA450C13D145B1A76A47F0AF
:102EB0002007A762E76A47F00107E76209E0A76910
:102EC0004EF20006CFF6FF7606EB47373B4343F45E
:102ED00000634F68B2F5807F27F4694743EA070330
:102EE0004B608B684FF2FD77CFF6E17703EA07037B
:102EF00043EA0C038B6001D0012A06D1226900232A
:102F0000CFF6F07303EB025200E00022CB6A23F409
:102F100070031A43CA62896840F6FE62CFF61F72D8
:102F20001140614509D10021E162A16A012262F3E9
:102F30000101C8F80010BDE8F081A06A40F010005F
:102F400020F00200A06254F82C0F40F00101012093
:102F5000A046C8F80010BDE8F0810000B0B586B00A
:102F60000446006842F60001C4F2010188424FF0B5
:102F70000001CDE90411CDE9021149D042F200412E
:102F8000C4F20101884264D141F21800C4F2020087
:102F9000016841F400710160016801F40071019160
:102FA0000199016841F010010160006802A900F078
:102FB000100001900198072002900320039040F632
:102FC0000000C4F2010000F5006001F0F5F840F6E1
:102FD000C0250820C2F20005C4F202000021C5E9A4
:102FE000000105F1080080224FF480734FF4806CDB
:102FF0004FF0200E80E80E502846E96101F056F8A7
:10300000002818BFFFF774FE25626C6206B0B0BDE1
:1030100041F21800C4F20200016841F480610160CD
:10302000016801F4806101910199016841F0040196
:103030000160006802A900F00400019001980220DC
:1030400002900320039040F60000C4F2010001F05A
:10305000B3F806B0B0BD00002DE9F04182B0002603
:103060000D460446019601F0A7F921688A68D20549
:103070003CD480464868C00503D4C86A10F4700F79
:103080003ED040F20400C2F200000668022001F0C7
:1030900007FE216844F624130A69B6FBF0F0C2F279
:1030A00092431A4206D1CA6844F62413C0F292032E
:1030B0001A423ED00A6942F29243C1F249231A42AF
:1030C00006D1CA6842F29243C0F249031A4242D082
:1030D0000A6949F24923C0F224031A424FF0FC0264
:1030E0003AD1C968194208BF542235E0A06A40F0BD
:1030F0002000A06284F82460012002B0BDE8F081C5
:1031000020680068800743D46E1C07E020680068D0
:1031100080075CD520680068800739D4002EF9D07C
:10312000002DF3D001F048F9A0EB0800A842EDD83B
:10313000F0E70A6942F29243C1F249231A424FF082
:10314000290209D1C96842F29243C0F249031942E7
:1031500008BF142200E05422019902FB00F7B94293
:1031600016D26E1C09E000BF0198B8422FD3019817
:10317000013001900198B8420AD2002EF7D0002DFC
:10318000F2D001F019F9A0EB0800A842ECD8EEE764
:1031900020686FF012010160A16A41F40071A16220
:1031A000806800F46020B0F5602F0CD1207B50B90E
:1031B000A06A20F48070A062A06AC00403D4A06A50
:1031C00040F00100A062002002B0BDE8F081A06ADA
:1031D00040F00400A062002084F82400032002B024
:1031E000BDE8F08110B5044690F82400012804BF22
:1031F000022010BD012084F824002046FFF79CFC2B
:1032000018B1002184F8241010BD42F2044C21684A
:10321000A26AC4F2010C40F201339A430CF57F7E9E
:1032200002F580727145A26207D0A26A22F4801270
:10323000A2624A68520519D41DE0DCF8002012F49D
:10324000702FF2D0A26A42F60003C4F2010342F4E6
:1032500080129942A26205D042F20042C4F20102F9
:10326000914208D1DCF80020520504D5A26A01235E
:1032700063F30D32A262A36A0022DB044FF0000365
:1032800044BFE36A23F00603E36284F824206FF06E
:1032900002020A608A6802F46022B2F5602F0BD144
:1032A000714504D08A6842F4A0028A6010BDDCF83F
:1032B000002012F4702FF5D08A6842F480128A60E0
:1032C00010BD00002DE9F0410546006842F60006F9
:1032D000C4F201069046B0420F4605D042F20041CA
:1032E000C4F2010188420AD142F20440C4F2010052
:1032F000006810F4702F1CBF0120BDE8F08195F824
:103300002400012804BF0220BDE8F081012085F8D7
:1033100024002846FFF710FC044628B1002085F859
:1033200024002046BDE8F08142F204402968AA6AE0
:10333000C4F2010040F601739A4300F57F7302F571
:1033400080729942AA6207D0A86A20F48010A8620D
:103350004868400518D512E0026812F4702FF3D0C7
:10336000AA6AB14242F48012AA6205D042F2004237
:10337000C4F20102914207D10068400504D5A86A51
:10338000012262F30D30A862AA6A0020D2044FF035
:10339000000244BFEA6A22F00602EA6285F82400CD
:1033A000286A42F6BD22C0F6000242F62D3342F6EC
:1033B000113600F1280CC0F60003C0F600068CE8B8
:1033C0004C006FF002020A608A68434642F4807241
:1033D0008A604C313A4600F0B9FE2868816801F4F1
:1033E00060228168B2F5602F0CBF41F4A00141F466
:1033F000801181602046BDE8F081000090F8202017
:10340000013A012A04D8006800F11402002004E007
:1034100000F1240201204FF4802113681943116048
:103420007047000010B590F820E0D0F800C0AEF171
:10343000010EBEF1010FDCF808E00ED81EF0E05FCF
:1034400011D0CEF3016E012000FA0EF018608B68E7
:103450007BB1486843EAC0030DE000F1240101207C
:103460004FF4802223E000F1240101204FF40012E8
:103470001DE008684305D1E9030403430CEB0E107B
:10348000C0F88031C0F88441097D012905D100F5DB
:10349000C2710B6843F480730B605168C0F88C11E3
:1034A000126800F5C071C0F88821002001220B6865
:1034B0001A430A6010BD0000B0B5026890F82030D1
:1034C000013B012B27D8D2F80002012340F0010074
:1034D000C2F80002D1F814E0CC690EF01F0003FA24
:1034E00000F0D2F81C326FEA000C8343012CC2F8C2
:1034F0001C3216D064BBD2F80C3203EA0C03C2F8BB
:103500000C32CB688C8844EA034302EBCE04C4F847
:1035100040320B4614E0416A41F4802141620120AF
:10352000B0BDD2F80C320343C2F80C320B688C8861
:1035300044EA034302EBCE04C4F8403201F10C0329
:103540008C681B8843EA044302EBCE04C4F844327F
:10355000D2F804328D6943EA0004D1F810E0096A18
:10356000002D08BF03EA0C04C2F80442D2F814325A
:10357000BEF1000F43EA000408BF03EA0C0401296E
:10358000C2F8144204D1D2F81C120843C2F81C023B
:10359000D2F8000220F00100C2F800020020B0BD05
:1035A0007047000010B590F82040013C012C0CD869
:1035B000D0F800C079B1DCF81040A4070FD100F1B9
:1035C000240101204FF4001276E000F124010120D3
:1035D0004FF4802270E0DCF80C40A40770D00CEBB4
:1035E000011CDCF8B0410CF5D87E14F004049460A2
:1035F000DCF8B04119BFE4085460640D1460DEF8D3
:1036000000400CF5DA7E04F00204D460DCF8B4412A
:1036100024075ABFDEF8004004F00F0408241461A8
:10362000DEF800400029C4F307249461DEF800406E
:103630004FEA14445461DCF8B8211A70026802EBB6
:103640000112D2F8B8214FEA12225A70026802EB36
:103650000112D2F8B8214FEA12429A70026802EBC6
:103660000112D2F8B8214FEA1262DA70026802EB56
:103670000112D2F8BC211A71026802EB0112D2F8D1
:10368000BC214FEA12225A71026802EB0112D2F8F1
:10369000BC214FEA12429A71026802EB0112D2F881
:1036A000BC214FEA1262DA71006814BF00F1100108
:1036B00000F10C01002020220B681A430A6010BDA3
:1036C00000F1240101204FF40012F5E72DE9F04F3D
:1036D00081B0044600684669D0F804908768D0F845
:1036E0000CB0D0F810A0D0F81880F10703D1002555
:1036F00030071CD423E0F90710D00121BA078160FC
:1037000009D4780700F1AA80380700F1B08020467C
:1037100000F05EFA02E0204600F05CFA0025F805B1
:1037200000F18480F80300F1AA80300707D51BF070
:10373000100004D0206845F400751021C1607007A6
:1037400008D51BF0080005D020680821C16020467C
:1037500000F0A2F9B00706D52068C068800702D043
:10376000204600F09BF9700607D51AF0100004D02F
:10377000206845F4806510210161B00608D51AF073
:10378000080005D0206808210161204600F088F972
:10379000F00606D520680069800702D0204600F0B8
:1037A00081F9B00308D519F0100005D02068102168
:1037B0004160204600F0DCF9F00308D519F008005C
:1037C00005D0206808214160204600F00DFA300441
:1037D00040F18F805FEA497040F1888006F4807084
:1037E00008EA102028435FEA8871014648BF41F08B
:1037F0000201B20558BF01465FEA48700D4648BF56
:1038000045F00405700558BF0D4630056ED518F01B
:1038100070006BD010380009052862D8DFE800F08E
:10382000035356595C5F45F008055AE020684FF491
:103830008071BA0581600AD4780512D4380519D48C
:10384000204600F0C9F9F8037FF56FAF17E0204676
:1038500000F0C4F9F8037FF568AF10E04FF400659D
:103860005DE705F50055F8037FF55FAF07E04FF41E
:10387000805554E705F58045F8037FF556AF20687D
:103880004FF48031BA0381600AD478030FD438032F
:1038900013D4204600F0A4F930073FF548AF4EE7B7
:1038A000204600F09FF930073FF541AF47E705F5A7
:1038B000004530073FF53BAF41E705F58035300760
:1038C0003FF535AF3BE745F010050AE045F0200530
:1038D00007E045F0400504E045F0800501E045F4CF
:1038E00080752068816921F0700181612068042160
:1038F00041602DB1606A284360622046FFF750FEA8
:1039000001B0BDE8F08F0000B0B5C8B1044690F832
:10391000200010B9204600F077F82068016841F0D7
:103920000101016000F048FD054600BF20684168C4
:10393000C90707D100F040FD401B0B28F6D312E069
:103940000120B0BD016821F00201016000F034FDEA
:10395000054600BF2068416889070DD500F02CFDA1
:10396000401B0B28F6D3606A052140F400306062EA
:10397000012084F82010B0BD217E0268012922F0C8
:10398000800308BF42F080030360617E0268012962
:1039900022F0400308BF42F040030360A17E0268AA
:1039A000012922F0200308BF42F020030360E17EDA
:1039B0000268012942F0100308BF22F010030360DF
:1039C000217F0268012922F0080308BF42F00803A2
:1039D0000360617F0268012922F0040308BF42F0FE
:1039E00004030360D4E901C2D4E9033561691A43D1
:1039F0002A431143ACF101021143C16100200121AE
:103A0000606284F82010B0BDB0B586B0002140F6E9
:103A100000040591CDE90311C4F201040068A4F586
:103A200024429042029101D006B0B0BD41F218008C
:103A3000C4F20200426802AD42F000724260426885
:103A400002F000720192019A026842F004020260E0
:103A5000006800F00400019001984FF40060CDE987
:103A6000020104912046294600F0A6FB4FF4805045
:103A7000029002200390032005902046294600F082
:103A80009BFB15200521002201F0F6F8152001F01E
:103A9000EFF806B0B0BD00007047000070470000AE
:103AA0007047000070B58CB0016846F20042C4F265
:103AB0000002914201D00CB070BD02AA0AAB0121F4
:103AC000FFF770FD0298A0F201210229F3D8013816
:103AD000C1B240F6A05601EB4101C2F2000606EB6E
:103AE000C104254655F8141FE071481C322928608E
:103AF0000AA9204602D807F0F7FF01E007F0C8FF47
:103B000041F2D430C2F2000000680DF1270100221A
:103B10000AF098F9012807D19DF8270000EB400032
:103B200006EBC00008F078FF28684CF6CD41CCF6D3
:103B3000CC414843B0F1333FBDD840F69800C2F2C3
:103B40000000006801AA2146002309F0F3FF019854
:103B50000028B0D04EF60450CEF200004FF0805155
:103B60000160BFF34F8FBFF36F8F0CB070BD0000CB
:103B700070470000B0B5044690F8200001281DD120
:103B8000022084F820002068016821F00101016012
:103B900000F012FC054600BF20684068C00713D043
:103BA00000F00AFC401B0B28F6D3606A40F400309A
:103BB0006062052084F820000120B0BD606A40F4F6
:103BC000002060620120B0BD00206062B0BD000036
:103BD0007047000070470000704700007047000009
:103BE000704700007047000070470000014690F8E1
:103BF0002100022813D10868D1E90FC3026822F01E
:103C00000E020260026822F001020260012000FA46
:103C100003F2CCF8042081F82100002002E0042007
:103C200088630120002281F82020704780B590F839
:103C30002110022927D1026840F2444C1368C4F2D3
:103C4000020C23F00E0313601368ACF571718A4205
:103C500023F0010111601BD940F20841C4F20201B6
:103C60008A424ED040F21C41C4F202018A424CD03A
:103C700040F23041C4F202018A424AD14FF48073CB
:103C80004CF8403C79E0042181630121084680BD65
:103C90006B21C4F202018A424FF0010316DC2F218E
:103CA000C4F202018A423DDD3021C4F202018A429F
:103CB00024D04421C4F202018A424CD05821C4F2DB
:103CC00002018A424DD14FF4803350E040F2074167
:103CD000C4F202018A4231DD40F20841C4F202011D
:103CE0008A4244D040F21C41C4F202018A4223D0ED
:103CF00040F23041C4F202018A4232D14FF4807363
:103D000035E001234CF8403C37E010234CF8403CB0
:103D100033E04FF48033624508BF4FF480534CF8D2
:103D2000403C2AE00821C4F202018A421FD01C2133
:103D3000C4F202018A4214D1102318E06C21C4F2AB
:103D400002018A420AD08021C4F202018A4208D1CB
:103D50004FF080730BE04FF4805308E04FF4801372
:103D600005E04FF48033624508BF4FF480534FF6AF
:103D7000C031CFF6FF714CF80130012180F82110DD
:103D8000426B002180F820100AB1904700210846BC
:103D900080BD0000806B704790F8210070470000E4
:103DA00010B50168D0E90FCEDCF800200B685C0785
:103DB0002ED5042404FA0EF4144029D00A68920681
:103DC00003D40A6822F004020A6040F24441C4F2BB
:103DD00002010268A1F571739A424DD940F208437D
:103DE000C4F202039A4200F0C18040F21C43C4F2C4
:103DF00002039A4200F0BE8040F23043C4F2020354
:103E00009A4240F0BB804FF4806341F8403C2DE182
:103E10009C0752D5022404FA0EF414404DD00A68CF
:103E2000920606D40A6822F00A020A60012180F88C
:103E3000211040F24441C4F202010268A1F57173FD
:103E40009A4256D940F20843C4F202039A4200F063
:103E5000D28040F21C43C4F202039A4200F0CF80A9
:103E600040F23043C4F202039A4240F0CC804FF457
:103E7000007341F8403C10E16B23C4F202039A4204
:103E80004FF0040356DC2F24C4F20204A24240F394
:103E900099803023C4F202039A4264D04423C4F2CE
:103EA00002039A4200F0D1805823C4F202039A42DE
:103EB00040F0D1804FF48023D3E01B0758BF10BDE2
:103EC000082303FA0EF31A4012D00A6822F00E02F9
:103ED0000A60012101FA0EF2CCF80420816380F817
:103EE0002110016B0022002980F8202018BF88478C
:103EF00010BD6B23C4F202039A424FF0020346DC6A
:103F00002F24C4F20204A24240F386803023C4F27C
:103F100002039A4253D04423C4F202039A4200F0AF
:103F2000AB805823C4F202039A4240F0AB804FF4B6
:103F30000033ADE040F20744C4F20204A2424DDD7A
:103F400040F20844C4F20204A24200F08A8040F227
:103F50001C43C4F202039A423ED040F23043C4F202
:103F600002039A4277D14FF480637AE0042341F848
:103F7000403C7BE0402341F8403C77E04FF4802315
:103F80008A4208BF4FF4804341F8403C6EE040F263
:103F90000744C4F20204A2424ADD40F20844C4F2DB
:103FA0000204A24274D040F21C43C4F202039A42BB
:103FB0003CD040F23043C4F202039A4262D14FF443
:103FC000007365E00824C4F20204A24249D01C2315
:103FD000C4F202039A423ED1402342E06C23C4F271
:103FE00002039A4234D08023C4F202039A4232D1AF
:103FF0004FF0806335E0022341F8403C4DE0202340
:1040000041F8403C49E04FF400338A4208BF4FF486
:10401000005341F8403C40E00824C4F20204A242AC
:1040200036D01C23C4F202039A422BD120232FE066
:104030006C23C4F202039A4221D08023C4F202030B
:104040009A421FD14FF0007322E04FF4804308E002
:104050004FF4800305E04FF480238A4208BF4FF4F9
:1040600080434FF6C032CFF6FF728B50C16A0029F1
:104070003FF43EAF884710BD4FF4005308E04FF4C3
:10408000001305E04FF400338A4208BF4FF4005399
:104090004FF6C032CFF6FF728B50816A00220029A2
:1040A00080F820203FF424AF884710BD0146002847
:1040B0004FF0010008BF70472DE9F04740F2000CB7
:1040C000C4F2020C0A684FF6F8330CF5816ECBF699
:1040D000FD73724538BF03F5806302EB030E4CF6A7
:1040E000CD43CCF6CC43AEFB033E6FF003060CF59C
:1040F000806506EA9E06D1E901A9D1F80C803CBF93
:104100000025C4F20205C1E90F56022681F821609C
:10411000166843F6F075AE4346EA0A06D1E904573D
:1041200046EA090646EA0806D1E906432E43374324
:1041300027433B43136000228A6381F8210081F802
:1041400020200020BDE8F0477047000010B504466D
:1041500090F82000012820D0012084F8200094F855
:104160002100012816D1022084F821000020A0633C
:10417000D4F800C0DCF8000020F00100CCF800000A
:104180002046FEF79DFD2068E26A01683AB141F0E1
:104190000E010AE0002084F82000022010BD21F06A
:1041A00004010160016841F00A010160016841F009
:1041B00001010160002010BD2DE9F04F83B00C68B3
:1041C000002C00F0EA80A0F18042A2F5843240F297
:1041D000004E4FEAB22241F60047C4F2010E0092AF
:1041E000C4F20107062200254FF001094FF0000B31
:1041F0004FF0000AB84208BF0522019209E000BF53
:104200000C680BF1010B34FA0BF205F1040500F018
:10421000C48009FA0BF814EA080CF1D04C684FF688
:10422000FF72C1F21002944210DC122C50D8DFE869
:1042300004F0330A41454F4F4F4F4F4F4F4F4F4FB1
:104240004F4F4F484C00D1F80CA041E04FF6FF72A1
:10425000C1F2210294420FDC0022C1F21102944209
:104260001AD00022C1F21202944215D00022C1F2EB
:104270002102944210D02BE00022C1F2220294428B
:104280000AD00022C1F23102944205D00022C1F2CC
:10429000320294421CD100BF8C6844B1012C14BF7F
:1042A000C0F81480C0F810804FF0080A10E04FF0FA
:1042B000040A0DE0CC6804F1080A09E04FF0000A96
:1042C00006E0CC6804F1040A02E0CC6804F10C0AB0
:1042D0002C460746BCF5807F24BF203C04373A6853
:1042E0000F2303FA04F6B2430AFA04F422433A60B5
:1042F000CA79D2067FF584AF41F21804C4F20204F1
:1043000022684FF6084842F0010222602268CFF688
:10431000FF7802F001020292029A2BF0030272442B
:1043200052F8084005F00C0603FA06F7009BBC4360
:10433000019F052B38BF1F4607FA06F6344342F8A3
:1043400008404C6840F20C46E202DEF8082054BFF8
:1043500022EA0C0742EA0C07C4F20106A202CEF8D8
:104360000870326854BF22EA0C0742EA0C07A20325
:104370003760DEF8042054BF22EA0C0742EA0C073B
:10438000E203CEF80470DEF8002054BF22EA0C02EB
:1043900042EA0C02CEF8002032E703B0BDE8F08F0D
:1043A0008068084018BF012070470000002A08BF3D
:1043B000090401617047000048F26840C2F2000041
:1043C0000068704770B5B0B3044690F83D0028B956
:1043D000002084F83C00204600F076FB242084F87E
:1043E0003D002068016821F001010160016841F48D
:1043F00000410160016821F40041016000F040FECD
:1044000048F28041C0F21E0140F600126668884200
:104410004FF00001C0F23D0248F2A16C4FF00003E2
:1044200038BF01219042C0F2010C38BF012366451C
:1044300038BF0B460BB1012070BD4DF68361C4F24D
:104440001B31A0FB01122168930C4D68664525F0D5
:104450003F0545EA92424A600A6A22F03F0C09D3BE
:104460004FF496725A4344F6D353C1F26203A2FB4F
:1044700003239B095A1C42EA0C020A6248F2A06319
:10448000CA69C0F201039E424CF6FF7322EA030C94
:104490000AD801387200B0FBF2F001306FF31F3020
:1044A000042898BF04202BE0A368A0F1010E9BB163
:1044B00019207043BEFBF0F00422013062F31F307C
:1044C000000512D09BB119207043BEFBF0F004220E
:1044D000013062F31F3011E006EB4600BEFBF0F046
:1044E00001306FF31F300005ECD1012008E006EB2E
:1044F0004600BEFBF0F001306FF31F3040F4004087
:1045000040EA0C00C8610868D4E9072320F0C00025
:10451000104318430860886848F2FF3204F10C0623
:1045200090434CCE18431043A5698860C86820F0BA
:10453000FF0030432843C860086840F0010008606D
:1045400000202021206484F83D10206384F83E0080
:1045500070BD00002DE9F04F83B01E4691460F4616
:104560000446FFF729FF94F83D1020290CD10221C1
:104570000546C0F21001204601221923009502F0E1
:104580009BFB30B1022700E00227384603B0BDE8AC
:10459000F08F94F83C00012801D10227F5E70121B2
:1045A000206884F83C100168C90703D1016841F014
:1045B0000101016001684FF0000A21F4006101600F
:1045C000242084F83D000020CFF6FF7007F0FE0B9A
:1045D0004FF0A0080127C4F840A0E0622068002244
:1045E0000168334641F48071016020464FF00111AB
:1045F000009502F061FB2168002850D1C1F810B08D
:10460000FFF7DAFE226805465169526994F83D3099
:10461000A02B1ED002F4806001F00201401818D1D6
:10462000FFF7CAFE36B1401BB04288BF84F83D8018
:1046300002E000BF84F83D8021684869496994F828
:104640003D20A02A05D001F4806100F0020040184E
:10465000E6D0202084F83D0020684169026889077F
:1046600042F40072026022D46FF480614161022141
:104670002046C0F2100101221923009502F01CFB14
:1046800000287FF482AF0AF1010ACA45A6D3202090
:1046900084F83D000020012784F83C0075E7086895
:1046A0000327C00544BF4FF4007020646DE7002667
:1046B00002964169012202918069022102900298CA
:1046C0002046C0F2100119230095012702F0F4FAE8
:1046D00000287FF45AAF202084F83D0084F83C6025
:1046E000002752E72DE9F04F85B0044600201F4611
:1046F00016460D460490FFF75FFE94F83D10202902
:104700000FD102218146C0F2100120460122192357
:10471000CDF8009002F0D0FA18B994F83C000128C6
:1047200003D1022005B0BDE8F08F0121226884F892
:104730003C101368DDE90F080E99DB0703D11368FD
:1047400043F001031360136823F400631360222213
:1047500084F83D20402284F83E20002222646162D9
:104760006085608D294620850020CFF6FF70E062CD
:10477000204632463B46CDF80080CDF8049002F04A
:104780007FF918B1012005B0BDE8F08F218D012916
:104790000DD011BB0020039020684169039181690D
:1047A00003910399016841F40071016037E02068CA
:1047B000016821F480610160EFF3108072B600207F
:1047C000039020684169039181690391039901680D
:1047D00041F40071016062B621E02068022902689C
:1047E00013D142F400610160EFF3108072B6002033
:1047F00003902068416903918169039103990168DD
:1048000021F48061016062B609E042F480610160D8
:104810000021039141690391806903900398268DDB
:10482000002E00F0A180042740F2040A4BF2895BBD
:10483000C0F20107C2F2000AC1F2F84B232516E0CC
:1048400041464A4602F0DCFA00289BD12068616AA2
:1048500000690870606A218D01306062481E208501
:10486000608D01386085268D002E00F07D80204609
:10487000032E23D8012EE3D0394600224346CDF83B
:10488000009002F019FA022E33D100287FF47AAF9B
:10489000EFF3108072B62068616A026842F4007219
:1048A000026000690870606A218D01306062481EF4
:1048B0002085608D0138608562B6C7E741464A466B
:1048C00002F09EFA00287FF45DAF2068616A0069FB
:1048D0000870606A228D0130013A60622285216889
:1048E000628D013A62854A695207BCD50969017037
:1048F000B0E700287FF446AF2068016821F48061AA
:104900000160EFF3108072B62068616A0069087078
:10491000606A218D0130013960622185618D013924
:104920006185DAF80010C908A1FB0B12110A69436E
:10493000049100BF0499013904910499F9B12168E7
:104940004A695207F6D50A6842F400720A6009699A
:104950000170606A218D01306062481E2085608D83
:104960000138608562B671E7202084F83D000020A0
:1049700084F83E0084F83C0005B0BDE8F08F0020CC
:104980002021206384F83D1084F83E00216C41F022
:104990002001216462B684F83C00F3E62DE9F0437F
:1049A00083B0994616460F460446FFF705FD94F876
:1049B0003D1020290ED102210546C0F210012046EB
:1049C00001221923009502F077F918B994F83C00F8
:1049D000012803D1022003B0BDE8F0830121226841
:1049E00084F83C101368DDE90B080A99DB0703D152
:1049F000136843F001031360136823F4006313602A
:104A0000212284F83D20402284F83E2000222264A6
:104A100061626085608D394620850020CFF6FF7089
:104A2000E062204632464B46CDF80080019502F008
:104A3000ADF830B3012003B0BDE8F0832046414615
:104A40002A4602F019FA28BB606A2168034613F867
:104A5000012B0A61228D6362571E2785638D3F04F7
:104A6000A3F1010363854B6918BF13F0040308D059
:104A7000437802300B616062901E2085608D0138A2
:104A80006085208D0028D9D1204641462A4602F073
:104A9000DDF840B1206C0428CCD12068016841F4D5
:104AA00000710160C6E72068016841F4007101608F
:104AB000202084F83D00002084F83E0084F83C006B
:104AC00003B0BDE8F083000010B586B0016845F67C
:104AD0000000C4F2000081424FF00001CDE9041152
:104AE000CDE9021101D006B010BD41F21804C4F2A4
:104AF0000204216800F5344041F00801216021687A
:104B000001F00801019101994FF4406102911221D5
:104B100003910321059102A9FFF74EFB606840F461
:104B200080006060606800F480000190019806B029
:104B300010BD000040F2500048F26841C2F200008F
:104B4000C2F2000100780A68104408607047000053
:104B500080B542F20000C4F20200016841F0100189
:104B60000160032000F098F80F2000F005F800F035
:104B700057F8002080BD0000B0B586B041F21C019E
:104B8000C4F202010A68044642F001020A600968A0
:104B900001A801F0010101910199694600F048FA6C
:104BA000049D002D18BF012500F06AFA4DF68361BF
:104BB000A840C4F21B31A0FB01014FF0FF3000EB15
:104BC000914140F6C440C2F200004FF0804240F2F2
:104BD000E7330025C0E90021C0E902530561856182
:104BE00001F03AF80546C0B940F6C440C2F20000F0
:104BF00001F082F8054680B91C2000F039F80F2C2E
:104C00000AD81C202146002200F036F840F2540059
:104C1000C2F20000046000E00125284606B0B0BDE5
:104C200080B582B041F21800C4F20200016800228F
:104C300041F001010160016801F001010191019958
:104C4000416841F08051416040680F2100F0805080
:104C5000009000986FF0010000F00EF80420C4F2FC
:104C600001000168022262F31A61016002B080BD96
:104C700080B506F02DFD80BD70B514460D46064684
:104C800006F036FD2946224602F030F9014630464C
:104C900006F036FD70BD000080B506F043FD80BD16
:104CA00080B5411E0F294FF0000043D8DFE801F026
:104CB0000B3442084242420842424242424242438C
:104CC00000F002FA80BD41F20400C4F20200C169A2
:104CD00040F202320A40B2F5817F04BF4FF4004037
:104CE00080BD01F44071B1F5407F0DD0B1F5007F7A
:104CF00051D1026A920744BF49F6404080BDB1F5E8
:104D0000407F1CBF002080BD50F8040C4FF22441AE
:104D1000800301EAE07080BD00F0C4F941F20401B3
:104D2000C4F2020109680222C1F3813102EB4101A0
:104D3000B0FBF1F080BD41F20401C4F202010A6847
:104D400051F8040CC0015CBF002080BDC2F3834059
:104D500012A3185CD20305D440F60012C0F23D0243
:104D600050430BE00A6811A3C2F340429A5C41F23F
:104D70000023C0F27A03B3FBF2F250430968490200
:104D800048BF80BD4AF6AB214000CAF6AA21A0FB6D
:104D90000101480880BD002080BD00BF020304055A
:104DA000060708090A0B0C0D0E0F10100102000077
:104DB0002DE9F04182B00446007841F21C06C0079C
:104DC000C4F202064ED03068C0000BD430684FF0F9
:104DD000010840F080503060306800F08050019051
:104DE000019801E04FF0000847F20007C4F2000705
:104DF0003868C00512D4386840F480703860FFF716
:104E0000DBFA05463868C00508D4FFF7D5FA401B21
:104E10006428F7D9032002B0BDE8F081706810F46F
:104E2000407012D0616801F4407188420DD0706802
:104E300040F24042C4F24222012320F44071136048
:104E40000023C0071360716029D17068616820F485
:104E500040700843B8F1000F706003D0306820F054
:104E6000805030602068810707D556F8181CA2686A
:104E700021F44041114346F8181CC00603D4002019
:104E800002B0BDE8F08156F8180C616920F480008A
:104E9000084346F8180C002002B0BDE8F081FFF787
:104EA0008BFA054641F2883770688007CDD4FFF74A
:104EB00083FA401BB8424FF00300F5D9ECE700003D
:104EC0002DE9F04381B0002800F0878042F200080D
:104ED000C4F202080446D8F800000D4600F00700AE
:104EE00088420CD2D8F8000020F007002843C8F808
:104EF0000000D8F8000000F00700A8426DD120683B
:104F000041F204098107C4F2020917D5410705D50A
:104F1000D9F8001041F4E061C9F80010010705D587
:104F2000D9F8001041F46051C9F80010D9F8001008
:104F3000A26821F0F0011143C9F80010C00745D163
:104F4000D8F8000000F00700A8420CD9D8F80000FB
:104F500020F007002843C8F80000D8F8000000F04F
:104F60000700A84239D12068410707D5D9F80010B9
:104F7000E26821F4E0611143C9F80010000708D588
:104F8000D9F80000216920F4605040EAC100C9F856
:104F9000000000F099F8D9F8001040F25C62C1F30B
:104FA0000311C0F60102515C40F2040220FA01F143
:104FB00040F25400C2F200000068C2F20002116028
:104FC000FFF7DAFD002001B0BDE8F083606801283A
:104FD00007D159F8041C89030CD4012001B0BDE8A5
:104FE000F08359F8041C022802D18901F5D501E0AB
:104FF0008907F2D5D9F8001021F003010843C9F858
:105000000000FFF7D9F9064641F28837D9F80000C9
:10501000616800F00C00B0EB810F91D0FFF7CCF984
:10502000801BB842F2D9032001B0BDE8F083000034
:105030000F22026041F20402C4F20202136803F07C
:1050400003034360136803F0F0038360136803F401
:10505000E063C36012684FF4E06303EAD2020261C6
:1050600042F20000C4F20200006800F0070008608D
:105070007047000040F20400C2F200000068704770
:1050800080B5FFF7F7FF41F20401C4F2020109689D
:1050900040F26C62C1F30221C0F60102515CC840CB
:1050A00080BD000080B5FFF7E5FF41F20401C4F2C6
:1050B0000201096840F26C62C1F3C221C0F601022C
:1050C000515CC84080BD000041F2040CC4F2020CE7
:1050D000DCF8003003F00C00082841F20020C0F298
:1050E0007A0018BF7047C3F383420AA18A5CD903D0
:1050F00005D440F60010C0F23D0050437047DCF884
:10510000001008A3C1F34041595C5043B0FBF1F0DB
:10511000704700BF02030405060708090A0B0C0DBF
:105120000E0F1010010200002DE9F04182B000289E
:1051300000F0C4800446007841F20006C007C4F2C3
:10514000020643D0706800F00C00042817D0706885
:1051500000F00C00082802D17068C0030FD4656805
:105160009DB1B5F5803F06D03068B5F5A02F0DD1C3
:1051700040F480203060306840F480300CE03068CB
:10518000800323D5606808BB98E0306820F4803045
:105190003060306820F480203060FFF70DF9002D7A
:1051A000054610D03068800310D4FFF705F9401B86
:1051B0006428F7D908E100BFFFF7FEF8401B642818
:1051C0004FF0030077D830688003F5D4207880074B
:1051D00018D5706810F00C0F07D0706800F00C0044
:1051E000082826D17068C00323D43068800702D510
:1051F0002069012862D13068616920F0F80040EA36
:10520000C1003060207800073DD5A06938B3002088
:10521000C4F242200121C0F88014FFF7CDF8054602
:10522000706A80072DD4FFF7C7F8401B0228F7D912
:10523000CAE02069002840F20000C4F2422000F0D9
:105240009A8001210160FFF7B7F8054630688007B2
:10525000D1D4FFF7B1F8401B0228F7D9B4E0002001
:10526000C4F242200021C0F88014FFF7A5F80546DB
:10527000706A800707D5FFF79FF8401B0228F7D90F
:10528000A2E001F06FFE207840071BD4E5698DB1E4
:10529000706800F00C0008284CD1012D0ED0706809
:1052A000216A00F480328A4208D1616A00F47010E9
:1052B000884203D1002002B0BDE8F081012002B095
:1052C000BDE8F081F069C0000BD4F0694FF001082F
:1052D00040F08050F061F06900F08050019001983A
:1052E00001E04FF0000847F20007C4F200073868F9
:1052F000C00510D4386840F480703860FFF75CF85F
:10530000054600BF3868C00505D4FFF755F8401BB7
:105310006428F7D958E0E568002D3DD0012D05D06F
:10532000306A052D39D140F004003062306A40F017
:10533000010038E00027C4F2422700203866FFF75A
:105340003BF8022D05460BD13068800154D5FFF79C
:1053500033F8401B02284FF00300F5D9ABE700BF3C
:1053600030688001A6D5FFF727F8401B02284FF0D0
:105370000300F5D99FE700210160FFF71DF80546FE
:10538000306880077FF53EAFFFF716F8401B022814
:105390004FF00300F4D98EE7306A20F0010030624C
:1053A000306A20F004003062FFF706F8002D054651
:1053B00041F2883714D000BF306A800713D4FEF75B
:1053C000FBFF401BB842F7D9032002B0BDE8F081D3
:1053D000FEF7F2FF401BB8424FF003003FF66BAF01
:1053E000306A8007F4D4B8F1000F3FF44FAFF06992
:1053F00020F08050F06149E7206AB0F5803F05D188
:105400007168A26821F40031114371607168626AA9
:1054100021F4741110430843706001203866FEF7D0
:10542000CBFF0446306880013FF544AFFEF7C4FF70
:10543000001B02284FF00300F4D93CE7704700003E
:1054400090F851007047000070B538B10446406ACA
:1054500030B10020206104F1140007E0012070BD8C
:105460006068B0F5827F03D004F11C000021016068
:105470000026A66294F8510020B9204684F85060B6
:1054800000F038F8022084F8510094E8071001F485
:105490008271036802F4044223F04003036023692D
:1054A00011440CF40062114403F0020263691144D8
:1054B00003F00102A369E569114403F40072114489
:1054C00005F03802256A114405F08002A56A1143EF
:1054D00005F4005211430160042101EA13414160C7
:1054E000C16921F40061C1610120666584F8510041
:1054F000304670BD2DE9F04385B0002740F6000529
:105500000497CDE902770446C4F20105006805F569
:1055100020518842019702D005B0BDE8F08341F2E6
:105520001800C4F20200016801AE41F4805101602C
:10553000016840F21C0801F4805100910099016853
:10554000C4F2020841F0040101600068314600F035
:10555000040000900098A0200190022002900320F7
:1055600004902846FEF728FE4020CDE90107284692
:1055700031460397FEF720FE40F60435C2F20005DF
:1055800080264FF400592846C5E90087C5E9027610
:10559000C5E90477C5E90679FEF788FD002818BF3C
:1055A000FDF7A6FBE5646C6240F6483508F114008F
:1055B000C2F200051021002285E847002846C5E90F
:1055C0000422C5E90629FEF771FD002818BFFDF782
:1055D0008FFBA5646C6205B0BDE8F083B0B50446EE
:1055E00090F8510001280ED11346A2686AB960688C
:1055F000B0F5827F09D1042084F8510020460A4684
:1056000000F05CF9B0BD02200CE094F850000128D5
:1056100004BF0220B0BD0120002984F8500018BF4B
:10562000002B03D1002184F85010B0BD04204FF0AE
:10563000000CB2F5004F84F85100C4F854C0A163C7
:10564000A387E387C4E910CCA4F834C0A4F836C01B
:1056500008D12068016821F040010160016821F44F
:1056600080410160E06C46F6B57E46F6D97346F699
:105670009175C0F6000EC0F60003C0F60005216863
:10568000A26BC0E90A3EC0E90C5CE38F0C31FEF767
:105690005DFD28B1606D40F0100060650120C1E73C
:1056A00020680168490603D4016841F040010160A7
:1056B000416841F020014160416841F001014160D1
:1056C0000020AFE770470000704700002DE9F0436D
:1056D00081B0044690F85000012803D1022001B0A7
:1056E000BDE8F08301201E4615460F4684F85000A1
:1056F000FEF762FE94F85110814601290CD06068D3
:10570000B0F5827F75D104294FF0020040F0B280DD
:10571000A168002940F0AE80002F4FF0010018BFB3
:10572000002D00F0A780002E00F0A48094F8510016
:10573000002104281CBF052084F851006165A56381
:10574000E687A6872763E6862068A68621646164CB
:105750000168490603D4016841F0400101606168B5
:10576000731EE268B1FA81F1B3FA83F3DDF82080A9
:1057700049095B09B2F5006F41EA03013BD139B138
:10578000216B0988C160B81C2063E08E0138E08677
:10579000012608F1010500BFE08E10B9E08F002856
:1057A0006ED02068816889070CD5E18E012E09D161
:1057B00041B1216B002631F8022BC2602163E18EDA
:1057C0000139E1868168C9070AD0E18F41B1C0681B
:1057D000A16B012621F8020BA163E08F0138E0875D
:1057E000FEF7EAFD002DD7D0A0EB09004045D3D34A
:1057F0003CE002203EE039B139780173206B013082
:105800002063E08E0138E086012608F1010500BF23
:10581000E08E08B9E08F98B32068816889070DD5BC
:10582000E18E012E0AD149B1216B0026097801735E
:10583000206B01302063E08E0138E08620688168AB
:10584000C9070BD0E18F49B1C068A16B0126087070
:10585000A06B0130A063E08F0138E087FEF7ACFD5C
:10586000002DD5D0A0EB09004045D1D3012084F80C
:1058700051000320002184F8501001B0BDE8F083EE
:10588000204641464A4601F071FC18B1202060656F
:105890000120EFE7A06838B9002000902068C168B7
:1058A0000091806800900098606D00284FF0010022
:1058B00004BF84F851000020DCE7000070B5044606
:1058C00090F85000012804BF022070BD012084F828
:1058D000500094F8510001280AD06568B5F5827F20
:1058E0005DD104284FF002005AD1A568002D57D190
:1058F00000294FF0010018BF002A51D0002B4FD0D3
:1059000094F85100002604281CBF052084F851009B
:1059100066652163A386E386A263A387E387C4E960
:10592000106694F8511046F6B57C46F6CD73C0F675
:10593000000CC0F600032568E06C042908BF63462C
:1059400046F6D97C47F2B101C0F6000CC0F6000162
:1059500008BF614646F6917C00F1280EC0F6000CA7
:105960008EE80A104663E38F05F10C01FEF7EEFBAB
:1059700078B92268A06C516841F001015160C0E91A
:105980000A66C0E90C66216BE38E0C32FEF7DEFB83
:1059900050B1606D40F010006065012000E0022011
:1059A000002184F8501070BD20680168490603D4B6
:1059B000016841F040010160416841F0200141600F
:1059C000416841F0020141600020E9E7B0B50446BA
:1059D00090F85000012804BF0220B0BD012084F8D7
:1059E000500094F8510001283DD100294FF00100EA
:1059F00018BF002A38D00320002384F851006365C3
:105A00002163A286E286A363C4E91033A387E387F8
:105A1000A068B0F5004F08D12068016821F040016E
:105A20000160016841F480410160A06C46F6C17CD0
:105A300047F2410E46F69175C0F6000CC0F6000E16
:105A4000C0F600052268216BC0E90AECC0E90C53DE
:105A5000E38E0C32FEF77AFB50B1606D40F010001F
:105A60006065012000E00220002184F85010B0BDE4
:105A700020680168490603D4016841F040010160D3
:105A8000416841F020014160416841F002014160FC
:105A90000020E9E7704700007047000070470000F1
:105AA000704700007047000070470000B0B590F8E4
:105AB0003C20012A04BF0220B0BD01F108053CCD05
:105AC000D1E900CE23F47C5322F470521A432EF411
:105AD000F0431A432CF4E0431A4324F4C0431A431E
