:020000040800F2
:1000000030B10020810200086F67000845630008D6
:100010006D670008852B00080572000800000000CD
:10002000000000000000000000000000C16A00089D
:10003000672C000800000000A1670008E56A0008BE
:100040009B0200089B0200089B0200089B0200081C
:100050009B0200089B0200089B0200089B0200080C
:100060009B0200089B0200089B020008152C000858
:100070001D2C0008292C00089B020008352C0008C4
:100080009B0200089B0200089B0200089B020008DC
:100090009B020008892B00089B0200089B020008B5
:1000A0009B020008156B00089B0200089B020008D9
:1000B000216B00082D6B00089B0200089B020008C2
:1000C0009B0200089B0200089B0200089B0200089C
:1000D0009B020008E57100089B0200089B020008D3
:1000E0009B0200089B0200089B0200089B0200087C
:1000F0009B0200089B0200089B0200089B0200086C
:100100009B0200089B0200089B0200089B0200085B
:100110009B0200089B0200089B0200089B0200084B
:100120009B0200089B0200089B0200089B0200083B
:1001300000F002F800F094F80AA090E8000C824465
:100140008344AAF10107DA4501D100F089F8AFF242
:10015000090EBAE80F0013F0010F18BFFB1A43F0A5
:1001600001031847D4EF0000F4EF0000103A24BF59
:1001700078C878C1FAD8520724BF30C830C144BF0C
:1001800004680C607047000000230024002500264E
:10019000103A28BF78C1FBD8520728BF30C148BFEA
:1001A0000B6070476E2900F0AA86702901F0DB8190
:1001B00066290EF0458465290EF0428467290EF009
:1001C0003F8461290EF03E8403681B0A28BF41F07A
:1001D0008001692900F0CE80642900F0CB80752968
:1001E00000F0C8806F2901F06981782901F0A781AA
:1001F000E92900F0FB80E42900F0F880F52900F0FF
:10020000F580EF2901F06681F82901F0A6810368E5
:10021000DB0928BF41F08001632901F0C280732906
:1002200001F0C780E32901F0CF86F32901F0D486DD
:10023000002070471FB59DE8030001F0ABFC01F002
:1002400089FC0400002000210DF042FD401C60608C
:10025000002000210DF026FDE0601FBD10B510BD8F
:1002600002F031F91146FFF7E5FF0AF0E3F802F07A
:100270009BFB03B4FFF7F2FF03BC01F061FC00003D
:100280000948804709480047FEE7FEE7FEE7FEE72A
:10029000FEE7FEE7FEE7FEE7FEE7FEE70448054966
:1002A000054A064B70470000116B00083101000839
:1002B00030A5002030B1002030A9002030A9002056
:1002C0007CB51D4616460C00009001D02044401E0F
:1002D000074B7B442A4669460190304601F037F8C7
:1002E00005461CB10020694601F044F828467CBD53
:1002F000A91000000FB41CB5084B06AA7B44694640
:100300000090059801F023F804460020694601F0AA
:1003100031F820461CBC5DF814FB0000751000008D
:1003200070B50C460546012A05D02878800600D510
:10033000EA69002302E0012305E05B1C934202D23C
:10034000E05C0028F9D1A869E618C01AA861286AFB
:1003500018442862284600F040FD04E0D5E9012158
:1003600014F8010B9047B442F8D3284600F04BFD37
:1003700070BD00002DE9F041064600241068752983
:10038000314616A510D000F04FFD002802DA404299
:1003900013A507E031688A0701D512A502E04907D5
:1003A00004D511A5012401E000F047FD00210A2237
:1003B00006F1240709E0B0FBF2FCB0FBF2F302FB0C
:1003C0001C00303078541846491C0028F3D12346CD
:1003D0002A463046BDE8F04100F038BD000000007C
:1003E0002D0000002B000000200000002DE9F0414E
:1003F0008046D21D22F007020025D2E90002F5292D
:1004000015A614D0011E72F1000106DA0023D0EB0C
:10041000030063EB020211A608E0D8F800108B0776
:1004200001D50FA602E0490701D50EA60125114608
:10043000002408F1240704E000F07FFC30323A5534
:10044000641C50EA0102F7D12B4632462146404651
:10045000BDE8F04100F0FABC000000002D000000F3
:100460002B000000200000002DE9F05F89460446C3
:100470004FF0000ADFF874B1FB44C0F820A020461A
:10048000E1688847002874D0252806D0D4E90121E6
:100490009047206A401C2062F1E700265F46204614
:1004A000E16888472028054607DB312D05D27819F9
:1004B00010F8200C08B10643F1E7B00701D526F08B
:1004C0000406C4F81CA00027C4F818A02A2D09D0DF
:1004D00028460DF0C8F938B304EB8708303DC8F85A
:1004E000185019E059F8041B204604EB870291616B
:1004F000E1688847012F054618D1E069002820DA15
:1005000026F020061DE0D8F8180000EB800005EB6F
:1005100040003038C8F818002046E1688847054692
:100520000DF0A1F90028EED1012F0AD02E2D08D10F
:100530002046E16888477F1C0546022F46F02006CA
:10054000C4DBA069002803DA404246F00106A0613E
:10055000F00701D026F010066C2D0BD0682D09D0C5
:100560004C2D39D06A2D35D0742D35D07A2D33D01D
:1005700016E038E0E1682F4620468847B842054635
:1005800009D16C2F26D04FF48060E16806432046E5
:100590008847054604E06C2F1AD04FF4807006435C
:1005A0000DB3A5F14100192802D8203546F40066A4
:1005B0004A462946204626604E46FFF7F3FD80B1A5
:1005C00001280BD0F61D26F0070000F1080956E7B8
:1005D0004020E4E78020D8E70020D6E706F10409B0
:1005E0004DE7284652E7206ABDE8F09F14E7000077
:1005F0000FB400B58DB010A9099000910B904FF089
:10060000FF300A9000200C90064878440690064877
:1006100078446A4607900F9909A801F03FFA0DB097
:100620005DF814FBAF140000C71400002DE9FF4F64
:100630001C4691464FF0FF3581B000218A4688461E
:10064000D4E90167A16902986D1C8847216A834635
:1006500088470028F6D1BBF1FF3F0CD0002F26F4CD
:10066000C0661ADD700615D5BBF12B0F0AD0BBF1A1
:100670002D0F0FD104E04FF0FF3005B0BDE8F08F33
:1006800046F48066A16902986D1C88477F1E8346E8
:10069000002F02DDBBF1300F03D0B9F1000F2AD0DB
:1006A00025E0A1696D1C02987F1E46F400768847FC
:1006B000002F834605DDBBF1780F06D0BBF1580F44
:1006C00003D0B9F1000F10D011E0B9F1000F02D042
:1006D000B9F1100F0BD1A1696D1C02987F1E26F491
:1006E000007688478346102000E0082081464FEAC4
:1006F000E970009017E00A20F8E74346AAFB0928B2
:10070000DDF800C07F1E03FB098046F4007605F18A
:1007100001050AFB0C0112EB0B0A029841EBEB7886
:10072000A16988478346002F06DD4946584600F0F8
:1007300025FF5FEA000BE0D5E16902988847B00524
:1007400002D46FF0010098E7F00718D1700610D5B9
:100750005146700505D50023D1EB030163EB080278
:1007600000E042462068031D23600068C0E90012D3
:1007700005E02068011D21600068C0E900A8284646
:100780007BE72DE9FF5F1D464FF0FF3B91464FF0A1
:1007900000085F46D5E90146A96901987F1C884792
:1007A000296A824688470028F6D1BAF1FF3F0CD06B
:1007B000002E24F4C06419DD600614D5BAF12B0FA5
:1007C00009D0BAF12D0F0ED103E0584604B0BDE8B0
:1007D000F09F44F48064A96901987F1C8847761EC5
:1007E0008246002E02DDBAF1300F03D0B9F1000FBE
:1007F00026D032E0A969761E01987F1C44F400746B
:100800008847002E824605DDBAF1780F06D0BAF18E
:10081000580F03D0B9F1000F10D01EE0B9F1000F4E
:1008200002D0B9F1100F18D1A969761E01987F1C6A
:1008300024F4007488478246102002E0082000E07B
:100840000A20814609E0A96908FB0908761E01987B
:100850007F1C44F4007488478246002E05DD49461B
:10086000504600F08BFE0028EDDAE96901988847D0
:10087000A00502D46FF00100A8E7E00725D16006CB
:1008800013D5600502D5C8F1000000E04046296894
:100890000A1D2A600968220501D5087015E02207A3
:1008A00001D5088011E008600FE02868011D29606B
:1008B0000068210502D580F8008006E0210702D5F6
:1008C000A0F8008001E0C0F8008038467EE72DE9FE
:1008D000FF5F4FF000089946144646469169D2E9F9
:1008E00001A7DDF838B001988847054659EA0B00A2
:1008F00005D009E0A1690198761C88470546216A60
:10090000284688470028F5D1681C03D05FEACA70E2
:1009100005D015E04FF0FF3004B0BDE8F09F20682F
:10092000011D2160D0F800800AE05FEACA7001D1A1
:1009300008F8015BA169761C01987F1E884705466F
:10094000002F1ADD681C18D0B9F1000F0DD0E81780
:1009500005EBD060421120F01F0059F822102A1A2E
:10096000012090400142E0D107E0BBF1000FDCD153
:100970002846216A88470028D7D0E169019888472E
:10098000BBF1000F07D1002E05DD5FEACA7002D16E
:10099000002188F80010A068B84203DDBBF1000F09
:1009A00003D017B16FF00100B6E73046B4E700009E
:1009B000014A01F0A3B800000000002030B5054650
:1009C0000B462A4613F8014B12F8010B08B1A0425E
:1009D000F8D01CB1002802D06D1CF1E7284630BDCC
:1009E00040EA010310B59B070FD1042A0DD310C8AC
:1009F00008C9121F9C42F8D020BA19BA884201D9FE
:100A0000012010BD4FF0FF3010BD1AB1D30703D045
:100A1000521C07E0002010BD10F8013B11F8014BFB
:100A20001B1B07D110F8013B11F8014B1B1B01D117
:100A3000921EF1D1184610BD10B5431C02E010F80B
:100A4000011B71B18107FAD14FF0013202C88C1A33
:100A50008C4314EAC211F9D0C01A0A0603D0C01E92
:100A600010BDC01A10BD0A0401D0801E10BD0902BD
:100A7000FCD0401E10BD032A40F2308010F0030C61
:100A800000F0158011F8013BBCF1020F624498BFE1
:100A900011F801CB00F8013B38BF11F8013BA2F17E
:100AA000040298BF00F801CB38BF00F8013B11F0F9
:100AB000030300F02580083AC0F0088051F8043B99
:100AC000083A51F804CBA0E80810F5E7121D5CBF06
:100AD00051F8043B40F8043BAFF30080D20724BF39
:100AE00011F8013B11F801CB48BF11F8012B24BFCD
:100AF00000F8013B00F801CB48BF00F8012B70471C
:100B000010B5203AC0F00B80B1E81850A0E818509A
:100B1000B1E81850A0E81850203ABFF4F5AF5FEAEA
:100B2000027C24BFB1E81850A0E8185044BF18C98F
:100B300018C0BDE810405FEA827C24BF51F8043B36
:100B400040F8043B08BF7047D20728BF31F8023B8A
:100B500048BF11F8012B28BF20F8023B48BF00F81E
:100B6000012B704702F0FF0343EA032242EA0242EC
:100B700000F024B84FF000020429C0F0128010F0F9
:100B8000030C00F01B80CCF1040CBCF1020F18BF69
:100B900000F8012BA8BF20F8022BA1EB0C0100F0FC
:100BA0000DB85FEAC17C24BF00F8012B00F8012BCF
:100BB00048BF00F8012B70474FF0000200B5134604
:100BC00094469646203922BFA0E80C50A0E80C506D
:100BD000B1F12001BFF4F7AF090728BFA0E80C501E
:100BE00048BF0CC05DF804EB890028BF40F8042B17
:100BF00008BF704748BF20F8022B11F0804F18BF84
:100C000000F8012B704700004FF0013C50F8042B16
:100C100051F8043B9A4221D1A2EB0C03934313EA0F
:100C2000CC1317D150F8042B51F8043B9A4215D13C
:100C3000A2EB0C03934313EACC130BD150F8042B13
:100C400051F8043B9A4209D1A2EB0C03934313EAF7
:100C5000CC13DBD04FF00000704700BFD01A01BAB0
:100C6000B1FA81F101F0180122FA01F0CB40DBB2B8
:100C7000C0B2C01AC1F120012CFA01F3D11A91437C
:100C800011EAC311E6D1704770477047704770B5DD
:100C9000064600F05BFF056806F10B0020F0070434
:100CA000B4429CBF002070BD2B466A68BAB1106880
:100CB000A04210D304F1080188423CBF506858603C
:100CC00007D35168101941601168091B0160586011
:100CD0001460101D70BD13465268002AE7D12146EA
:100CE000284600F043FF0028DED170BD70B50446F1
:100CF000051F00F02BFF0068002C14BF446870BD76
:100D0000002C18BFAC423CBF20466468F8D3016891
:100D10000A18AA4218BF456003D12A680546114443
:100D2000016028684119A1421CBF6C6070BD6168F8
:100D3000696021680844286070BD30B5B0F10A02CE
:100D400071F100034FEA900E4EEA817EB0EB0E0087
:100D500061EB91014FEA101E4EEA017E10EB0E008E
:100D600041EB11114FEA102E4EEA016E10EB0E000E
:100D700041EB11214FEA104E4EEA014E10EB0E00EE
:100D800041EB1141401841F100014FEAD00040EA27
:100D900041704FEAD1014FEA810444EA907410EBAC
:100DA000800544EB01046D1944EB0404521BA3417C
:100DB0004FF0000348BF0A3200D530BD401C41F15E
:100DC000000130BD10B500F0C9FE006810BD10B5BF
:100DD000044600F0C3FE046010BD70B5044685698A
:100DE0000068C10601D5302600E02026C00707D0E4
:100DF00070BDD4E9012130469047206A401C206232
:100E00006D1EF6D570BD70B5044685690078C007C3
:100E100007D170BDD4E9012120209047206A401CF1
:100E200020626D1EF6D570BD09684A0501D540B235
:100E30007047C905FCD500B2704709684A0501D55D
:100E4000C0B27047C905FCD580B270472DE9F047A4
:100E50000D4699469246044600F12408016888062A
:100E600004D5E06921F01001216000E00120A842D2
:100E700001DD471B00E00027A1697A1902EB090098
:100E8000081AA0612078C00602D42046FFF7A5FF0B
:100E9000002608E0D4E901211AF806009047206AEC
:100EA000401C761C20624E45F4DB2078C0060AD533
:100EB0002046FFF792FF06E0D4E901213020904759
:100EC000206A401C2062381EA7F10107F4DC07E00D
:100ED000D4E9012118F805009047206A401C2062DF
:100EE000281EA5F10105F3DC2046FFF78CFF2078D2
:100EF000000602D50220BDE8F0870120FBE711685B
:100F00000268006A530501D508700AE0D30501D5CF
:100F1000088006E0130603D5C217C1E9000200E00D
:100F20000860012070472DE9FF4F0C461E464FF028
:100F3000FF378BB0D2E90001DDF860800A908A4665
:100F4000C1F30A5505B93D46002108464FF000009F
:100F5000BAF1000F00F4400005DA00EB80004FF416
:100F6000400101EA50004FEA9059B9F1010F00DD4C
:100F7000B9460A9850EA4A000ED044F61050A5F23D
:100F8000FF3545432F14B8F1000F1ED07542291EBE
:100F90001EDDC9F100021CE0B8F1010F4FF00000A6
:100FA00001D0302103E0F24305E02154401CB0425F
:100FB000FBDB30460022002121540B99C1F8088048
:100FC000C1E900200FB0BDE8F08FBD1B6D1CDEE74E
:100FD0004A4600DA694206A801F0BCF906AB93E87C
:100FE000070003AB83E8070050460A990BF0A0FE08
:100FF0008DE80700A0F500501F3800900398002DE1
:101000000ADD42F21F014A460844002303A9039067
:1010100068460CF04BF909E0A0F500504A461F382D
:10102000002303A9039068460CF06AF98DE80700D5
:101030000004000C03D04FF0FF30410800E01046E0
:10104000B8F1000F03D00022009215461EE0751E75
:1010500005D4FFF772FE303262556D1EF9D5B346E6
:101060000122084302D000227F1C04E020783028AF
:1010700001D100227F1E002A099784D01DE0112D86
:1010800007DAFFF75AFE303262556D1C50EA010252
:10109000F5D1084302D00098C8B10EE00021681EC7
:1010A00005E0235C625C63542254401E491C81426B
:1010B000F7DBAB46A81B401E0990002004F80B008C
:1010C0000B98099AC0F80880C0E9002B7AE711262E
:1010D0004FF0000857E72DE9F04F88460446D21D2F
:1010E00022F0070191B0D1E90001CDE90A010CF02D
:1010F00053FA02460B98C00F01D02D2007E020685C
:10110000810701D52B2002E0202101EAC000032A3B
:10111000099001D0072A05DB03464146204600F02E
:1011200009FF0BE12078800601D5E06900E0062088
:10113000B8F1650F814606D0B8F1660F18D0B8F146
:10114000670F70D131E00020B9F1110F009001DB81
:10115000112301E009F101030AAA01A90CA8FFF774
:10116000E2FEDDE90C70002609F10105834647E047
:1011700001204B4600904FF000470AAA01A90CA895
:10118000FFF7D1FEDDE90DB00C995D46002610B9E0
:1011900009F101000D18B9EB050003D4C0F1FF36C9
:1011A00009F10105A5EB09002BE0B9F1010F01DA06
:1011B0004FF001090020B9F1110F0090484601DD00
:1011C000112300E003460AAA01A90CA8FFF7ABFE11
:1011D000DDE90C704D4600268346207800070AD4CE
:1011E000AB4500DA5D4601A8012D04DD411911F877
:1011F000011C302907D04F4502DA17F1040F04DA39
:10120000012082460FE06D1EEEE7002F02DCED1B91
:101210003E4403E0781CA84200DD7D1CB81B00F1B1
:10122000010A4FF000472078000703D4AA4501DBEC
:101230004FF0FF3A0021B7F1004F0DF143088DF850
:10124000431024D002202B23002F01DA7F422D23CC
:101250000A21021EA0F1010000DC5FB197FBF1FC46
:1012600097FBF1F201FB1C7C17460CF1300C08F8DF
:1012700001CDEEE7A8F1010003702188090501D531
:10128000452100E06521A0F1010800F8011C099842
:101290000FA9A1EB0807FF1D00B10120411901EBC7
:1012A000EA70A1693844081A401EA0612078C0067F
:1012B00002D42046FFF791FD099828B1D4E9012115
:1012C0009047206A401C20622078C00622D5204624
:1012D000FFF783FD1EE0002E04DBB34502DD01A80D
:1012E000805D00E03020D4E901219047206A401C55
:1012F0002062761CAAF101005FEA000A0AD100F020
:1013000029FCC0680168405CD4E901219047206A4B
:10131000401C2062281EA5F10105DCDC07E0D4E9B1
:10132000012118F8010B9047206A401C2062381EEA
:10133000A7F10107F3DC2046FFF765FD032011B09C
:1013400041E6000001694A1C02610878704700B557
:101350008FB0CDE901310021059105497944CDE9EE
:10136000031011466846FFF77FF80FB000BD00007C
:10137000E5FFFFFF0A6802F8010B0A607047D1E938
:1013800000239A4202D2531C0B601070704710B5B4
:10139000436913B1AFF3008001E0FEF7C1FF012004
:1013A00010BD127800F124010A7000224A70012257
:1013B000EDE711684FF0FF32E9E700002DE9FF5F2C
:1013C00015468A460446DFF8AC80F8440027D8E981
:1013D00000103E46CDE9001010E03AF816106A46BB
:1013E00002A801F029F8411C07D02178890603D50D
:1013F000E269391891420DD80744761C207880069E
:1014000002D5E069B84205DDAE42E6DB3AF81600E7
:101410000028E2D1A069C01BA0612046FFF7DDFCD7
:10142000D8E90010CDE90010002017E03AF81810B4
:101430006A4602A801F000F8B0F1FF3F81460BD0E8
:1014400000250DF1080B05E0D4E901211BF805008A
:1014500090476D1C4D45F7D308F10100B04280461E
:10146000E4DB206A384420622046FFF7CCFCBDE86C
:10147000FF9F0000D6D7000030B4002100F1240403
:1014800008E002F00705D208303542EA4372DB0873
:101490006554491C52EA0305F3D10468002310A2E5
:1014A000250708D504F020040C4304D0C4690123A7
:1014B0000CA2641EC46130BCFFF7C8BC10B5044662
:1014C00021461068FFF7B9FC02462046BDE81040EF
:1014D0000023D1E7D21D22F00701D1E90023CBE799
:1014E0000000000030000000F0B40D46018809053E
:1014F00002D5214C7C4402E01F4C7C440E34002178
:1015000000F1240608E002F00F071209E75D42EA45
:1015100003721B097754491C52EA0307F3D102787E
:101520000023120704D5702D06D009B1022311340F
:101530002246F0BCFFF78ABC01231034F8E770B5EF
:1015400004460D4621461068FFF777FC02462946FF
:101550002046BDE870400023C6E7D21D22F00703F5
:10156000D3E90023C0E70368126843F02003036057
:101570000823C3610023B7E7B4D600003A2800D29D
:10158000303820F02002412A01D3A2F137008842EE
:1015900001D34FF0FF3070472DE9FF4F06468BB067
:1015A0000878FF2806D0491C2D2805D000244FF0CC
:1015B000000908E000200CE00124F8E709EB8903AA
:1015C000491C00EB43090878FF28F7D114B1C9F191
:1015D00000008146107800252C46AA4629462D2871
:1015E00001D02B2804D1521C2D2813D00020824674
:1015F0008B461078FF280FD04FF0000C0A21521CA8
:10160000A5FB017804FB018105FB0C11C5194BEB0F
:101610000104EEE70120EAE7002108464FF0000050
:10162000BAF1000F02D000EB80004008C0F38157F0
:10163000012F01DD4FF0FF370E9955EA040009EB49
:1016400001080BD04FF0020918F5FA7F16DA4FEABD
:10165000CA70002F706008DD012007E04FEACA70F1
:10166000C6E900B00FB0BDE8F08F0020306000F098
:1016700075FAC0F800901821084616E0B8F5FA7F10
:1016800018DD002F02DAF748784401E0F648784484
:10169000D0E90010C6E9001040EACA70706000F09E
:1016A0005DFAC0F80090142108460FB0BDE8F04F75
:1016B0000DF0C3B9002108464FF00000B8F1000159
:1016C000099002DAC7F1000200E03A4601DAC8F1F7
:1016D000000106A800F03EFE06AB93E8070003AB4E
:1016E00083E8070044F23E005BEA0401009058469C
:1016F00004D144F21E012C465D460091210C0904E0
:10170000014306D10099240444EA15442D041039FC
:10171000009104F07F41014306D10099240244EA7C
:1017200015642D020839009104F07041014306D17F
:101730000099240144EA15742D01091F009104F059
:101740004041014306D10099A40044EA9574AD00DC
:10175000891E009104F00041084304D100986D19DE
:101760006441401E00904FF001033A466846B8F1CC
:10177000000FCDE9014503A902DD0BF0D6FD01E024
:101780000BF0A9FDBAF1000F04460D4601D084F01C
:101790000044002108464FF00000099940F2FF770D
:1017A000484010F00C0F07D124F00040284303D02C
:1017B000C4F30A50B84212D100F0D0F9C0F800903A
:1017C000C4F30A50B8420AD1A8487844D0E90010BE
:1017D000C6E9001004F000410843706042E7C6E922
:1017E00000543FE72DE9FF4F1F464FF0000A4FF02E
:1017F000FF38454691B0D7E90146CDF83CA000F04E
:10180000A9F9C0680168405C1090B96912986D1C14
:101810008847396A814688470028F6D1B9F1FF3FE9
:101820000AD0002E24F4D06411DDB9F12B0F08D0BA
:10183000B9F12D0F0BD102E0404615B013E744F487
:101840008064B96912986D1C8847761E81466005D0
:1018500004A901D52D2000E02B20002E01F1010B61
:101860000DF130088DF810003FDDB9F1690F08D097
:10187000B9F1490F05D0B9F16E0F02D0B9F14E0F91
:101880001CD13B4601A8009580E85002DDE9121208
:101890006FF002000DF062F9C11CCED10EE0B96903
:1018A00012986D1C884781461398761E44F4007484
:1018B00005600F98401C002E0F9016DDB9F1300F17
:1018C000EDD0B9F1780F02D0B9F1580F0DD10F98C2
:1018D00001280AD13B46CDE90054DDE91212001F70
:1018E00002960DF039F9C11CA7D1109989453ED156
:1018F00044F0800406E01399681CAAF1010A44F43C
:1019000000740860B9696D1C1298761E88473028EB
:101910008146F0D02BE01099894505D1200603D4EB
:10192000761E44F0800418E048460BF09CFF08B394
:10193000761E0DF123029345A9F1300044F40074A2
:1019400006D20BF8010B200607D5AAF1010003E02F
:10195000200602D40AF101008246A00502D513999F
:10196000681C0860B96912986D1C88478146002E72
:10197000D1DC53E0002E51DDB9F1650F02D0B9F191
:10198000450F4BD1A00549D5B9696D1C1298761E3B
:1019900024F440748847002E81460CDD2B2804D0A7
:1019A000B9F12D0F07D144F48074B96912986D1CF8
:1019B0008847761E8146E00501D52D2100E02B21C8
:1019C00008F8011BCDF8008021E0761E0DF13901E9
:1019D000884544F400740CD2A9F1300010F0FF00E7
:1019E00088F8000002D10099884509D908F101085A
:1019F00006E0E00501D51E4801E042F20F70824684
:101A0000B96912986D1C8847814613980560002EAD
:101A100004DD48460BF027FF0028D6D1F96912985B
:101A20008847FF2053468BF8000088F8000000200C
:101A30000A900B9004AA0CA90AA8FFF7ADFDA00517
:101A400002D46FF00100F8E614F0240F12D0E00782
:101A50001CD13868DDE90A12031D3B600068C0E94B
:101A6000001213E0D4DA0000C6DA00008AD90000C0
:101A7000F1D8FFFF0AA968460BF0D0FDE00705D1B9
:101A80003868009A011D3960006802602846D4E673
:101A9000026811441378016018467047D160054907
:101AA0007944516104497944116200211161114660
:101AB00000F096BAEDFFFFFF7D010000426842B1E1
:101AC000016811F8013B23B1521EC0E9001218460B
:101AD00070470121C160881E704742685AB1C368CF
:101AE000016843B983688B4205D0491E521CC0E986
:101AF0000012002070474FF0FF3070472DE9F04191
:101B000015460E46040002D12C6804B90BA42046E9
:101B100000F0C6FC0444207870B1274631463846B0
:101B200000F0AEFC0444207810B1002004F8010B52
:101B300038462C60BDE8F0810027F9E7000000007E
:101B400001491820ABBEFEE726000200004870479E
:101B5000680000200048704780000020004870475F
:101B600060000020704770477047704738B50446E2
:101B70000A4600206946AFF30080002808BF38BD40
:101B800002460099204600F0CBFC012038BD012020
:101B900000F018BFF8B5AFF30080054600200C46F2
:101BA000102000BF0646A819A0420DD9324669464A
:101BB0000020AFF30080070008BF00F003FF00988B
:101BC000A04218BF0546C419FFF7C0FF05600746CD
:101BD000F01D20F007004619284600F00AF8B4422C
:101BE00008BFF8BDA21B31463868BDE8F84000F0D8
:101BF00097BC00210160C0E90110704710207047B8
:101C0000B2F120030AD5C2F1200301FA02F120FA51
:101C100003F341EA030100FA02F0704700FA03F10E
:101C20004FF00000704710B5044600F071FC0068EA
:101C3000005D00F0010010BD2DE9F04F04460D4697
:101C4000D21D22F0070089B0D0E9009748463946F6
:101C50000BF0A2FC0246F80F01D02D2307E020680C
:101C6000810701D52B2302E0202101EAC0038DF872
:101C700020300BB1012000E00020032A824601D071
:101C8000072A04DB2946204600F054F93FE120787A
:101C9000800601D40D2500E0E569C7F30A560D2D35
:101CA00049DA00214FEA175B08464FF00000002F89
:101CB00000F4400007DA00EB80004FF4400100EB35
:101CC000D07001EA60008115012901DD4FF0FF317C
:101CD00000224FEA850CBCF1180F06D31346ACF175
:101CE00018004FF08052C24003E04FF4801323FAF3
:101CF0000CF30CF10C0CBCF1200F04D3ACF1200C54
:101D000009FA0CF001E007FA0CF000294FF0004846
:101D100001DD18B90FE00ED140450CD319EB0209D3
:101D20005F4121B9404502D19F4329EA0209BBEB3B
:101D3000175F00D0761C2088000502D57B487844C8
:101D400002E07A487844193808AA302302F80A30A9
:101D5000037C0AF10101002E0AF1020A53546A467B
:101D600002DC4FF0300101E04FF031014FF001088B
:101D70008DF8001002D0A6F2FF3603E059EA4701C1
:101D800000D06B4E002D02DC2178090704D54FF0FE
:101D900002082E218DF80110C44600210BE0C7F384
:101DA00003433F01C35C491C6D1E02F8083005293E
:101DB00008F1010801DA002DF1DC00210CE000EB54
:101DC0001973491C1B786D1E082902F808304FEA68
:101DD000091908F1010801DA002DF0DC21688B06F1
:101DE00002D516E0A8F10108E04505DD02EB080385
:101DF00013F8013C302BF5D0B8F1000F09DD02EBF0
:101E0000080313F8013C2E2B03D1090701D4A8F1D4
:101E10000108002D05DD3E2102F808106D1E08F1B5
:101E20000108407C002E02F8080008F1010804DADD
:101E30002D20764202F8080002E02B2002F808006C
:101E40000A214FF47A70864208F101080BDB96FBF9
:101E5000F0F3303302F8083096FBF0F308F1010894
:101E600000FB136601E0642E0CDB642096FBF0F3AC
:101E7000303302F8083096FBF0F308F1010800FB5C
:101E8000136601E00A2E06DB96FBF1F0303002F813
:101E9000080008F1010896FBF1F001FB10603030FA
:101EA00002F80800A16908F1010808EB050202EB3D
:101EB0000A00081AA0612078C00602D42046FEF766
:101EC0008CFF216A08AE01EB0A00206204E0D4E92D
:101ED000012116F8010B9047BAF1010AF7D22078D8
:101EE000C00602D52046FEF778FF6E4609E016F8D8
:101EF000010B3E280FD0D4E901219047206A401CF5
:101F00002062B8F10108F2D22046FEF77CFF09B04A
:101F10000320BDE8F08F206A2844206203E0D4E962
:101F20000121302090476D1EEBD3F8E7C5CE0000AD
:101F300002FCFFFF2DE9F0411F460446032601681D
:101F4000072A01F4006004DB08B116A505E016A518
:101F500003E008B115A500E015A521F010002060F0
:101F6000A069C01EA0610FB1401EA0612046FEF70F
:101F700034FF4FB1D4E9012138469047206A401C14
:101F80002062C01C206206E0206AFAE7D4E9012141
:101F900015F8010B9047761EF8D22046FEF733FF66
:101FA000BDE8F0814E414E006E616E00494E460024
:101FB000696E660010B5436913B1AFF3008001E0AC
:101FC000FFF7FCF9012010BD128800F12401828482
:101FD0000022C2840122EDE711684FF0FF32E9E7E9
:101FE0002DE9F34F4FF0000A0C4656468DB0012004
:101FF0000C9001F10C000B9062690B980121904745
:10200000051E2DD0252D2CD0216A8847C0B16269CC
:102010000B9801219047216A88470028F7D162690F
:10202000411E0B98904700E0761CA1690D988847E7
:10203000216A88470028F7D1E1690D988847DBE7D6
:10204000A1690D988847A842074601D1761CD3E7BD
:10205000E1690D9888477F1C02D1BAF1000F6FD05B
:102060006BE162690B9800273D46394690472A2864
:1020700004D162690B98012190470125DFF8D082D5
:1020800062690B9801219047A0F130010A290AD218
:102090004745E5DC07EB870100EB4107303FDFD424
:1020A00045F01005ECE7E90601D46FF000476C2815
:1020B0000AD04C2814D0682815D06A280DD074286E
:1020C0001CD07A281AD01DE062690B980121904734
:1020D0006C2802D045F0040514E045F002050DE03F
:1020E00045F020050AE062690B98012190476828B5
:1020F00002D045F0080505E045F4006562690B98DB
:1021000001219047C4E9015765283DD019DC5828C2
:102110007AD00CDC452837D004DC252826D041288D
:102120009ED131E046282FD0472899D12CE05B285A
:1021300077D0612828D063287CD0642823D15AE046
:10214000F6E06F2848D008DC66281DD067281BD031
:10215000692821D06E2816D127E0702845D0732831
:1021600068D0752847D078280DD14DE0A1690D9829
:102170008847252805463FF469AFE1690D988847EF
:102180006D1C3FF46AAFD8E00D9923466A466FF0A4
:1021900001000CF0DFFCC5E045F0400023464FF0A5
:1021A00000026060A80736D43EE0E8077FF447AF3E
:1021B0002068011D21600068290501D506701BE714
:1021C000290701D5068017E7A90703D5F117C0E94C
:1021D000006111E706600FE745F0400023464FF02D
:1021E00008026060A80716D41EE040F60E0125EA3A
:1021F0000100606016E045F0400023464FF00A02FF
:102200006060A80707D40FE045F040006060A807B1
:1022100008D5234610220D996FF00100FEF706FA4B
:1022200080E007E0102223460D996FF00100FEF7D1
:10223000A8FA77E04FF0000963284F46C8464B469E
:10224000CB4602D05B2806D038E0E80601D4012056
:10225000A060012732E06269D4F80CB00B9801212C
:1022600090475E2807D14FF0010949466269D4F8CA
:102270000CB00B989047216939B900210A4603AB8D
:1022800043F82120491C0829FADBD8B3216949B356
:1022900008F1010862690B98012190475D28F4D18B
:1022A000B9F1000F09D0002003A951F82020D24332
:1022B00041F82020401C0828F7DB03AB20690028E8
:1022C00020794FEA40701ED05B462246CDF8008050
:1022D000CDE901970D9900286FF0010020DAAFF3E6
:1022E00000801FE0C11703AA00EBD1614B1121F060
:1022F0001F0102EB8302411A136801208840034347
:102300001360C7E719E00D99224600286FF001001D
:10231000009702DAAFF3008004E0FEF7D8FA01E09C
:10232000AFF3008000280ADA401C06D10C9820B1D7
:102330004FF0FF300FB0BDE8F08F5046FAE7E907E5
:1023400001D10AF1010A064400200C9054E6000075
:10235000CCCCCC0C2DE9F047814616468AB03548E6
:1023600078440DC88DE80D0032487844801C03ACD9
:102370000DC884E80D0041F69B300844372190FBDE
:10238000F1F290FBF1F5A5F1800501FB12041B3C75
:1023900002D56442012000E00020DFF898A08046CA
:1023A0000027FA44AAF1BE0A0EE0E0070AD032463E
:1023B000684607EB470101230AEB81010AF0A0FF01
:1023C0008DE8070064107F1C002CEED1194F7F446C
:1023D000AE3F19E0E80715D007EB04100DF1180A1D
:1023E00090E80E008AE80E00C068F04201D198190A
:1023F00008903246012306A903A80AF081FF03AB27
:1024000083E807006D10641C002DE3D14FF0010339
:1024100032466946B8F1000F03A802D00AF046FF21
:1024200001E00AF06DFFC9E90001C9F808200AB00F
:10243000BDE8F08734C900002DE9F04116460C468E
:10244000054600F065F8036893F80101012807D0FC
:10245000FF2C12D8185D80B101202C70BDE8F081EE
:10246000D3F807013246214603F20713C71828465E
:10247000BC46BDE8F041002360474FF0FF30EDE778
:1024800030B503461D781DB10A4603E0AC4201D1C8
:10249000181A30BD12F8014B002CF7D15B1CF1E784
:1024A00030B503461D783DB10A4612F8014B1CB108
:1024B000AC42FAD15B1CF5E7181A30BD00487047F2
:1024C0006000002070477546FFF7F8FFAE46050034
:1024D0006946534620F00700854618B020B5FDF741
:1024E000DDFEBDE820404FF000064FF000074FF042
:1024F00000084FF0000BAC46ACE8C009ACE8C009DE
:10250000ACE8C009ACE8C00921F007018D4670476E
:1025100010B5FFF71FFB001D10BD00BFB5B70000D1
:10252000034640688C46002818BF88423CBF0346DB
:102530004068F8D318681844884207D00CF10300AB
:1025400020F00700001D411A521A0146081D0A60BA
:10255000FEF7CCBB2DE9FF4F1F464FF03C0987B07B
:102560004FF00042DDE9141001F10108DDF858A038
:1025700002EA405003900020059083460546044639
:102580000490B969461E08988847AAF1010A02908A
:10259000BAF1000F3BDD02982E2815D01021FEF76E
:1025A000EDFF00282EDB4FF0010B0599014317D0FA
:1025B000B9F1000F0BDB4A46C117FFF721FB0543BA
:1025C0000C43A9F1040905E0012004900BE008B1D7
:1025D00045F0010501200590049820B9361D02E060
:1025E000049800B1361FB969089808F101088847B6
:1025F000BBF1000FAAF1010A0290C9D00999C1F8F4
:102600000080C5E70298702808D0502806D0F969E4
:1026100008988847BBF1000F14D04FE000200290CB
:102620000120BBF1000F049009D0B969089808F1A6
:1026300001088847AAF10109B9F1000F07DCF9691F
:10264000089888476FF001000BB0BDE8F08F2B2889
:1026500004D02D280CD14FF0FF300490B9690898B0
:1026600008F101088847A9F10109B9F1000FE6DD79
:10267000411CE4D00A21FEF781FF0028DFDB02992C
:1026800008F1010801EB810100EB41000290B969FA
:10269000089888470A21FEF771FF099AA9F10109F4
:1026A000B9F1000FC2F8008001DD0028E7DAF9690E
:1026B000089888470499029800FB016655EA0400CF
:1026C00004D004F04041090002D006E0039898E0ED
:1026D000A40044EA9574AD00B61E04F00041080061
:1026E00002D16D196441761E159810F0240F03D0A5
:1026F0004FF00B095C4803E04FF028096FF07D00B4
:102700008246564507DAAAEB06018944B9F1410F22
:1027100001DD4FF0410901200021A9F10102FFF77D
:102720006FFA024628400B462140084301D00121A0
:1027300000E00021501E029143F1FF31284021406A
:10274000084301D0012000E000200299834651EAAD
:102750000B014FD0002108464FF00000039900F410
:10276000400039B100EB80004FF4400100EBD07025
:1027700001EA60008015012802DD4FF0FF3000E023
:1027800013D0401C36D0029860B3BBF1000F0CD1BF
:102790004A4601200021FFF733FA28402140084330
:1027A00001D0012000E00020E0B101204A460021D4
:1027B000FFF726FA034640190A4661412D1A8C415B
:1027C00011D3B9F1400F09DD159810F0240F02D094
:1027D000AAF1340603E0AAF1170600E0761C0025F2
:1027E0004FF0004406E05B1E42F1FF3220EA030591
:1027F00021EA0204CAF10100B04206DA1B4903983B
:1028000008430190002000900EE0039AC4F3D32106
:10281000E80A0A43164940EA44500A433146CDE9E2
:10282000000268460BF014F8159810F0240F0BD036
:102830001598C00715D13868DDE90012031D3B600B
:102840000068C0E900120CE002A869460AF0E6FE42
:102850001598C00705D13868029A011D39600068D3
:1028600002604046F0E6000002FCFFFF0000F07F3F
:102870000000F03F2DE9FF4F92461D4685B04FF016
:102880000041DDE9124BDDE914727F1E01EA4B5075
:10289000414940F0FF4940EA0108002122F02000B0
:1028A0004928049102D04E2828D04CE03BA00126B4
:1028B00007C88DE80700A9690698641C88477F1E31
:1028C000014606D41DF8060018B121F0200181420E
:1028D0000BD0E96906988847032E34D0082E32D0F1
:1028E0006FF0010009B0BDE8F08F761C032E01D017
:1028F000082EE0D1601CCAF80000DCE7A969069840
:10290000641C88477F1E2AD420F02000412826D14D
:10291000A9690698641C88477F1E20D420F02000F7
:102920004E281CD1A9690698641C88477F1E48F46C
:10293000002849F48009CAF8004001D4282806D0AC
:10294000E969069888475FEACB7012D022E0A9694E
:102950000698641C88477F1E01D4002803DAE969C1
:1029600006988847BCE72928F1D1641CCAF80040C2
:10297000E9E71BF0240F07D028680499031D2B609A
:102980000068C0E9001805E02868021D2A60006898
:10299000C0F800902046A5E70000F07F494E464968
:1029A0004E4954590000000010B50446AFF30080B2
:1029B0002046BDE81040FDF75CBC002801D0FFF7C1
:1029C000BFB8704710B500F01DF8BDE81040FFF724
:1029D000F4BF70B505460C460A2000E06D1C00F0FF
:1029E00039F835B128780028F8D102E0641C00F0ED
:1029F00031F814B120780028F8D1BDE870400A20E1
:102A000000F028B810B5012805D0002103A0FFF779
:102A1000E0FF012010BD09A1F8E70000534947522B
:102A2000544D454D3A204F7574206F66206865619E
:102A300070206D656D6F7279000000003A20486566
:102A40006170206D656D6F727920636F7272757041
:102A50007465640008B569468DF800000320ABBEBC
:102A600008BDB0B5044600688168C90701D10020DF
:102A7000B0BD816821F00101816001F03DFA054699
:102A800020688068C007F2D001F036FA401B0328A6
:102A9000F6D320688068C007F2D0A06A40F010002A
:102AA000A062E06A40F00100E0620120B0BD014692
:102AB000406A826A12F0500F03D0006A026B084627
:102AC00010470168826A42F400728262896801F4E8
:102AD0006021B1F5602F01D1017B09B100F052B93D
:102AE000816A21F480718162816AC904F6D4816AA5
:102AF00041F00101816200F045B9406A816A41F00C
:102B000040018162C16A41F00401C16200F03CB938
:102B1000406A00F038B90000BCB5044600200190BE
:102B200021688A68D2072AD1886840F0010088604D
:102B3000924893490068B0FBF1F00190019810B100
:102B400001980138F9E701F0D7F905462068806857
:102B5000C00715D101F0D0F9401B0328F6D3206837
:102B60008068C007F2D1A06A40F01000A062002087
:102B700084F82400E06A40F00100E0620120BCBD5E
:102B80000020BCBDFEE70000214800F0D3BC00BF20
:102B900080B588B00A46002101ABCDE9041102904E
:102BA00008208DF81C1002A90690194800F085FB3A
:102BB00008B100F059F808B080BD00BFB0B58AB0C8
:102BC0000320012100220124002509F0F0F90F491A
:102BD000CDE90255CDE9005508600E206946CDE9E2
:102BE0000840CDE90654CDE90445094C204600F0E3
:102BF000A8FB204600F087FE08B100F035F8044835
:102C0000102100F047FB0AB0B0BD00BFD414002073
:102C1000D8000020DD4800F035BF00BF014800F0BB
:102C200031BF00BFB40C0020014800F02BBF00BF33
:102C3000F80C0020014800F025BF00BF3C0D00202B
:102C4000F0B5D0E90045D0E90F60012707FA00F0A0
:102C5000102D70600846636008BF1046A06008BF72
:102C60000A46E260F0BD7047EFF3108072B6FEE7EF
:102C7000F8B50022009290F82420012A01D1022107
:102C800060E04C68012280F82420062C0DD804EB6B
:102C900084030A681F25053B02FA03F405FA03F6CC
:102CA00003681D4655F8347F19E00C2C04EB8404AE
:102CB00003680A6881BFA4F1410502FA05F41F26E2
:102CC000AE4087BF1D4655F82C7FA4F1230502FABC
:102CD00005F49FBF1F26AE401D4655F8307F27EAFA
:102CE0000606092A44EA06042C601BD902EB4204BA
:102CF000896807251E3CA14005FA04F4DD6825EA31
:102D000004042143D96022F00101102916D11A4987
:102D1000A1F10804A34217D0816A41F02001816229
:102D200001210CE0896802EB42020724914004FA79
:102D300002F21C6924EA02021143196100210022F7
:102D400080F824200846F8BD0B681B02F6D40B68F7
:102D5000102A43F400030B60F0D1DB49084A0968EC
:102D6000B1FBF2F101EB81014900009100990029CA
:102D7000E4D000990139F8E7082401400C00002054
:102D800040420F007047704770470068C06C704742
:102D9000002842D02DE9F0418046044658F8280F1B
:102DA00030B9002084F82400E062204600F086F864
:102DB0002046FFF756FEA26AA16A80BB12F01000FF
:102DC0002DD141F2021021EA00000230A06294E805
:102DD0000700531EB2F5807FB3FA83F34FEA531610
:102DE000134618BF3302304EE769464087F440254A
:102DF000354308BF4FF40027267B3943257D41EA40
:102E00004601012D16D176B1A56A45F02005A562CF
:102E1000E56A45F00105E5620CE00120704741F0EC
:102E2000100101203BE0A569204E06EB45352B4300
:102E300043F400634568B2F5807F25F4694543EAB1
:102E400005031B4D4360836803EA050343EA01035E
:102E5000836001D0012A04D12269164B03EB025290
:102E600000E00022C36A23F470031A43C262124ACC
:102E700080681040884206D100200122E062A16AE9
:102E800062F301010BE0A06A40F0100020F00200A4
:102E9000A06254F82C0F40F001010120A046C8F8B0
:102EA0000010BDE8F08100BF003C014000E0FFFFE2
:102EB000FDF7E1FF0000F0FFFE0E1FFFF0B585B04B
:102EC00004460020ED49CDE90300CDE9010020686A
:102ED000884239D0EA49884251D12A48016841F4F0
:102EE00000710160016801F40071009100990168AE
:102EF00041F01001016001A9006800F0100000908D
:102F0000032002900720019000981F4800F5006000
:102F100000F012FF1D4D1E4F002020214FF4806253
:102F20004FF480738026C5E90070C5E90206C5E943
:102F30000432C5E90610284600F08EFE08B1FFF7FE
:102F400093FE6C6225621AE00E48016841F48061CC
:102F50000160016801F4806100910099016841F00D
:102F60000401016001A9006800F004000090032042
:102F70000290022001900098034800F0DDFE05B0A9
:102F8000F0BD00BF1810024000080140700C002086
:102F9000080002402DE9FC4100260D46044601963A
:102FA00000F0AAFF804620688168C90528D44168DE
:102FB000C90503D4C16A11F4700F2AD042480668CB
:102FC000022001F0D7FB2168404BB6FBF0F00A6904
:102FD0001A4203D1CA683E4B1A4235D00A693D4BAA
:102FE0001A4203D1CA683C4B1A4238D00E693B4B97
:102FF000FC221E4234D1C968194208BF54222FE076
:1030000084F82460A06A40F02000A0620120BDE89E
:10301000FC816F1C0168890738D4002FFAD035B1C4
:1030200000F06AFFA0EB08012068A942F2D901680C
:103030008907EFD4002084F82400A06A40F004003F
:10304000A0620320BDE8FC810B69224E2922334295
:1030500006D1C968204B194208BF142200E054224F
:1030600002FB00F76E1C0198B8420ED24EB12DB192
:1030700000F042FFA0EB0800A84202D90198B84234
:10308000D8D3019801300190EDE720686FF012016C
:103090000160A16A41F40071A162806800F46020BF
:1030A000B0F5602F0CD1207B50B9A06A20F480705D
:1030B000A062A06AC00403D4A06A40F00100A0622C
:1030C0000020BDE8FC8100BF0C00002024499224B0
:1030D00024499200922449129224490049922400E2
:1030E000B0B5044690F82400012804BF0220B0BD0A
:1030F000012084F824002046FFF70EFD18B10021BE
:1031000084F82410B0BD2068A16A40F201329143D6
:1031100001F58071A1625B4901F57F72904205D093
:10312000A36A23F48013A362436808E00B6813F4D6
:10313000702FF5D0A36A43F48013A3620B685B057C
:1031400004D5A36A012565F30D33A362A36A0025A4
:10315000DB0444BFE56A25F00605E5626FF0020571
:103160000023056084F82430836803F46023B3F5FA
:10317000602F05D1904207D1096811F4702F03D058
:10318000816841F4801102E0816841F4A00181600E
:103190000020B0BDF8B50E46044600683749154614
:1031A000884202D03649884206D13648006810F479
:1031B000702F1CBF0120F8BD94F82400012804BF23
:1031C0000220F8BD012084F824002046FFF7A4FC6B
:1031D00018B1002184F82410F8BD2168A06A40F6D7
:1031E0000172904300F58070A062264800F57F725E
:1031F000914205D0A06A20F48010A062486808E0DF
:10320000026812F4702FF5D0A26A42F48012A26212
:103210000068400504D5A06A012262F30D30A06267
:10322000A06A0022194B1A4FC00444BFE26A22F080
:103230000602E2626FF0020200200A6084F82400B5
:10324000114A206AC0E90A7302632B468A6842F475
:1032500080728A604C31324600F03AFD2068826804
:10326000816802F46022B2F5602F0CBF41F4A00126
:1032700041F4801181600020F8BD00BF00280140AA
:103280000024014004240140FB2A0008112B0008FF
:10329000AF2A000890F82020013A012A04D80068DB
:1032A00000F11402002004E000F1240201204FF498
:1032B0008021136819431160704770B590F8206041
:1032C0000468013EA568012E0DD815F0E05F10D00E
:1032D000C5F30160012585401D608B687BB14D6899
:1032E00043EAC5030DE000F1240101204FF48022E0
:1032F00023E000F1240101204FF400121DE00B68CF
:103300005B0504EB0010D1E903452343C0F880318D
:10331000C0F88451097D012905D100F5C2710B68FF
:1033200043F480730B605168C0F88C11116801225E
:10333000C0F8881100F5C07100200B681A430A60BC
:1033400070BDF0B5026890F82030013B012B26D803
:10335000D2F80002012340F00100C2F800024C69DB
:10336000CD6904F01F00012D03FA00F0D2F81C32E1
:1033700023EA0003C2F81C326FEA000315D05DBBDC
:10338000D2F80C521D40C2F80C5202EBC405CE68B4
:103390008F8847EA0646C5F840620D4614E0416A48
:1033A00041F4802141620120F0BDD2F80C52054366
:1033B000C2F80C5202EBC4050E688F8847EA064635
:1033C000C5F8406201F10C058E682D8802EBC4043B
:1033D00045EA0645C4F84452D2F804428F690E69A2
:1033E000096A44EA0005002F08BF04EA0305C2F891
:1033F0000452002ED2F8144244EA000508BF04EA41
:1034000003050129C2F8145204D1D2F81C12084352
:10341000C2F81C02D2F8000220F00100C2F800023B
:103420000020F0BD704770B590F82040013C012CA1
:1034300003D8046839B1256906E000F124010120B0
:103440004FF4802271E0E568AD0764D004EB01140D
:10345000D4F8B05115F00405956004F5D875D4F88A
:10346000B06119BFF6085660760D16602D6805F03C
:103470000205D56004F5DA75D4F8B46136075ABF91
:103480002E6806F00F06082616612E68C6F307267A
:1034900096612D684FEA15455561D4F8B8211A7028
:1034A000026802EB0112D2F8B8214FEA12225A70D8
:1034B000026802EB0112D2F8B8214FEA12429A7068
:1034C000026802EB0112D2F8B8214FEA1262DA70F8
:1034D000026802EB0112D2F8BC211A71026802EBF9
:1034E0000112D2F8BC214FEA12225A71026802EB93
:1034F0000112D2F8BC214FEA12429A71026802EB23
:103500000112D2F8BC214FEA1262DA71006841B1AF
:1035100000F1100107E000F1240101204FF4001236
:1035200003E000F10C01002020220B681A430A601E
:1035300070BD00002DE9F84F044600684669D0F8D8
:1035400004908768D0F80CB0D0F810A0D0F818809C
:10355000F10701D1002545E0F9070FD00121816075
:10356000B80708D4780720D4380700F1BB8020467C
:1035700000F0F4F902E0204600F0F1F90025F8052A
:1035800018D520684FF480718160B80509D478059A
:103590000ED438054EBF05F58045204600F0E0F911
:1035A00008E0204600F0DDF904E04FF40065E6E7AE
:1035B00005F50055F80315D520684FF4803181607A
:1035C000B80309D478030BD438034EBF05F5803512
:1035D000204600F0C7F905E0204600F0C4F901E0FC
:1035E00005F50045300707D51BF0100004D0206812
:1035F000102145F40075C160700708D51BF0080064
:1036000005D020680821C160204600F04BF9B007C2
:1036100006D52068C068800702D0204600F043F934
:10362000700607D51AF0100004D02068102145F468
:1036300080650161B00608D51AF0080005D0206841
:1036400008210161204600F02FF9F00606D5206818
:103650000069800702D0204600F028F9B00308D5A1
:1036600019F0100005D0206810214160204600F0BC
:1036700049F9F00308D519F0080005D020680821A1
:103680004160204600F070F9300444D55FEA49708B
:103690003ED506F480705FEA887108EA102040EA9F
:1036A0000500014648BF41F00201B20558BF01467E
:1036B0005FEA48700D4648BF45F00405700558BFE5
:1036C0000D46300524D518F0700021D010380009BF
:1036D000052818D8DFE800F003090C0F121545F093
:1036E000080510E04FF4805549E745F010050AE061
:1036F00045F0200507E045F0400504E045F0800571
:1037000001E045F480752068816921F070018161D4
:103710002068042141603DB1606A28436062204610
:10372000BDE8F84FFFF77EBEBDE8F88F70B5C0B1B9
:10373000044690F8200010B9204600F06FF8206889
:10374000016841F00101016000F0D6FB05462068E8
:103750004168C90707D100F0CFFB401B0B28F6D307
:1037600011E0012070BD016821F00201016000F04C
:10377000C3FB05462068416889070BD500F0BCFBF8
:10378000401B0B28F6D3606A052140F400306062CC
:10379000012040E0217E0268261D22F080030129DD
:1037A00008BF42F080030360617E026822F040039C
:1037B000012908BF42F040030360A17E026822F0A5
:1037C0002003012908BF42F020030360E17E026864
:1037D00042F01003012908BF22F010030360217F8B
:1037E000026822F00803012908BF42F008030360C1
:1037F000617F026822F00403012908BF42F004033C
:1038000003606ECE1A432A43013932431143C1612A
:1038100000200121606284F8201070BDB0B586B030
:1038200000211E4CCDE90411CDE902110068A4F578
:10383000244290422FD11A4802AD426842F00072F1
:103840004260426802F000720192019A026842F0FE
:1038500004020260006800F0040001904FF4006070
:10386000CDE90311294602900198204600F064FA40
:10387000032029460590022003904FF480500290C7
:10388000204600F059FA15200521002200F046FFDD
:10389000152000F035FF06B0B0BD00BF00080140A4
:1038A00018100240704770477047000010B58EB086
:1038B0000168134A914220D101AA0CAB0121FFF704
:1038C000B2FDD0B90398042817D10020DDE9041215
:1038D00008ACCDE90A0002988DF825200029D2B263
:1038E000089018BF01218DF8241004F108000CA9DC
:1038F000FDF706F9204602F075FF0EB010BD00BFBF
:10390000006400407047B0B5044690F820000128DC
:103910001BD1022084F820002068016821F00101F9
:10392000016000F0E9FA054620684068C00712D03F
:1039300000F0E2FA401B0B28F6D3606A40F4003036
:103940006062052084F8200003E0606A40F40020F3
:1039500060620120B0BD00206062B0BD704770475A
:103960007047704770477047704710B590F8211046
:10397000022912D10168D0E90F230C6824F00E044B
:103980000C600C6824F001040C60012101FA03F3BF
:10399000536080F82110002102E00421816301219D
:1039A000002280F82020084610BD000010B590F8D5
:1039B0002110022919D10268116821F00E0111604D
:1039C000116821F001011160984901F17C039A42CC
:1039D0000FD99E4B9A4224D09D4B9A4223D09D4BA7
:1039E0009A4222D14FF4807327E0042181630121A0
:1039F00040E08F4B9A4226D08E4B9A4225D08E4B78
:103A00009A4224D08D4B9A4224D08D4B9A4217D0A3
:103A10008C4B9A4221D08C4B9A4211D14FF080723C
:103A20001DE0012309E0102307E001F588644FF44D
:103A30008033A24208BF4FF48053C1F800340FE036
:103A40004FF480320BE0012209E0102207E04FF42E
:103A5000807204E04FF4805201E04FF480120A605B
:103A60000021012280F8201080F82120426B0AB149
:103A700090470021084610BD806B704790F82100E8
:103A80007047000070B50168D0E90F2314680D6815
:103A90006E071BD504269E40264017D00A68920662
:103AA00003D40A6822F004020A60604A02F17C032F
:103AB00099422CD9654B99426FD0654B99426ED093
:103AC000644B99426DD14FF4806372E0AE0736D5F6
:103AD00002269E40264032D00A68920606D40A6822
:103AE00022F00A020A60012280F821204F4A02F1E6
:103AF0007C03994239D9554B994260D0544B994235
:103B00005FD0544B99425ED14FF4007363E0484B51
:103B1000994263D0474B99426BD0474B99426AD048
:103B2000464B99425CD0464B994245D0454B994211
:103B300059D0454B99423FD14FF080615DE02D0750
:103B400073D508259D402C406FD00C6824F00E04DE
:103B50000C60012101FA03F353600022816380F8B5
:103B6000202080F82110016B5BE0314B994247D057
:103B7000304B994246D0304B994245D02F4B994219
:103B800045D02F4B994231D02E4B994242D02E4BEB
:103B900099422BD14FF000713EE0042309E040230D
:103BA00007E002F588644FF48023A14208BF4FF478
:103BB0008043C2F8003421E04FF480211DE002234D
:103BC00009E0202307E002F588644FF40033A142A6
:103BD00008BF4FF40053C2F800341EE004210CE08B
:103BE0004FF4804109E04FF4800106E04FF40031CA
:103BF00012E0402101E04FF480611160C16A10E0E1
:103C0000022109E0202107E04FF4007104E04FF4A5
:103C1000005101E04FF400111160002180F82010E4
:103C2000816A11B1BDE87040084770BD04000240D0
:103C3000080002401C0002403000024044000240E4
:103C4000580002406C00024080000240080402401C
:103C50001C040240300402400146012099B3F0B533
:103C60000222142581F82120174AD1E9004CD1E91C
:103C7000026702F108039C42144B38BFA2F5806230
:103C800038BF03F580632344B3FBF5F39B00C1E920
:103C90000F2343F6F07322689A430B6942EA0C0241
:103CA00032433A431A434B691A438B691A43CB692F
:103CB0001A43226000228A6381F8202081F82100C3
:103CC0000020BDE8F040704700040240F8FBFDBF53
:103CD000B0B5044690F8200001281DD0012084F8DA
:103CE000200094F82100012813D1022084F821003B
:103CF0000020A0632068056825F0010505602046C6
:103D0000FEF79EFF2068E26A01683AB141F00E01B9
:103D10000AE0002084F820000220B0BD21F0040158
:103D20000160016841F00A010160016841F0010190
:103D300001600020B0BD00002DE9FC4F81465D48C8
:103D400006235E4E4FF0000B4FF001084FF00F0EB0
:103D50004FF0000A8145584808BF052348444FEA00
:103D6000B022052A38BF4FEAB02300930022544BFB
:103D70000C6834FA02F508BFBDE8FC8F08FA02F5BA
:103D80002C4200F093804F68032F16D9112F26D0B4
:103D9000122F28D04C48874213D04C48874210D06D
:103DA0004B4887420DD04B4887420AD04A48874249
:103DB00007D04A48874204D022E0DFE807F0021823
:103DC0001B1F8C6844B1012C14BFC9F81450C9F8EA
:103DD00010504FF0080A13E04FF0040A10E0CC68CE
:103DE00004F1040A0CE0CC6804F10C0A08E0D1F8F4
:103DF0000CA005E0CC6804F1080A01E04FF0000ACD
:103E00005C4648469C46082A334628BF203C28BFCB
:103E1000043006680EFA04F70AFA04F4BE43344389
:103E20000460C879C00602D41E4663463EE0254CB5
:103E300022F003061E44206840F001002060206844
:103E400000F0010001900BF00C00019F0EFA00F44D
:103E5000234FBE46F75927EA0404009F07FA00F0F3
:103E6000204346F80E001E464FF00F0E4F68F80232
:103E7000986854BF20EA050440EA05046346B4602C
:103E8000B802186854BF20EA050440EA05041C6023
:103E9000B803706854BF20EA050440EA0504746062
:103EA000F803306854BFA843284330600BF1040B7B
:103EB00001325DE7001C014000F8FEBF0004014034
:103EC0000C040140181002400000111000001210F4
:103ED00000002110000022100000311000003210FC
:103EE00008FCFFFF8068084018BF01207047002AC7
:103EF00008BF09040161704701480068704700BFAE
:103F0000E8A40020F8B560B3044690F83D0028B955
:103F1000002084F83C00204600F036FB242084F882
:103F20003D002068016821F001010160016841F451
:103F300000410160016821F40041016000F0B2FD20
:103F400049494A4B00224A4D88424FF0000138BF90
:103F50000121984238BF01226368AB4238BF0A464C
:103F60000AB10120F8BD4349434EB0FBF1F221688C
:103F7000B3424D6825F03F0545EA02054D600D6AE4
:103F800025F03F0511D8013201382A430A625A0050
:103F90004CF6FF73B0FBF2F001306FF31F300428D2
:103FA00098BF0420CA699A4337E04FF496760138E7
:103FB00072434FF47A76B2FBF6F201322A434CF6A2
:103FC000FF750A62CA69AA43A56845B11926042784
:103FD0005E43B0FBF6F6013667F31F3606E003EBEF
:103FE0004306B0FBF6F601366FF31F36360509D0EF
:103FF00055B119256B43B0FBF3F00423013063F393
:104000001F3008E0012008E003EB4303B0FBF3F0AE
:1040100001306FF31F3040F40040104304F10C06F0
:10402000C861E0690A6822F0C0021043226A1043A6
:1040300048F2FF320860886890436CCE1843104302
:104040008860C86820F0FF0028433043C8600868D3
:1040500040F00100086000202021206484F83D1019
:10406000206384F83E00F8BD80841E0000093D00F6
:10407000A186010040420F00A08601002DE9FE4FFD
:104080001D4690460E460446FFF736FF074694F855
:104090003D0020280BD1F04920460122192300972A
:1040A00002F070FA18B994F83C00012803D10226F6
:1040B0003046BDE8FE8F012084F83C00206801688E
:1040C000C90703D1016841F001010160016806F0F0
:1040D000FE0A4FF000094FF0A00B012621F4006109
:1040E0000160242184F83D10DC49C4F84090E1626D
:1040F000016800222B4641F48071016020464FF098
:104100000111009702F03EFA2168B0BBC1F810A07F
:10411000FFF7F2FE074620684169426994F83D3096
:10412000A02B0ED001F0020102F48062891808D1A0
:10413000FFF7E2FE15B1C01BA842ECD984F83DB0F0
:10414000E9E7202184F83D104169026842F40072D9
:104150008907026019D46FF480610122192341613B
:10416000BD492046009702F00DFA0028A0D109F1C0
:104170000109C14520D22068BAE708680326C005B6
:1041800044BF4FF40070206492E7002501221923F8
:104190000126029541690291F949806902900298CD
:1041A0000097204602F0EEF900287FF481AF20202E
:1041B00084F83C50002604E00020012684F83C00EE
:1041C000202084F83D0073E72DE9F04F85B00446C8
:1041D00000201F4616460D460490FFF78DFE8146CF
:1041E00094F83D0020280CD1E549204601221923EE
:1041F000CDF8009002F0C6F918B994F83C000128F7
:1042000003D1022005B0BDE8F08F01220DF138087E
:1042100084F83C20226898E803011368DB0703D187
:10422000136843F001031360136823F40063136001
:1042300022223B4684F83D20402284F83E20002282
:10424000226461856062CF493246608DE162294611
:1042500020852046CDE9008902F08EF8002840F044
:10426000F080218D01290DD011BB00200390206822
:1042700041690391816903910399016841F40071D7
:10428000016037E02068016821F480610160EFF38C
:10429000108072B600200390206841690391816903
:1042A00003910399016841F40071016062B621E055
:1042B00020680229026813D142F400610160EFF323
:1042C000108072B6002003902068416903918169D3
:1042D00003910399016821F48061016062B609E0ED
:1042E00042F480610160002103914169039180697A
:1042F00003900398208D5A4FDFF858AB46F2A81B65
:104300002325010400F09F8086B2032E09D8012ED8
:1043100023D1204641464A4602F0CBF9002874D00A
:104320008FE0204641464A4602F0C3F9002840F09B
:1043300088802068616A00690870608D0138608536
:10434000606A2168421C208D6262013820854B69B9
:104350005B07D6D5086910705BE02046394600221D
:104360004346CDF8009002F00DF9022E17D1002837
:1043700067D1EFF3108072B6616A2068026842F478
:104380000072026000690870606A01306062608DCE
:1043900001386085208D0138208562B635E000281F
:1043A0004FD12068016821F480610160EFF3108033
:1043B00072B6616A206800690870608D0138608596
:1043C000218D606A013901302185DAF800106062C0
:1043D000B1FBFBF1694304910499013904910499FB
:1043E00009B321684A695207F6D50A6842F4007297
:1043F0000A6009690170606A01306062208D0138CD
:104400002085608D0138608562B62068616A006928
:104410000870606A01306062208D01382085618DEE
:10442000013961856DE700202021206384F83D106B
:1044300084F83E00216C41F02001216462B684F8CA
:104440003C000120DEE6202084F83D00002084F8B6
:104450003C0084F83E00D5E6020010000000FFFF9B
:10446000040001002DE9FE43994616460F46044616
:10447000FFF742FD054694F83D0020280BD1404946
:10448000204601221923009502F07CF818B994F80F
:104490003C00012802D10220BDE8FE8301220DF17B
:1044A000280884F83C20226898E803011368DB0799
:1044B00003D1136843F001031360136823F400630E
:1044C000136021224B4684F83D20402284F83E2090
:1044D00000222264618560622A493246608DE16271
:1044E000394620852046CDE9008501F0C5FF10B191
:1044F0000120BDE8FE83208D000422D020464146E5
:104500002A4602F009F910BB616A2268084610F8D1
:10451000013B1361638D013B63856062238D581EEF
:1045200020850704566918BF16F00406E4D04878C1
:1045300002311061981E61622085618D01396185AB
:10454000DAE7204641462A4601F0F2FF40B1206CEE
:104550000428CDD12068016841F400710160C7E7EB
:104560002068016841F400710160202084F83D005A
:10457000002084F83C0084F83E00BDE8FE8300BFC4
:10458000020010000000FFFF10B586B00021CDE949
:104590000411CDE902110168114881421ED1564C27
:1045A00000F53440216841F008012160216801F0E4
:1045B0000801019103210591122103914FF44061FB
:1045C0000291019902A9FFF7B7FB606840F48000EF
:1045D0006060606800F480000190019806B010BD32
:1045E000005800400348044900780A6810440860F5
:1045F000704700BF04000020E8A4002080B50748F1
:10460000016841F010010160032000F0A3F80F20C1
:1046100000F006F800F04EF8002080BD00200240B7
:1046200070B586B004462048016841F00101016080
:104630006946006800F001000190019801A800F0AF
:1046400013FA049D00F02EFA18490026002D4FF0B1
:10465000804340F2E7328E6118BF0125A840144D17
:10466000B0FBF5F00138C1E900300846C1E902624B
:104670000E6100F0A3FF054698B90C4800F0E4FF76
:10468000054670B91C2000F03BF80F2C08D81C2000
:1046900021460022002500F041F8F248046000E0C5
:1046A0000125284606B070BD1C1002402C0E0020CB
:1046B00040420F00E0B510480022016841F00101BE
:1046C0000160016801F0010101910199416841F027
:1046D000805141600F21406800F0805000900098A8
:1046E0006FF0010000F01AF804480222016862F33A
:1046F0001A6101608CBD00BF181002400400014027
:10470000002808D400F01F010122400902FA01F13B
:10471000014A42F82010704700E100E070B5134BE9
:104720004FF0FF351B68C3F30223DC1E83F0070341
:1047300038BF0024042B28BF042305FA04F605FA29
:1047400003F3B2439943A1401143BDE8704005F023
:1047500075BC00BF05494FF6FF030A681A4060F3B5
:104760000A22034810430860704700BF0CED00E0C8
:104770000000FA0580B5421E01460020072A09D82C
:10478000DFE802F018303B043B3B3B04BDE88040CF
:1047900000F0A0B9102930D124494A680868C00146
:1047A0002CD5C2F3834022A3D203185C2FD4DD4A58
:1047B000504335E01D4840F20232016A0A40B2F52A
:1047C000817F04BF4FF4004080BD01F44071B1F51A
:1047D000407F15D0B1F5007F10D1406A49F64041C5
:1047E000800711E000F068F9104902224968C1F31E
:1047F000813102EB4101B0FBF1F080BD002080BDB2
:1048000000684FF22441800301EAE07080BD4A68ED
:104810000BA3C2F340429A5CBC4BB3FBF2F2504391
:1048200049684902E9D440000321E4E7001002404E
:1048300002030405060708090A0B0C0D0E0F1010E1
:10484000010200002DE9FC4104460078AE4EC0078D
:1048500048D0B069C0000BD4B0694FF0010840F0F7
:104860008050B061B06900F080500190019801E083
:104870004FF000082D4F3868C00511D4386840F457
:1048800080703860FFF738FB05463868C00507D4EC
:10489000FFF732FB401B6428F7D90320BDE8FC81F9
:1048A000F06910F440700FD0616801F440718842E3
:1048B0000AD01F49F06901220A6000220A6020F430
:1048C0004071C007F16121D16068F169B8F1000F52
:1048D00021F4407140EA0100F06103D0B06920F09A
:1048E0008050B0612068810705D5A168326822F444
:1048F000404211433160C00605D56069316821F43A
:104900008001084330600020BDE8FC81FFF7F4FA25
:10491000054641F28837F0698007D5D4FFF7ECFAF5
:10492000411B0320B942F6D9EEE700BF00700040FA
:10493000400442422DE9F84300286AD0884658498D
:104940000446086800F0070040450AD2086820F0D5
:10495000070040EA08000860086800F007004045CA
:1049600057D12068684B8946810711D5410703D587
:10497000196841F4E0611960010703D5196841F431
:1049800060511960A1681A6822F0F00211431960A1
:10499000C00737D1D9F8000000F0070040450DD915
:1049A000D9F8000020F0070040EA0800C9F800002C
:1049B000D9F8000000F0070040452AD120684107DF
:1049C00005D5E1681A6822F4E06211431960000716
:1049D00006D52069196821F4605141EAC0001860C9
:1049E0001C4600F077F821681D4AC1F30311515CA1
:1049F000C840364908601B480068FFF711FE0020D8
:104A0000BDE8F8836068012806D153F8041C8903C7
:104A10000BD40120BDE8F88353F8041C022802D10E
:104A20008901F6D501E08907F3D519681D4621F003
:104A3000030108431860FFF75FFA064641F2883722
:104A4000606829682B4601F00C01B1EB800FA1D002
:104A5000FFF752FA801BB842F2D90320BDE8F88371
:104A6000B0EC0008080000200F220260264A1368FC
:104A700003F003034360136803F0F00383601368DB
:104A800003F4E063C3604FF4E063126803EAD20208
:104A900002610348006800F007000860704700BF2B
:104AA00000200240EB481849094A00680968C1F330
:104AB0000221515CC8407047E6481349044A006827
:104AC0000968C1F3C221515CC84070470C00002046
:104AD000C0EC000810B50C490C480A6802F00C0341
:104AE000082B07D1C2F3834309A4D203E35C02D4A9
:104AF0000C48584310BD096809A25843C1F340410E
:104B0000515CB0FBF1F010BD0410024000127A00BD
:104B100002030405060708090A0B0C0D0E0F1010FE
:104B20000102000000093D002DE9FC41002800F0D1
:104B3000A68004460078C54EC00725D0706800F0F6
:104B40000C0004281AD0706800F00C00082802D16C
:104B50007068C00312D46068002800F00C81B0F5C2
:104B6000803F07D03168B0F5A02F40F0388141F484
:104B700080203060306840F4803036E13068800357
:104B800002D5606800287AD02078800718D5706830
:104B900010F00C0F07D0706800F00C00082824D12A
:104BA0007068C00321D43068800702D520690128CD
:104BB00065D16069316821F0F80141EAC0003060D8
:104BC0002078000741D5A06910B3A1480121C0F8A1
:104BD0008014FFF791F90546706A800728D4FFF723
:104BE0008BF9401B0228F7D90CE12169984800296C
:104BF00000F09A8001210160FFF77EF905463068D8
:104C00008007D6D4FFF778F9401B0228F7D9F9E0DE
:104C10008F480021C0F88014FFF76EF90546706ACE
:104C2000800712D5FFF768F9401B0228F7D9E9E0A1
:104C300088484FF4FA510068B0FBF1F0019000BFD2
:104C40000198411E00280191F9D12078400719D41C
:104C5000E7698FB1706800F00C00082845D1012F7A
:104C60000DD0216A706800F480328A4207D1616AEF
:104C700000F47010884202D10020BDE8FC810120C0
:104C8000BDE8FC81F069C0000BD4F0694FF0010869
:104C900040F08050F061F06900F080500090009882
:104CA00001E04FF000086C4F3868C0050FD4386839
:104CB00040F480703860FFF71FF905463868C0057A
:104CC00005D4FFF719F9401B6428F7D99AE0E0688A
:104CD000D0B3012805D0316A052862D141F0040023
:104CE0003062306A40F0010061E059490020884696
:104CF0000866FFF701F90546022F0BD147463068D9
:104D0000800140F18280FFF7F7F8411B0320022960
:104D1000F5D9B2E730688001AED5FFF7EDF8411B59
:104D200003200229F6D9A8E700210160FFF7E4F883
:104D30000546306880077FF543AFFFF7DDF8411B7C
:104D400003200229F5D998E7306A20F0010030628B
:104D5000306A20F004003062FFF7CEF8054641F2D9
:104D60008837306A800731D5FFF7C6F8411B03202A
:104D7000B942F6D981E7306820F48030306030687D
:104D800020F480203060FFF7B7F8054630688003D4
:104D90007FF5FAAEFFF7B0F8411B03206429F5D97F
:104DA0006BE721F001003062306A20F004003062CD
:104DB000FFF7A2F8054641F28837306A800705D42C
:104DC000FFF79AF8401BB842F7D91BE0B8F1000F83
:104DD0003FF43EAFF06920F08050F06138E721F4F5
:104DE00080303060306820F480203060FFF784F835
:104DF0000546306880033FF5C7AEFFF77DF8401BDE
:104E00006428F6D90320BDE8FC81206AB0F5803F14
:104E100005D1A168726822F4003211437160616AA1
:104E20000843716821F474110843706001203866EA
:104E3000FFF762F80446306880013FF51DAFFFF7C9
:104E40005BF8011B03200229F5D916E70010024088
:104E5000000042420C00002000700040704790F8B3
:104E600051007047F8B538B10446406A30B10020AF
:104E7000206104F1140007E001254AE06068B0F504
:104E8000827F03D004F11C00002101600025A5628F
:104E900094F8510000284FF0000007D1204684F814
:104EA000505000F039F8A06A00F40050022184F854
:104EB000511094E84E0002F4827203F404430F6828
:104EC0001A4406F400631A4427F040070F60236970
:104ED00003F002031A44636903F001031A44A3694F
:104EE00003F400763244E66906F038063244266A56
:104EF00006F08006324310430860042000EA1340A5
:104F00004860C86920F40060C8610120656584F8C4
:104F100051002846F8BD00002DE9F04385B0002778
:104F200004462F4DCDE90377CDE90177216805F5DA
:104F30002050814250D12B4801AE016841F480518C
:104F40000160016801F4805100910099016841F00D
:104F5000040101603146006800F004000090032065
:104F6000049002200290A020019000982846FEF7AD
:104F7000E3FE4020CDE90277314601902846FEF756
:104F8000DBFE194D194E4FF400584FF080092846AA
:104F9000C5E90067C5E90279C5E90477C5E906787E
:104FA000FEF75AFE08B1FDF75FFE6C62E564104D36
:104FB0000020102106F11402C5E90021C5E902090B
:104FC000C5E90400C5E906082846FEF745FE08B114
:104FD000FDF74AFE6C62A56405B0BDE8F08300BF32
:104FE0000008014018100240B40C00201C000240D0
:104FF000F80C0020F8B5044690F85100012811D1B2
:1050000013460A46A16891B96068B0F5827F0ED157
:105010000420114684F85100204601B0BDE8F0405C
:1050200000F042B90220002184F85010F8BD94F835
:105030005000012804BF0220F8BD0120002A84F896
:105040005000F0D0002BEED004200025B1F5004F29
:1050500084F851006565E387A387A263C4E910550E
:10506000A586E586266807D1306820F040003060CC
:10507000306820F480403060E06CC949C64FF64B80
:10508000C0E90A71C0E90C3506F10C01E38FFEF7A7
:105090001FFE28B1606D40F0100060650120C2E77E
:1050A00020680168490603D4016841F040010160AD
:1050B000416841F020014160416841F001014160D7
:1050C0000020B0E7704770472DE9F843044690F898
:1050D0005000012804BF0220BDE8F88301201E46CD
:1050E00015460F4684F85000FEF706FF94F851105D
:1050F000814601296BD10120002F00F0B480002DE2
:1051000000F0B180002E00F0AE8094F85100042829
:105110001CBF052084F8510000206065E687E68604
:10512000A563A6872763C4E91000A68620680168E6
:10513000490603D4016841F0400101606168731EB3
:10514000E268DDF82080B3FA83F3B1FA81F15B09FC
:10515000B2F5006F4FEA511141EA030145D131B177
:1051600037F8021BC1602763E08E0138E086012614
:1051700008F10105E08E10B9E08F002878D0206892
:10518000816889070CD5E18E012E09D141B1216BCF
:10519000002631F8022BC2602163E18E0139E186DD
:1051A0008168C9070AD0E18F41B1A16BC0680126AF
:1051B00021F8020BA163E08F0138E087FEF79CFE27
:1051C000002DD7D0A0EB09004045D3D347E060685D
:1051D000B0F5827F07D10220042944D1A1680029BB
:1051E0003FF489AF3FE002203DE039B139780173E7
:1051F000206B01302063E08E0138E086012608F143
:105200000105E08E08B9E08F90B3206881688907B6
:105210000ED5E18E012E0BD151B1216B00260978FC
:105220000173216B206801312163E18E0139E18630
:105230008168C9070BD0E18F49B1A16BC068012615
:105240000870A06B0130A063E08F0138E087FEF7A3
:1052500053FE002DD5D0A0EB09004045D1D301204D
:1052600084F851000320002184F85010BDE8F88331
:10527000204641464A4601F0B3FB18B12020606544
:105280000120F0E7A06838B9002000902068C168CC
:105290000091806800900098616D01200029E2D1A2
:1052A00084F851000020DEE7F8B5044690F850007D
:1052B000012804BF0220F8BD012084F8500094F8B2
:1052C0005150012D46D1012000294FD0002A4DD048
:1052D000002B4BD094F851000025324F304E04285B
:1052E0001CBF052084F851006565E386E387A2634F
:1052F000A386A3872163C4E91055284A564B94F826
:1053000051102548042908BF0246E06C042908BF53
:105310003746C0E90A27C0E90C35E38F2168A26B44
:105320000C31FEF7D5FC78B92268A06C516841F0C9
:1053300001015160C0E90A55C0E90C550C32E38EF9
:10534000216BFEF7C5FCA8B1606D40F010006065F0
:1053500001200BE06068B0F5827F06D10220042DA9
:1053600004D1A568002DAED000E00220002184F811
:105370005010F8BD20680168490603D4016841F067
:1053800040010160416841F020014160416841F005
:10539000020141600020E9E75D6800083569000806
:1053A0004B68000857680008F8B5044690F85000AC
:1053B000012804BF0220F8BD012084F8500094F8B1
:1053C000510001282FD1012071B36AB303200023BB
:1053D00084F851006365E286A2862163A363C4E971
:1053E0001033A387E387A0682268B0F5004F07D188
:1053F000106820F040001060106840F48040106099
:10540000A06C144D154F144E0C32C0E90A75C0E95A
:105410000C63E38EFEF75CFC50B1606D40F0100051
:105420006065012000E00220002184F85010F8BDE2
:1054300020680168490603D4016841F04001016019
:10544000416841F020014160416841F00201416042
:105450000020E9E7516800082D680008C7680008C7
:10546000704770477047704770477047F0B5024605
:1054700090F83C00012804BF0220F0BD002001F19B
:1054800008074B6982F83C001268E0CFD1E900C4FC
:10549000C96926F47C5625F4705524F4F04435434C
:1054A0002C432CF4E0452C4327F4C0452C432343E4
:1054B00023F4804319435164F0BD000010B590F807
:1054C0003C300222012B2AD080F83D20012280F8B6
:1054D0003C2002680B685468B2F1804F24F07004DD
:1054E00044EA0304936854600ED0C14CA2420BD02E
:1054F0006B4CA24208D06B4CA24205D06A4CA2422F
:1055000002D06A4CA24204D1496823F080031943B7
:1055100091600022012180F83C2080F83D10104667
:1055200010BD00BF10B5044641B1082909D00429B7
:1055300014BF04F1450004F1430004E004F142000B
:1055400001E004F14400007801281CBF012010BDD7
:10555000022041B1082909D0042914BF84F845006C
:1055600084F8430004E084F8420001E084F8440039
:105570002068042201F031FB2068416CB0F1804FBB
:1055800041F4004141640ED0994988420BD044490E
:10559000884208D04349884205D04349884202D016
:1055A0004249884204D1816801F00701062903D0ED
:1055B000016841F001010160002010BD40B310B549
:1055C000044690F83D0028B9002084F83C002046AD
:1055D00000F020F80220211D84F83D00206801F031
:1055E000ABFA012084F8460084F83E0084F83F00BE
:1055F00084F8400084F8410084F8420084F84300B5
:1056000084F8440084F8450084F83D00002010BD73
:1056100001207047E0B500682449884218BF8CBD5E
:10562000E2480022016841F4006101600A2100683B
:1056300000F40060019001981920FFF76FF819201D
:10564000BDE88C40FFF75CB890F83D1001291CBF05
:1056500001207047022180F83D100068C168B0F158
:10566000804F41F00101C1600ED0CF4988420BD07C
:105670000B49884208D00B49884205D00A49884224
:1056800002D00A49884204D1816801F00701062945
:1056900003D0016841F0010101600020704700BFA4
:1056A00000080040000C004000340140002C014084
:1056B00010B590F83C2004460220012A70D084F8EE
:1056C0003D0001204FF6777384F83C002068826823
:1056D0009A4382600A6812B3102A20D0202A1ED072
:1056E000302A1CD0402A21D0502A2BD0602A35D015
:1056F000B2F5005F3ED0B2F5805F4AD0702A50D13B
:10570000D1E90123C9681A4342EA0121826822F4DF
:105710007F4211438160816841F0770138E0816800
:1057200021F07001114341F0070131E04B68CA6874
:10573000194601F019FB2068816841F0470121F00A
:10574000300125E04B68CA68194601F00DFB20685E
:10575000816841F0570121F0200119E04B68CA68C7
:10576000194601F047FB2068816841F0670121F08C
:1057700010010DE0D1E90123C9681A4342EA012171
:10578000826822F47F4211438160816841F4804144
:1057900081600020002184F83C10012184F83D1034
:1057A00010BD0120F6E70000E0B50168B54A91425E
:1057B00000D08CBD007F0828FBD10E480E4A002384
:1057C0000068416A1180002141625068118801AA75
:1057D0000092032207F014F801980028E9D0074846
:1057E0004FF080510160BFF34F8FBFF36F8F8CBDBF
:1057F00000040040740E00202C02002004ED00E0A4
:10580000F8B5044690F83C00012804BF0220F8BD1A
:105810000D464FEAB2010120032984F83C0063D809
:10582000DFE801F002101F3CD5E90012EB682068A8
:1058300001F0ACFA206850F8181F21F00C0101604B
:10584000A9684DE0D5E90012EB68206801F0E4FAA0
:10585000206850F8181F21F440610160A96809020E
:105860003EE02268136A106A20F480701062D5E965
:105870000067D5E9021060F30717104650F81C5F67
:1058800025F0F3053D430560C6F3560565F349234E
:105890001362026822F00C02026021E021684FF2DC
:1058A000FF070A6A086A20F480500862D5E90030D0
:1058B000D5E90265000220EA0707084665F30F37BD
:1058C00050F81C5F25F473453D430560C3F3520354
:1058D00063F34D320A62016821F4406101603102D4
:1058E0000268114301600020002184F83C10F8BDDB
:1058F00040B310B5044690F83D0028B9002084F864
:105900003C00204600F020F80220211D84F83D00D4
:10591000206801F011F9012084F8460084F83E0067
:1059200084F83F0084F8400084F8410084F8420085
:1059300084F8430084F8440084F8450084F83D006E
:10594000002010BD01207047FEB50021CDE90411F3
:10595000CDE9021102684B48824223D1BD4A00F5CD
:105960008430536843F002035360536803F002032A
:105970000193019B136843F008031360126802F05F
:1059800008020192CDE9031102210291019902A9B5
:10599000FEF7D2F91D2005210022FEF7BFFE1D20D3
:1059A000FEF7AEFE06B080BD0004004018100240B5
:1059B00010B5044661B108290FD0042919BF04F1BC
:1059C000450004F1410204F1430004F13F0208E004
:1059D00004F1420004F13E0203E004F1440004F14A
:1059E0004002137802780120012B08BF012A00D061
:1059F00010BD022061B108290FD0042919BF84F815
:105A0000410084F8450084F83F0084F8430008E032
:105A100084F83E0084F8420003E084F8400084F8F3
:105A200044004FEAB100032884BF012010BD144A8E
:105A300052F820202068C3681A43C260012201F096
:105A4000BDF82068B0F1804F0ED00E4988420BD0CF
:105A50000D49884208D00D49884205D00C4988423A
:105A600002D0EB49884204D1816801F00701062980
:105A700003D0016841F001010160002010BD00BFAA
:105A800080EF00080004004000080040000C0040C7
:105A90000034014010B5044600680169890744BF1D
:105AA000C1685FEA817139D40169490744BFC1689F
:105AB0005FEA41713ED40169090744BFC1685FEAEA
:105AC000017144D40169C90644BFC1685FEAC1617C
:105AD00049D40169C9071CBFC1685FEAC1714FD1D0
