:020000040800F2
:10000000D0710020DD020008656A0008C96500089B
:10001000616A0008512D00083179000800000000D5
:10002000000000000000000000000000116F000848
:10003000F92E000800000000D16A00083D6F00089A
:10004000F7020008F7020008F7020008F7020008AC
:10005000F7020008F7020008F7020008F70200089C
:10006000F7020008F7020008F7020008F70200088C
:10007000F7020008F7020008F7020008F70200087C
:10008000F7020008F7020008F7020008F70200086C
:10009000F7020008552D0008F7020008F7020008D3
:1000A000F70200086D6F0008F7020008F702000869
:1000B0007D6F00088D6F0008F7020008F702000846
:1000C000F7020008F7020008F7020008F70200082C
:1000D000F702000805790008F7020008F702000897
:1000E000F7020008F7020008F7020008F70200080C
:1000F000F7020008F7020008F7020008F7020008FC
:10010000F7020008F7020008F7020008F7020008EB
:10011000F7020008F7020008F7020008F7020008DB
:10012000FD2D0008F70200080D2E00081D2E000806
:100130002D2E00080000000000000000F70200085B
:10014000F7020008F7020008F7020008F7020008AB
:10015000F7020008F7020008F7020008F70200089B
:10016000F7020008F7020008F7020008F70200088B
:10017000F7020008F702000800000000000000007D
:10018000F7020008F702000800F002F800F096F805
:100190000AA090E8000C82448344AAF10107DA45E2
:1001A00001D100F08BF8AFF2090EBAE80F0013F09E
:1001B000010F18BFFB1A43F0010318471803010091
:1001C00038030100103A24BF78C878C1FAD8520722
:1001D00024BF30C830C144BF04680C6070470000C1
:1001E0000023002400250026103A28BF78C1FBD840
:1001F000520728BF30C148BF0B6070476E2900F01E
:100200002487702901F0558266290FF00D86652933
:100210000FF00A8667290FF0078661290FF006861E
:1002200003681B0A28BF41F08001692900F048815A
:10023000642900F04581752900F042816F2901F0A1
:10024000E381782901F02182E92900F07581E42910
:1002500000F07281F52900F06F81EF2901F0E08153
:10026000F82901F020820368DB0928BF41F08001F2
:10027000632901F03C81732901F04181E32901F0F8
:100280004987F32901F04E87002070471FB50FF012
:100290003CFD9DE8030001F023FD01F001FD040099
:1002A000002000210FF0B8FA401C606000200021FF
:1002B0000FF09CFAE0601FBD10B510BD02F0A9F967
:1002C0001146FFF7E3FF0BF067FB02F013FC03B4EA
:1002D000FFF7F2FF03BC01F0D9FC0000094880479A
:1002E00009480047FEE7FEE7FEE7FEE7FEE7FEE718
:1002F000FEE7FEE7FEE7FEE704480549054A064B30
:1003000070470000596F000889010008D06500207F
:10031000D0710020D0690020D069002053EA020C7F
:1003200000F069802DE9F04B4FF00006002B1FBF55
:10033000B3FA83F503FA05F424FA05F65E4012BF1A
:100340001643B2FA82F502FA05F4C5F120051EBF84
:1003500022FA05FC44EA0C04203556EA044C4FEA24
:10036000144418BF641C4FF000084FF0000990427D
:1003700071EB030C39D3002919BFB1FA81F701FAE7
:1003800007F6B0FA80F700FA07F6C7F120071EBF9C
:1003900020FA07FC46EA0C062037B6FBF4FCA7EB74
:1003A0000507103F07F01F0BCBF120062CFA06F6CD
:1003B0000CFA0BFB44BFB3460026202FA4BF5E46B9
:1003C0004FF0000B5BEA060C08BF4FF0010B19EB76
:1003D0000B0948EB0608ABFB027C06FB02CC0BFBCF
:1003E00003CCC01B71EB0C01C1E70B460246414632
:1003F0004846BDE8F08B13B5084318BF4FF0FF30F7
:100400000146AFF30080BDE81C4070477CB51D4637
:1004100016460C00009001D02044401E074B7B4440
:100420002A4669460190304601F037F805461CB16E
:100430000020694601F044F828467CBDA910000060
:100440000FB41CB5084B06AA7B446946009005987A
:1004500001F023F804460020694601F031F82046F7
:100460001CBC5DF814FB00007510000070B50C4654
:100470000546012A05D02878800600D5EA690023C0
:1004800002E0012305E05B1C934202D2E05C0028FD
:10049000F9D1A869E618C01AA861286A1844286228
:1004A000284600F040FD04E0D5E9012114F8010BD5
:1004B0009047B442F8D3284600F04BFD70BD0000D1
:1004C0002DE9F0410646002410687529314616A52D
:1004D00010D000F04FFD002802DA404213A507E0DB
:1004E00031688A0701D512A502E0490704D511A594
:1004F000012401E000F047FD00210A2206F1240753
:1005000009E0B0FBF2FCB0FBF2F302FB1C00303060
:1005100078541846491C0028F3D123462A46304611
:10052000BDE8F04100F038BD000000002D000000E3
:100530002B000000200000002DE9F0418046D21D74
:1005400022F007020025D2E90002F52915A614D0F1
:10055000011E72F1000106DA0023D0EB030063EB09
:10056000020211A608E0D8F800108B0701D50FA6EB
:1005700002E0490701D50EA601251146002408F125
:10058000240704E000F07FFC30323A55641C50EA46
:100590000102F7D12B46324621464046BDE8F041E4
:1005A00000F0FABC000000002D0000002B0000004D
:1005B000200000002DE9F05F894604464FF0000A54
:1005C000DFF874B1FB44C0F820A02046E1688847FA
:1005D000002874D0252806D0D4E901219047206A4C
:1005E000401C2062F1E700265F462046E16888470C
:1005F0002028054607DB312D05D2781910F8200C8C
:1006000008B10643F1E7B00701D526F00406C4F8A7
:100610001CA00027C4F818A02A2D09D028460FF0E6
:1006200075F838B304EB8708303DC8F8185019E066
:1006300059F8041B204604EB87029161E168884762
:10064000012F054618D1E069002820DA26F020069F
:100650001DE0D8F8180000EB800005EB40003038B2
:10066000C8F818002046E168884705460FF04EF8A4
:100670000028EED1012F0AD02E2D08D12046E168A6
:1006800088477F1C0546022F46F02006C4DBA06980
:10069000002803DA404246F00106A061F00701D0CD
:1006A00026F010066C2D0BD0682D09D04C2D39D0BA
:1006B0006A2D35D0742D35D07A2D33D016E038E040
:1006C000E1682F4620468847B842054609D16C2F7D
:1006D00026D04FF48060E1680643204688470546EF
:1006E00004E06C2F1AD04FF4807006430DB3A5F1CF
:1006F0004100192802D8203546F400664A462946AA
:10070000204626604E46FFF779FD80B101280BD0C8
:10071000F61D26F0070000F1080956E74020E4E73F
:100720008020D8E70020D6E706F104094DE72846E7
:1007300052E7206ABDE8F09F64F900000FB400B5ED
:100740008DB010A9099000910B904FF0FF300A90E6
:1007500000200C90064878440690064878446A4683
:1007600007900F9909A801F03FFA0DB05DF814FB4E
:10077000AF140000C71400002DE9FF4F1C4691463E
:100780004FF0FF3581B000218A468846D4E90167E1
:10079000A16902986D1C8847216A83468847002812
:1007A000F6D1BBF1FF3F0CD0002F26F4C0661ADD56
:1007B000700615D5BBF12B0F0AD0BBF12D0F0FD151
:1007C00004E04FF0FF3005B0BDE8F08F46F48066DE
:1007D000A16902986D1C88477F1E8346002F02DDA9
:1007E000BBF1300F03D0B9F1000F2AD025E0A16989
:1007F0006D1C02987F1E46F400768847002F8346C2
:1008000005DDBBF1780F06D0BBF1580F03D0B9F16D
:10081000000F10D011E0B9F1000F02D0B9F1100FA4
:100820000BD1A1696D1C02987F1E26F400768847C3
:100830008346102000E0082081464FEAE9700090CE
:1008400017E00A20F8E74346AAFB0928DDF800C0B4
:100850007F1E03FB098046F4007605F101050AFBC3
:100860000C0112EB0B0A029841EBEB78A169884767
:100870008346002F06DD4946584600F025FF5FEA13
:10088000000BE0D5E16902988847B00502D46FF00B
:10089000010098E7F00718D1700610D55146700591
:1008A00005D50023D1EB030163EB080200E04246CB
:1008B0002068031D23600068C0E9001205E020687D
:1008C000011D21600068C0E900A828467BE72DE9EA
:1008D000FF5F1D464FF0FF3B91464FF000085F461B
:1008E000D5E90146A96901987F1C8847296A824693
:1008F00088470028F6D1BAF1FF3F0CD0002E24F42F
:10090000C06419DD600614D5BAF12B0F09D0BAF115
:100910002D0F0ED103E0584604B0BDE8F09F44F41B
:100920008064A96901987F1C8847761E8246002E44
:1009300002DDBAF1300F03D0B9F1000F26D032E05A
:10094000A969761E01987F1C44F400748847002E24
:10095000824605DDBAF1780F06D0BAF1580F03D000
:10096000B9F1000F10D01EE0B9F1000F02D0B9F1BB
:10097000100F18D1A969761E01987F1C24F4007409
:1009800088478246102002E0082000E00A208146C5
:1009900009E0A96908FB0908761E01987F1C44F448
:1009A000007488478246002E05DD4946504600F017
:1009B0008BFE0028EDDAE96901988847A00502D48A
:1009C0006FF00100A8E7E00725D1600613D56005A8
:1009D00002D5C8F1000000E0404629680A1D2A60DF
:1009E0000968220501D5087015E0220701D50880A5
:1009F00011E008600FE02868011D296000682105EA
:100A000002D580F8008006E0210702D5A0F800801A
:100A100001E0C0F8008038467EE72DE9FF5F4FF027
:100A200000089946144646469169D2E901A7DDF8C7
:100A300038B001988847054659EA0B0005D009E00F
:100A4000A1690198761C88470546216A284688478F
:100A50000028F5D1681C03D05FEACA7005D015E004
:100A60004FF0FF3004B0BDE8F09F2068011D216009
:100A7000D0F800800AE05FEACA7001D108F8015B93
:100A8000A169761C01987F1E88470546002F1ADD54
:100A9000681C18D0B9F1000F0DD0E81705EBD06035
:100AA000421120F01F0059F822102A1A012090400C
:100AB0000142E0D107E0BBF1000FDCD12846216AFA
:100AC00088470028D7D0E16901988847BBF1000F1B
:100AD00007D1002E05DD5FEACA7002D1002188F837
:100AE0000010A068B84203DDBBF1000F03D017B1BE
:100AF0006FF00100B6E73046B4E70000014A01F0AC
:100B0000A3B800000000002030B505460B462A4679
:100B100013F8014B12F8010B08B1A042F8D01CB138
:100B2000002802D06D1CF1E7284630BD40EA0103E1
:100B300010B59B070FD1042A0DD310C808C9121F86
:100B40009C42F8D020BA19BA884201D9012010BDC0
:100B50004FF0FF3010BD1AB1D30703D0521C07E08D
:100B6000002010BD10F8013B11F8014B1B1B07D1F1
:100B700010F8013B11F8014B1B1B01D1921EF1D162
:100B8000184610BD10B5431C02E010F8011B71B1EE
:100B90008107FAD14FF0013202C88C1A8C4314EA53
:100BA000C211F9D0C01A0A0603D0C01E10BDC01A67
:100BB00010BD0A0401D0801E10BD0902FCD0401EE9
:100BC00010BD032A40F2308010F0030C00F01580B5
:100BD00011F8013BBCF1020F624498BF11F801CB40
:100BE00000F8013B38BF11F8013BA2F1040298BFA5
:100BF00000F801CB38BF00F8013B11F0030300F00F
:100C00002580083AC0F0088051F8043B083A51F8B2
:100C100004CBA0E80810F5E7121D5CBF51F8043BB7
:100C200040F8043BAFF30080D20724BF11F8013B2A
:100C300011F801CB48BF11F8012B24BF00F8013B8C
:100C400000F801CB48BF00F8012B704710B5203ADF
:100C5000C0F00B80B1E81850A0E81850B1E8185067
:100C6000A0E81850203ABFF4F5AF5FEA027C24BF39
:100C7000B1E81850A0E8185044BF18C918C0BDE822
:100C800010405FEA827C24BF51F8043B40F8043BEB
:100C900008BF7047D20728BF31F8023B48BF11F8A0
:100CA000012B28BF20F8023B48BF00F8012B7047FA
:100CB00002F0FF0343EA032242EA024200F024B8B2
:100CC0004FF000020429C0F0128010F0030C00F075
:100CD0001B80CCF1040CBCF1020F18BF00F8012BF3
:100CE000A8BF20F8022BA1EB0C0100F00DB85FEAC1
:100CF000C17C24BF00F8012B00F8012B48BF00F88D
:100D0000012B70474FF0000200B5134694469646FB
:100D1000203922BFA0E80C50A0E80C50B1F120010E
:100D2000BFF4F7AF090728BFA0E80C5048BF0CC0BC
:100D30005DF804EB890028BF40F8042B08BF70471A
:100D400048BF20F8022B11F0804F18BF00F8012B8C
:100D5000704700000000000030B44FF0013C50F834
:100D6000042B51F8043BCCFA52F4D51A20D1FCB92B
:100D700050F8042B51F8043BCCFA52F4D51A17D191
:100D8000B4B950F8042B51F8043BCCFA52F4D51AFC
:100D90000ED16CB950F8042B51F8043BCCFA52F444
:100DA000D51A05D1002CDAD030BC4FF000007047C6
:100DB00029BAB1FA81F111F01801D1F12000844073
:100DC000F2D1CA40CB4012F0FF0213F0FF0330BC57
:100DD000D01A704770477047704770B5064600F0EC
:100DE0005BFF056806F10B0020F00704B4429CBFCE
:100DF000002070BD2B466A68BAB11068A04210D3BB
:100E000004F1080188423CBF5068586007D351681C
:100E1000101941601168091B016058601460101DB1
:100E200070BD13465268002AE7D12146284600F0DB
:100E300043FF0028DED170BD70B50446051F00F0E9
:100E40002BFF0068002C14BF446870BD002C18BF35
:100E5000AC423CBF20466468F8D301680A18AA4235
:100E600018BF456003D12A6805461144016028680F
:100E70004119A1421CBF6C6070BD61686960216846
:100E80000844286070BD30B5B0F10A0271F100036A
:100E90004FEA900E4EEA817EB0EB0E0061EB9101BD
:100EA0004FEA101E4EEA017E10EB0E0041EB1111CD
:100EB0004FEA102E4EEA016E10EB0E0041EB1121AD
:100EC0004FEA104E4EEA014E10EB0E0041EB11417D
:100ED000401841F100014FEAD00040EA41704FEA6A
:100EE000D1014FEA810444EA907410EB800544EB91
:100EF00001046D1944EB0404521BA3414FF000039D
:100F000048BF0A3200D530BD401C41F1000130BD60
:100F100010B500F0C9FE006810BD10B5044600F021
:100F2000C3FE046010BD70B5044685690068C10643
:100F300001D5302600E02026C00707D070BDD4E9D7
:100F4000012130469047206A401C20626D1EF6D574
:100F500070BD70B5044685690078C00707D170BDC3
:100F6000D4E9012120209047206A401C20626D1E98
:100F7000F6D570BD09684A0501D540B27047C9056C
:100F8000FCD500B2704709684A0501D5C0B2704768
:100F9000C905FCD580B270472DE9F0470D4699464A
:100FA0009246044600F124080168880604D5E069E9
:100FB00021F01001216000E00120A84201DD471B63
:100FC00000E00027A1697A1902EB0900081AA06164
:100FD0002078C00602D42046FFF7A5FF002608E0CF
:100FE000D4E901211AF806009047206A401C761CBB
:100FF00020624E45F4DB2078C0060AD52046FFF774
:1010000092FF06E0D4E9012130209047206A401C7D
:101010002062381EA7F10107F4DC07E0D4E90121C2
:1010200018F805009047206A401C2062281EA5F190
:101030000105F3DC2046FFF78CFF2078000602D57F
:101040000220BDE8F0870120FBE711680268006A12
:10105000530501D508700AE0D30501D5088006E0E4
:10106000130603D5C217C1E9000200E008600120A1
:1010700070472DE9FF4F0C461E464FF0FF378BB0EF
:10108000D2E90001DDF860800A908A46C1F30A5572
:1010900005B93D46002108464FF00000BAF1000FA7
:1010A00000F4400005DA00EB80004FF4400101EA53
:1010B00050004FEA9059B9F1010F00DDB9460A9886
:1010C00050EA4A000ED044F61050A5F2FF354543D1
:1010D0002F14B8F1000F1ED07542291E1EDDC9F174
:1010E00000021CE0B8F1010F4FF0000001D03021E8
:1010F00003E0F24305E02154401CB042FBDB3046E4
:101100000022002121540B99C1F80880C1E9002078
:101110000FB0BDE8F08FBD1B6D1CDEE74A4600DA5C
:10112000694206A801F0BCF906AB93E8070003ABDF
:1011300083E8070050460A990DF0E4FA8DE80700AD
:10114000A0F500501F3800900398002D0ADD42F2F0
:101150001F014A460844002303A9039068460DF086
:101160008FFD09E0A0F500504A461F38002303A96F
:10117000039068460DF0AEFD8DE807000004000CFA
:1011800003D04FF0FF30410800E01046B8F1000FE7
:1011900003D00022009215461EE0751E05D4FFF70D
:1011A00072FE303262556D1EF9D5B34601220843F6
:1011B00002D000227F1C04E02078302801D10022D8
:1011C0007F1E002A099784D01DE0112D07DAFFF752
:1011D0005AFE303262556D1C50EA0102F5D10843C7
:1011E00002D00098C8B10EE00021681E05E0235C23
:1011F000625C63542254401E491C8142F7DBAB46BB
:10120000A81B401E0990002004F80B000B98099AB7
:10121000C0F80880C0E9002B7AE711264FF00008DB
:1012200057E72DE9F04F88460446D21D22F007010A
:1012300091B0D1E90001CDE90A010DF097FE024617
:101240000B98C00F01D02D2007E02068810701D541
:101250002B2002E0202101EAC000032A099001D0DE
:10126000072A05DB03464146204600F009FF0BE153
:101270002078800601D5E06900E00620B8F1650F0E
:10128000814606D0B8F1660F18D0B8F1670F70D15B
:1012900031E00020B9F1110F009001DB112301E0D2
:1012A00009F101030AAA01A90CA8FFF7E2FEDDE992
:1012B0000C70002609F10105834647E001204B46EA
:1012C00000904FF000470AAA01A90CA8FFF7D1FE31
:1012D000DDE90DB00C995D46002610B909F1010059
:1012E0000D18B9EB050003D4C0F1FF3609F1010573
:1012F000A5EB09002BE0B9F1010F01DA4FF001096C
:101300000020B9F1110F0090484601DD112300E0E3
:1013100003460AAA01A90CA8FFF7ABFEDDE90C7091
:101320004D4600268346207800070AD4AB4500DAF4
:101330005D4601A8012D04DD411911F8011C302979
:1013400007D04F4502DA17F1040F04DA0120824674
:101350000FE06D1EEEE7002F02DCED1B3E4403E0C4
:10136000781CA84200DD7D1CB81B00F1010A4FF07B
:1013700000472078000703D4AA4501DB4FF0FF3A6D
:101380000021B7F1004F0DF143088DF8431024D030
:1013900002202B23002F01DA7F422D230A21021E77
:1013A000A0F1010000DC5FB197FBF1FC97FBF1F2CB
:1013B00001FB1C7C17460CF1300C08F801CDEEE760
:1013C000A8F1010003702188090501D5452100E03D
:1013D0006521A0F1010800F8011C09980FA9A1EBF3
:1013E0000807FF1D00B10120411901EBEA70A16956
:1013F0003844081A401EA0612078C00602D4204656
:10140000FFF791FD099828B1D4E901219047206A9E
:10141000401C20622078C00622D52046FFF783FDBD
:101420001EE0002E04DBB34502DD01A8805D00E074
:101430003020D4E901219047206A401C2062761CAC
:10144000AAF101005FEA000A0AD100F029FCC06895
:101450000168405CD4E901219047206A401C206269
:10146000281EA5F10105DCDC07E0D4E9012118F80C
:10147000010B9047206A401C2062381EA7F101072B
:10148000F3DC2046FFF765FD032011B041E60000C4
:1014900001694A1C02610878704700B58FB0CDE938
:1014A00001310021059105497944CDE90310114628
:1014B0006846FFF77FF80FB000BD0000E5FFFFFFB3
:1014C0000A6802F8010B0A607047D1E900239A42CA
:1014D00002D2531C0B601070704710B5436913B1F2
:1014E000AFF3008001E0FEF7C1FF012010BD1278CC
:1014F00000F124010A7000224A700122EDE7116810
:101500004FF0FF32E9E700002DE9FF5F15468A46FC
:101510000446DFF8AC80F8440027D8E900103E46C6
:10152000CDE9001010E03AF816106A4602A801F062
:1015300029F8411C07D02178890603D5E2693918BA
:1015400091420DD80744761C2078800602D5E069C8
:10155000B84205DDAE42E6DB3AF816000028E2D1DB
:10156000A069C01BA0612046FFF7DDFCD8E9001090
:10157000CDE90010002017E03AF818106A4602A8DA
:1015800001F000F8B0F1FF3F81460BD000250DF1CE
:10159000080B05E0D4E901211BF8050090476D1CFC
:1015A0004D45F7D308F10100B0428046E4DB206AE4
:1015B000384420622046FFF7CCFCBDE8FF9F0000C6
:1015C00026EA000030B4002100F1240408E002F013
:1015D0000705D208303542EA4372DB086554491CDE
:1015E00052EA0305F3D10468002310A2250708D5A9
:1015F00004F020040C4304D0C46901230CA2641E2F
:10160000C46130BCFFF7C8BC10B504462146106861
:10161000FFF7B9FC02462046BDE810400023D1E7A1
:10162000D21D22F00701D1E90023CBE70000000022
:1016300030000000F0B40D460188090502D5214CA8
:101640007C4402E01F4C7C440E34002100F124064F
:1016500008E002F00F071209E75D42EA03721B0976
:101660007754491C52EA0307F3D10278002312078A
:1016700004D5702D06D009B1022311342246F0BCE6
:10168000FFF78ABC01231034F8E770B504460D4615
:1016900021461068FFF777FC024629462046BDE840
:1016A00070400023C6E7D21D22F00703D3E90023D0
:1016B000C0E70368126843F0200303600823C36196
:1016C0000023B7E704E900003A2800D2303820F0C0
:1016D0002002412A01D3A2F13700884201D34FF002
:1016E000FF3070472DE9FF4F06468BB00878FF2882
:1016F00006D0491C2D2805D000244FF0000908E031
:1017000000200CE00124F8E709EB8903491C00EBF9
:1017100043090878FF28F7D114B1C9F100008146C8
:10172000107800252C46AA4629462D2801D02B28C2
:1017300004D1521C2D2813D0002082468B461078ED
:10174000FF280FD04FF0000C0A21521CA5FB017896
:1017500004FB018105FB0C11C5194BEB0104EEE7FD
:101760000120EAE7002108464FF00000BAF1000F1F
:1017700002D000EB80004008C0F38157012F01DD4B
:101780004FF0FF370E9955EA040009EB01080BD022
:101790004FF0020918F5FA7F16DA4FEACA70002FE7
:1017A000706008DD012007E04FEACA70C6E900B0AA
:1017B0000FB0BDE8F08F0020306000F075FAC0F87F
:1017C00000901821084616E0B8F5FA7F18DD002FC2
:1017D00002DAF748784401E0F6487844D0E900108E
:1017E000C6E9001040EACA70706000F05DFAC0F807
:1017F0000090142108460FB0BDE8F04F0EF011BB69
:10180000002108464FF00000B8F10001099002DA0B
:10181000C7F1000200E03A4601DAC8F1000106A86B
:1018200000F03EFE06AB93E8070003AB83E8070039
:1018300044F23E005BEA04010090584604D144F2B1
:101840001E012C465D460091210C0904014306D17E
:101850000099240444EA15442D041039009104F041
:101860007F41014306D10099240244EA15642D0208
:101870000839009104F07041014306D10099240118
:1018800044EA15742D01091F009104F04041014301
:1018900006D10099A40044EA9574AD00891E009118
:1018A00004F00041084304D100986D196441401EC2
:1018B00000904FF001033A466846B8F1000FCDE9B9
:1018C000014503A902DD0DF01AFA01E00DF0EDF972
:1018D000BAF1000F04460D4601D084F00044002107
:1018E00008464FF00000099940F2FF77484010F099
:1018F0000C0F07D124F00040284303D0C4F30A5052
:10190000B84212D100F0D0F9C0F80090C4F30A50E8
:10191000B8420AD1A8487844D0E90010C6E90010BE
:1019200004F000410843706042E7C6E900543FE715
:101930002DE9FF4F1F464FF0000A4FF0FF38454694
:1019400091B0D7E90146CDF83CA000F0A9F9C068F4
:101950000168405C1090B96912986D1C8847396A1B
:10196000814688470028F6D1B9F1FF3F0AD0002E02
:1019700024F4D06411DDB9F12B0F08D0B9F12D0F8B
:101980000BD102E0404615B013E744F48064B96916
:1019900012986D1C8847761E8146600504A901D502
:1019A0002D2000E02B20002E01F1010B0DF130085D
:1019B0008DF810003FDDB9F1690F08D0B9F1490F7A
:1019C00005D0B9F16E0F02D0B9F14E0F1CD13B46D4
:1019D00001A8009580E85002DDE912126FF00200C4
:1019E0000EF08AFAC11CCED10EE0B96912986D1CB6
:1019F000884781461398761E44F4007405600F985A
:101A0000401C002E0F9016DDB9F1300FEDD0B9F16A
:101A1000780F02D0B9F1580F0DD10F9801280AD1D3
:101A20003B46CDE90054DDE91212001F02960EF08C
:101A300061FAC11CA7D1109989453ED144F08004B8
:101A400006E01399681CAAF1010A44F400740860C6
:101A5000B9696D1C1298761E884730288146F0D0EF
:101A60002BE01099894505D1200603D4761E44F059
:101A7000800418E048460DF049FE08B3761E0DF1CB
:101A800023029345A9F1300044F4007406D20BF808
:101A9000010B200607D5AAF1010003E0200602D4BD
:101AA0000AF101008246A00502D51399681C08605E
:101AB000B96912986D1C88478146002ED1DC53E02D
:101AC000002E51DDB9F1650F02D0B9F1450F4BD1B0
:101AD000A00549D5B9696D1C1298761E24F440748E
:101AE0008847002E81460CDD2B2804D0B9F12D0F3C
:101AF00007D144F48074B96912986D1C8847761E2A
:101B00008146E00501D52D2100E02B2108F8011BBD
:101B1000CDF8008021E0761E0DF13901884544F4AE
:101B200000740CD2A9F1300010F0FF0088F800001A
:101B300002D10099884509D908F1010806E0E005BD
:101B400001D51E4801E042F20F708246B969129831
:101B50006D1C8847814613980560002E04DD4846B9
:101B60000DF0D4FD0028D6D1F96912988847FF20DE
:101B700053468BF8000088F8000000200A900B9074
:101B800004AA0CA90AA8FFF7ADFDA00502D46FF0C6
:101B90000100F8E614F0240F12D0E0071CD13868D9
:101BA000DDE90A12031D3B600068C0E9001213E082
:101BB00024ED000016ED0000DAEB0000F1D8FFFF85
:101BC0000AA968460DF0E4FCE00705D13868009AE0
:101BD000011D3960006802602846D4E6026811449D
:101BE0001378016018467047D16005497944516106
:101BF00004497944116200211161114600F096BA3E
:101C0000EDFFFFFF7D010000426842B1016811F85D
:101C1000013B23B1521EC0E9001218467047012152
:101C2000C160881E704742685AB1C368016843B9F1
:101C300083688B4205D0491E521CC0E90012002067
:101C400070474FF0FF3070472DE9F04115460E46C2
:101C5000040002D12C6804B90BA4204600F0C6FC95
:101C60000444207870B127463146384600F0AEFC77
:101C70000444207810B1002004F8010B38462C6091
:101C8000BDE8F0810027F9E70000000001491820B5
:101C9000ABBEFEE726000200004870476800002047
:101CA0000048704780000020004870476000002016
:101CB000704770477047704738B504460A460020A1
:101CC0006946AFF30080002808BF38BD024600997E
:101CD000204600F0CBFC012038BD012000F018BFE9
:101CE000F8B5AFF30080054600200C46102000BF79
:101CF0000646A819A0420DD9324669460020AFF326
:101D00000080070008BF00F003FF0098A04218BF42
:101D10000546C419FFF7C0FF05600746F01D20F017
:101D200007004619284600F00AF8B44208BFF8BD7B
:101D3000A21B31463868BDE8F84000F097BC00218E
:101D40000160C0E90110704710207047B2F1200314
:101D50000AD5C2F1200301FA02F120FA03F341EAA5
:101D6000030100FA02F0704700FA03F14FF000009F
:101D7000704710B5044600F071FC0068005D00F08B
:101D8000010010BD2DE9F04F04460D46D21D22F092
:101D9000070089B0D0E90097484639460DF0E6F8CB
:101DA0000246F80F01D02D2307E02068810701D5F6
:101DB0002B2302E0202101EAC0038DF820300BB173
:101DC000012000E00020032A824601D0072A04DB1C
:101DD0002946204600F054F93FE12078800601D4DE
:101DE0000D2500E0E569C7F30A560D2D49DA0021FB
:101DF0004FEA175B08464FF00000002F00F4400048
:101E000007DA00EB80004FF4400100EBD07001EAEC
:101E100060008115012901DD4FF0FF3100224FEAFA
:101E2000850CBCF1180F06D31346ACF118004FF027
:101E30008052C24003E04FF4801323FA0CF30CF1FC
:101E40000C0CBCF1200F04D3ACF1200C09FA0CF0FF
:101E500001E007FA0CF000294FF0004801DD18B945
:101E60000FE00ED140450CD319EB02095F4121B9B7
:101E7000404502D19F4329EA0209BBEB175F00D01E
:101E8000761C2088000502D57B48784402E07A4819
:101E90007844193808AA302302F80A30037C0AF182
:101EA0000101002E0AF1020A53546A4602DC4FF087
:101EB000300101E04FF031014FF001088DF80010C2
:101EC00002D0A6F2FF3603E059EA470100D06B4E7C
:101ED000002D02DC2178090704D54FF002082E21DD
:101EE0008DF80110C44600210BE0C7F303433F0106
:101EF000C35C491C6D1E02F80830052908F1010871
:101F000001DA002DF1DC00210CE000EB1973491C13
:101F10001B786D1E082902F808304FEA091908F1EC
:101F2000010801DA002DF0DC21688B0602D516E0ED
:101F3000A8F10108E04505DD02EB080313F8013CB8
:101F4000302BF5D0B8F1000F09DD02EB080313F8D0
:101F5000013C2E2B03D1090701D4A8F10108002D63
:101F600005DD3E2102F808106D1E08F10108407CD5
:101F7000002E02F8080008F1010804DA2D2076424C
:101F800002F8080002E02B2002F808000A214FF4B2
:101F90007A70864208F101080BDB96FBF0F33033D0
:101FA00002F8083096FBF0F308F1010800FB136615
:101FB00001E0642E0CDB642096FBF0F3303302F872
:101FC000083096FBF0F308F1010800FB136601E00E
:101FD0000A2E06DB96FBF1F0303002F8080008F11B
:101FE000010896FBF1F001FB1060303002F80800A8
:101FF000A16908F1010808EB050202EB0A00081AC2
:10200000A0612078C00602D42046FEF78CFF216A2A
:1020100008AE01EB0A00206204E0D4E9012116F8C1
:10202000010B9047BAF1010AF7D22078C00602D519
:102030002046FEF778FF6E4609E016F8010B3E28B1
:102040000FD0D4E901219047206A401C2062B8F1EA
:102050000108F2D22046FEF77CFF09B00320BDE85C
:10206000F08F206A2844206203E0D4E90121302067
:1020700090476D1EEBD3F8E715E1000002FCFFFF6F
:102080002DE9F0411F46044603260168072A01F4A2
:10209000006004DB08B116A505E016A503E008B151
:1020A00015A500E015A521F010002060A069C01E54
:1020B000A0610FB1401EA0612046FEF734FF4FB172
:1020C000D4E9012138469047206A401C2062C01C98
:1020D000206206E0206AFAE7D4E9012115F8010B35
:1020E0009047761EF8D22046FEF733FFBDE8F08118
:1020F0004E414E006E616E00494E4600696E6600AC
:1021000010B5436913B1AFF3008001E0FFF7FCF9AC
:10211000012010BD128800F1240182840022C284B3
:102120000122EDE711684FF0FF32E9E72DE9F34FA7
:102130004FF0000A0C4656468DB001200C9001F17C
:102140000C000B9062690B9801219047051E2DD061
:10215000252D2CD0216A8847C0B162690B980121D6
:102160009047216A88470028F7D16269411E0B9881
:10217000904700E0761CA1690D988847216A88473E
:102180000028F7D1E1690D988847DBE7A1690D9830
:102190008847A842074601D1761CD3E7E1690D982C
:1021A00088477F1C02D1BAF1000F6FD06BE16269E2
:1021B0000B9800273D46394690472A2804D162698A
:1021C0000B98012190470125DFF8D08262690B98B6
:1021D00001219047A0F130010A290AD24745E5DCE8
:1021E00007EB870100EB4107303FDFD445F01005D6
:1021F000ECE7E90601D46FF000476C280AD04C28C0
:1022000014D0682815D06A280DD074281CD07A28DC
:102210001AD01DE062690B98012190476C2802D00A
:1022200045F0040514E045F002050DE045F02005F9
:102230000AE062690B9801219047682802D045F0B6
:10224000080505E045F4006562690B980121904797
:10225000C4E9015765283DD019DC58287AD00CDC38
:10226000452837D004DC252826D041289ED131E0EE
:1022700046282FD0472899D12CE05B2877D06128B9
:1022800028D063287CD0642823D15AE0F6E06F2858
:1022900048D008DC66281DD067281BD0692821D0CB
:1022A0006E2816D127E0702845D0732868D075288D
:1022B00047D078280DD14DE0A1690D988847252891
:1022C00005463FF469AFE1690D9888476D1C3FF4FE
:1022D0006AAFD8E00D9923466A466FF001000DF011
:1022E00007FEC5E045F0400023464FF00002606065
:1022F000A80736D43EE0E8077FF447AF2068011D09
:1023000021600068290501D506701BE7290701D562
:10231000068017E7A90703D5F117C0E9006111E7A7
:1023200006600FE745F0400023464FF0080260606A
:10233000A80716D41EE040F60E0125EA01006060F1
:1023400016E045F0400023464FF00A026060A807FF
:1023500007D40FE045F040006060A80708D5234689
:1023600010220D996FF00100FEF706FA80E007E0F9
:10237000102223460D996FF00100FEF7A8FA77E0CE
:102380004FF0000963284F46C8464B46CB4602D063
:102390005B2806D038E0E80601D40120A0600127C0
:1023A00032E06269D4F80CB00B98012190475E28A6
:1023B00007D14FF0010949466269D4F80CB00B9877
:1023C0009047216939B900210A4603AB43F821201F
:1023D000491C0829FADBD8B3216949B308F101087F
:1023E00062690B98012190475D28F4D1B9F1000F83
:1023F00009D0002003A951F82020D24341F8202021
:10240000401C0828F7DB03AB2069002820794FEA3D
:1024100040701ED05B462246CDF80080CDE9019782
:102420000D9900286FF0010020DAAFF300801FE063
:10243000C11703AA00EBD1614B1121F01F0102EB80
:102440008302411A13680120884003431360C7E7E1
:1024500019E00D99224600286FF00100009702DA7A
:10246000AFF3008004E0FEF7D8FA01E0AFF300809C
:1024700000280ADA401C06D10C9820B14FF0FF303A
:102480000FB0BDE8F08F5046FAE7E90701D10AF135
:10249000010A064400200C9054E60000CCCCCC0C81
:1024A0002DE9F047814616468AB0354878440DC874
:1024B0008DE80D0032487844801C03AC0DC884E8D8
:1024C0000D0041F69B300844372190FBF1F290FB60
:1024D000F1F5A5F1800501FB12041B3C02D5644215
:1024E000012000E00020DFF898A080460027FA4491
:1024F000AAF1BE0A0EE0E0070AD03246684607EBB2
:10250000470101230AEB81010CF0E4FB8DE8070091
:1025100064107F1C002CEED1194F7F44AE3F19E0B0
:10252000E80715D007EB04100DF1180A90E80E002B
:102530008AE80E00C068F04201D19819089032462E
:10254000012306A903A80CF0C5FB03AB83E8070031
:102550006D10641C002DE3D14FF001033246694633
:10256000B8F1000F03A802D00CF08AFB01E00CF0D8
:10257000B1FBC9E90001C9F808200AB0BDE8F0873D
:1025800084DB00002DE9F04116460C46054600F0BC
:1025900065F8036893F80101012807D0FF2C12D8D1
:1025A000185D80B101202C70BDE8F081D3F80701DF
:1025B0003246214603F20713C7182846BC46BDE839
:1025C000F041002360474FF0FF30EDE730B50346A0
:1025D0001D781DB10A4603E0AC4201D1181A30BD86
:1025E00012F8014B002CF7D15B1CF1E730B5034624
:1025F0001D783DB10A4612F8014B1CB1AC42FAD12C
:102600005B1CF5E7181A30BD0048704760000020D9
:1026100070477546FFF7F8FFAE460500694653461A
:1026200020F00700854618B020B5FDF765FEBDE82F
:1026300020404FF000064FF000074FF000084FF029
:10264000000BAC46ACE8C009ACE8C009ACE8C00976
:10265000ACE8C00921F007018D46704710B5FFF7BF
:102660001FFB001D10BD00BFB1D100000346406834
:102670008C46002818BF88423CBF03464068F8D308
:1026800018681844884207D00CF1030020F00700B6
:10269000001D411A521A0146081D0A60FEF7CCBB04
:1026A0002DE9FF4F1F464FF03C0987B04FF0004225
:1026B000DDE9141001F10108DDF858A002EA4050EC
:1026C0000390002005908346054604460490B969AE
:1026D000461E08988847AAF1010A0290BAF1000F35
:1026E0003BDD02982E2815D01021FEF7EDFF0028C3
:1026F0002EDB4FF0010B0599014317D0B9F1000F04
:102700000BDB4A46C117FFF721FB05430C43A9F138
:10271000040905E0012004900BE008B145F0010533
:1027200001200590049820B9361D02E0049800B1FC
:10273000361FB969089808F101088847BBF1000FF6
:10274000AAF1010A0290C9D00999C1F80080C5E731
:102750000298702808D0502806D0F9690898884750
:10276000BBF1000F14D04FE0002002900120BBF11C
:10277000000F049009D0B969089808F1010888474A
:10278000AAF10109B9F1000F07DCF9690898884737
:102790006FF001000BB0BDE8F08F2B2804D02D287E
:1027A0000CD14FF0FF300490B969089808F1010886
:1027B0008847A9F10109B9F1000FE6DD411CE4D019
:1027C0000A21FEF781FF0028DFDB029908F10108EA
:1027D00001EB810100EB41000290B969089888473C
:1027E0000A21FEF771FF099AA9F10109B9F1000F59
:1027F000C2F8008001DD0028E7DAF9690898884707
:102800000499029800FB016655EA040004D004F024
:102810004041090002D006E0039898E0A40044EA91
:102820009574AD00B61E04F00041080002D16D1988
:102830006441761E159810F0240F03D04FF00B0959
:102840005C4803E04FF028096FF07D008246564552
:1028500007DAAAEB06018944B9F1410F01DD4FF017
:10286000410901200021A9F10102FFF76FFA024698
:1028700028400B462140084301D0012100E00021FF
:10288000501E029143F1FF3128402140084301D0FE
:10289000012000E000200299834651EA0B014FD04D
:1028A000002108464FF00000039900F4400039B1C0
:1028B00000EB80004FF4400100EBD07001EA6000B3
:1028C0008015012802DD4FF0FF3000E013D0401CDE
:1028D00036D0029860B3BBF1000F0CD14A460120FC
:1028E0000021FFF733FA28402140084301D001209E
:1028F00000E00020E0B101204A460021FFF726FA5F
:10290000034640190A4661412D1A8C4111D3B9F191
:10291000400F09DD159810F0240F02D0AAF13406FB
:1029200003E0AAF1170600E0761C00254FF00044F2
:1029300006E05B1E42F1FF3220EA030521EA0204B1
:10294000CAF10100B04206DA1B490398084301901E
:10295000002000900EE0039AC4F3D321E80A0A4352
:10296000164940EA44500A433146CDE90002684620
:102970000CF0C2FE159810F0240F0BD01598C0076C
:1029800015D13868DDE90012031D3B600068C0E91D
:1029900000120CE002A869460CF0FAFD1598C00779
:1029A00005D13868029A011D39600068026040460E
:1029B000F0E6000002FCFFFF0000F07F0000F03FA7
:1029C0002DE9FF4F92461D4685B04FF00041DDE9ED
:1029D000124BDDE914727F1E01EA4B50414940F071
:1029E000FF4940EA0108002122F020004928049113
:1029F00002D04E2828D04CE03BA0012607C88DE825
:102A00000700A9690698641C88477F1E014606D402
:102A10001DF8060018B121F0200181420BD0E969B0
:102A200006988847032E34D0082E32D06FF001006C
:102A300009B0BDE8F08F761C032E01D0082EE0D13E
:102A4000601CCAF80000DCE7A9690698641C884786
:102A50007F1E2AD420F02000412826D1A96906989B
:102A6000641C88477F1E20D420F020004E281CD1F3
:102A7000A9690698641C88477F1E48F4002849F419
:102A80008009CAF8004001D4282806D0E9690698D0
:102A900088475FEACB7012D022E0A9690698641CCF
:102AA00088477F1E01D4002803DAE9690698884721
:102AB000BCE72928F1D1641CCAF80040E9E71BF003
:102AC000240F07D028680499031D2B600068C0E913
:102AD000001805E02868021D2A600068C0F8009010
:102AE0002046A5E70000F07F494E46494E4954591B
:102AF0000000000010B50446AFF300802046BDE89A
:102B00001040FDF7E4BB002801D0FFF7BFB87047C5
:102B100010B500F01DF8BDE81040FFF7F4BF70B528
:102B200005460C460A2000E06D1C00F039F835B16E
:102B300028780028F8D102E0641C00F031F814B1C4
:102B400020780028F8D1BDE870400A2000F028B8AD
:102B500010B5012805D0002103A0FFF7E0FF0120F8
:102B600010BD09A1F8E7000053494752544D454DA7
:102B70003A204F7574206F662068656170206D651E
:102B80006D6F7279000000003A2048656170206D19
:102B9000656D6F727920636F727275707465640011
:102BA00008B569468DF800000320ABBE08BD0000E3
:102BB00080B50146806B036C026C13F0500F06D099
:102BC000D2060FD4806BC26C0846904780BD42F499
:102BD0000071016401688A6812F0405F05D000F05E
:102BE00015FA80BD00F016FA80BD027E002AF6D1EB
:102BF000CA6A12F4700F02D08A685205EFD44A688C
:102C000022F020024A60016C21F480710164016CA1
:102C1000C904E4D4016C41F00101016400F0F6F94B
:102C200080BD000080B5806B40210164416C41F0A3
:102C30000401416400F0EEF980BD000080B5806BB6
:102C400000F0E6F980BD000010B542F20432C4F293
:102C50000102116821F440311160D2F800C090E8FF
:102C60000A4043EA0C03C46813604A6822F4807285
:102C70004A6002694B6843EA02224A604A6822F0CD
:102C800040724A604A6842EA0E024A608A6822F448
:102C900000628A608A6822438A60826A8B680124A3
:102CA00023F070638B608B68C0F60074A24202D17F
:102CB00023F0405208E01A438A608A6822F04052AA
:102CC0008A60C26A8B681A438A608A6822F00202AC
:102CD0008A608A68037E90F8204042EA43028A6054
:102CE0004A6884B142F400624A604A684EF20003C6
:102CF00022F460424A60426ACFF6FF734C6803EBED
:102D00004232224301E022F400624A60CA6A40F281
:102D1000000C22F47002CA62C3694269CFF6F07CEB
:102D2000CC6A0CEB03532343CB628B6823F4007310
:102D30008B6090F830008B6843EA40208860886898
:102D400020F480608860886840EA8220886010BD36
:102D5000FEE7000080B540F21040C2F2000000F033
:102D600009FD80BD80B588B00A460021CDE9041177
:102D700002900820069040F210408DF81C10C2F21C
:102D8000000002A901AB00F0A5FB002818BF00F06D
:102D9000B5F808B080BD0000B0B58AB003200121AD
:102DA0000022012400250AF08FFC40F67851C2F27F
:102DB0000001CDE90255CDE90055CDE90445CDE945
:102DC0000654089440F2104408600E20C2F2000439
:102DD00009906946204600F0C7FB204600F0E2FE5D
:102DE000002818BF00F08AF840F21040C2F200003C
:102DF000102100F05BFB0AB0B0BD000080B540F2CE
:102E00009840C2F2000000F061FF80BD80B540F242
:102E10005850C2F2000000F059FF80BD80B540F26A
:102E2000F840C2F2000000F051FF80BD80B540F2D2
:102E30003840C2F2000000F049FF80BDD0F800C069
:102E40006FF00F024AF6AB2352FA8CF2CAF6AA23AD
:102E50000146A2FB0330000905A31B5C40F2FF30D2
:102E60002CEA00005F2A88BF0430C1E916037047CE
:102E700000061016000610168269816AB2F5005F1E
:102E800006D06AB9022912D0012914D0D1B90EE0B6
:102E9000032917D8DFE801F0020B020F0120704769
:102EA00003293CBF012070471CBF00207047C06A47
:102EB000C0F300607047C06AA0F1C070B0FA80F043
:102EC000400970470020704780B5D0F800C0D0F8A6
:102ED00008E0DCF80000BEF1400F20F48020CCF8C0
:102EE00000000846CCF8043004BF10460A46CCF86F
:102EF0000800CCF80C2080BD7047000072B600BFFF
:102F0000FEE7000070B581B00022009290F83C20EE
:102F1000012A01D1022156E00E6801221FFA86FC27
:102F200080F83C204FEA4C0212FA86F302680A2E1F
:102F300032BF10321E3B0C324FF0070E15680EFAEE
:102F400003F4A54315608D68146805FA03F3234361
:102F500013604968062906D8026801EB810105392A
:102F600002F134030AE00C2901EB8101026887BFFA
:102F7000413902F12C03233902F130031F221C686E
:102F80008A4024EA02021A601A680CFA01F111431D
:102F900042F2043E1960C4F2010E0168122EAEF531
:102FA000417208BF914205D1DEF8003043F480033E
:102FB000CEF8003026F00103102B08BF914205D057
:102FC000002180F83C10084601B070BDDEF800100A
:102FD000102E41F40001CEF80010F1D140F20401AE
:102FE000C2F2000109684DF68362C4F21B32A1FBF4
:102FF0000212910C01EB8101490000BF0091009980
:103000000029DDD000990139F8E700007047000081
:1030100070470000704700000068C06C70470000F7
:10302000B0B510B30446006C30B9204600F020F86B
:103030000020606484F83C00206C0125C0060FD499
:10304000206C41F202118843023020642046FFF7D1
:10305000FBFD00206064206C65F301000025206406
:10306000002084F83C002846B0BD0120B0BD00001F
:1030700070B586B004460020CDE90400CDE9020019
:10308000216842F20012C4F20102914201904BD039
:1030900042F20000C4F20100814268D1002643F6EA
:1030A00030050096C4F20205686901A940F48070F9
:1030B0006861686900F48070009000980096286844
:1030C00040F004002860286800F004000090009898
:1030D000072001900320CDE902060020C4F202007F
:1030E00000F5006000F052FF05F5315040F2384520
:1030F000C2F200054FF48061C5E9000605F1100039
:103100004FF400624FF40053C5E902664EC02846F2
:10311000C5E9086600F0A0FE002818BFFFF7EEFE24
:10312000A563AC6306B070BD43F630010090C4F2F5
:1031300002014A6942F400724A614A6902F400726B
:103140000092009A00900A6842F001020A60096841
:1031500001F0010100910099022101910321CDE9C3
:1031600002100020C4F2020001A900F00FFF06B017
:1031700070BD0000F0B581B0044600680D4682685D
:10318000520544BF80685FEAC0502BD400F0D8FFDE
:1031900021680A68920715D406466F1C08E000BF34
:1031A00020680068800727D521680868800709D44F
:1031B000002FF9D0002DF3D000F0C2FF801BA842F1
:1031C000EED8F1E76FF012000860206C40F4007058
:1031D0002064886810F0405F01D1207EB0B10020EB
:1031E00001B0F0BD206C40F020002064002084F885
:1031F0003C00012001B0F0BD206C40F004002064D0
:10320000002084F83C00032001B0F0BDC86A10F42F
:10321000700F02D088684005E1D4206C20F48070E3
:103220002064206CC004DAD4206C40F001002064DB
:10323000D5E7000081B00021009190F83C100129F1
:1032400002BF022001B070470122016880F83C20D3
:103250008A68D20718D18A684DF6836342F001026A
:103260008A6040F20402C2F200021268C4F21B3308
:10327000A2FB03239A0C02EB420200BF0092009AC9
:1032800012B1009A013AF9E78B68026CDB0707D1AB
:1032900042F010010164416C41F00101416450E0D1
:1032A00040F201739A4302F5807202644A68520543
:1032B00004D5026C012363F30D320264026C002317
:1032C0004FF0000CD20444BF426C22F0060342F2DD
:1032D0000432436480F83CC06FF02200C4F2010263
:1032E00008601068C006A2F541700AD0814228D15A
:1032F0004FF60450CFF6FF70105810F0405F20D109
:103300001BE0814215D042F20020C4F2010081424C
:103310000CD042F20010C4F20100814211D11068B9
:10332000C00606D0A2F5827081420AD11068C0069C
:1033300007D4886810F0405F03D1886840F080406F
:103340008860002001B0704770B582B0044600204C
:10335000019094F83C00012802D1022002B070BD17
:1033600013460A460120216884F83C008868C0079B
:1033700018D188684DF6836540F00100886040F2FE
:103380000400C2F200000068C4F21B35A0FB050572
:10339000A80C00EB400000BF0190019810B101980B
:1033A0000138F9E78868C00503D5886820F4807083
:1033B00088608D68206CED0707D140F01000206414
:1033C000606C40F0010060646CE040F20175A8435D
:1033D00000F5807020644868400504D5206C012504
:1033E00065F30D302064256C0020ED044FF00005DE
:1033F00044BF656C25F00605656484F83C00A06B4D
:1034000042F6B13542F63D4CC0F60005C0F6000C60
:10341000C0E90F5C42F62545C0F60005C5646FF0B3
:1034200022050D604D6842F2043645F080654D601E
:103430008D68C4F2010645F480758D604C3100F052
:1034400073FD31682068C906A6F541710AD088422B
:1034500028D14FF60451CFF6FF71715811F0405F3B
:1034600020D11BE0884215D042F20021C4F20101B4
:1034700088420CD042F20011C4F20101884211D1FD
:103480003168C90606D0A6F5827188420AD1316832
:10349000C90607D4816811F0405F03D1816841F00B
:1034A00080418160002002B070BD000090F82020B3
:1034B000013A012A04D8006800F11402002004E057
:1034C00000F1240201204FF4802113681943116098
:1034D0007047000010B590F820E0D0F800C0AEF1C1
:1034E000010EBEF1010FDCF808E00ED81EF0E05F1F
:1034F00011D0CEF3016E012000FA0EF018608B6837
:103500007BB1486843EAC0030DE000F124010120CB
:103510004FF4802223E000F1240101204FF4001237
:103520001DE008684305D1E9030403430CEB0E10CA
:10353000C0F88031C0F88441097D012905D100F52A
:10354000C2710B6843F480730B605168C0F88C1132
:10355000126800F5C071C0F88821002001220B68B4
:103560001A430A6010BD0000B0B590F82020013A5F
:10357000012A2FD846F20060C4F20000026842F02F
:1035800001020260026822F47C520260D1F814E069
:10359000CC694A6A0368012C43EA022202600EF0F9
:1035A0001F024FF0010303FA02F2C3696FEA020C33
:1035B00023EA0203C36113D02CBBC36803EA0C03E4
:1035C000C360CB688C8844EA034300EBCE042364D9
:1035D0000B4611E0416A41F4802141620120B0BDF7
:1035E000C3681343C3600B688C8844EA034300EB51
:1035F000CE04236401F10C038C681B8843EA044366
:1036000000EBCE04636443688D6943EA0204D1F899
:1036100010E0096A002D08BF03EA0C044460436906
:10362000BEF1000F43EA020408BF03EA0C040129BB
:10363000446102D1C1691143C161016821F00101F6
:1036400001600020B0BD00007047000010B590F888
:103650002040013C012C0CD8D0F800C079B1DCF836
:103660001040A4070FD100F1240101204FF40012F3
:1036700076E000F1240101204FF4802270E0DCF8B4
:103680000C40A40770D00CEB011CDCF8B0410CF529
:10369000D87E14F004049460DCF8B04119BFE4084B
:1036A0005460640D1460DEF800400CF5DA7E04F01E
:1036B0000204D460DCF8B44124075ABFDEF80040AD
:1036C00004F00F0408241461DEF800400029C4F35C
:1036D00007249461DEF800404FEA14445461DCF89A
:1036E000B8211A70026802EB0112D2F8B8214FEA31
:1036F00012225A70026802EB0112D2F8B8214FEA86
:1037000012429A70026802EB0112D2F8B8214FEA15
:103710001262DA70026802EB0112D2F8BC211A714F
:10372000026802EB0112D2F8BC214FEA12225A7150
:10373000026802EB0112D2F8BC214FEA12429A71E0
:10374000026802EB0112D2F8BC214FEA1262DA7170
:10375000006814BF00F1100100F10C0100202022CC
:103760000B681A430A6010BD00F1240101204FF4D8
:103770000012F5E72DE9F04F81B004460068466974
:10378000D0F804908768D0F80CB0D0F810A0D0F82A
:103790001880F10703D1002530071CD423E0F90776
:1037A00010D00121BA07816009D4780700F1AA80FE
:1037B000380700F1B080204600F022FA02E02046EF
:1037C00000F020FA0025F80500F18480F80300F1EC
:1037D000AA80300707D51BF0100004D0206845F4FC
:1037E00000751021C160700708D51BF0080005D0D6
:1037F00020680821C160204600F09CF9B00706D57A
:103800002068C068800702D0204600F095F9700655
:1038100007D51AF0100004D0206845F48065102107
:103820000161B00608D51AF0080005D0206808210B
:103830000161204600F082F9F00606D52068006993
:10384000800702D0204600F07BF9B00308D519F0BC
:10385000100005D0206810214160204600F0A0F93A
:10386000F00308D519F0080005D020680821416050
:10387000204600F0D1F9300440F18F805FEA4970B2
:1038800040F1888006F4807008EA102028435FEA3F
:103890008871014648BF41F00201B20558BF014698
:1038A0005FEA48700D4648BF45F00405700558BFF3
:1038B0000D4630056ED518F070006BD01038000939
:1038C000052862D8DFE800F0035356595C5F45F0E5
:1038D00008055AE020684FF48071BA0581600AD467
:1038E000780512D4380519D4204600F08DF9F80374
:1038F0007FF56FAF17E0204600F088F9F8037FF5F9
:1039000068AF10E04FF400655DE705F50055F8037A
:103910007FF55FAF07E04FF4805554E705F580452C
:10392000F8037FF556AF20684FF48031BA03816009
:103930000AD478030FD4380313D4204600F068F972
:1039400030073FF548AF4EE7204600F063F93007F7
:103950003FF541AF47E705F5004530073FF53BAF81
:1039600041E705F5803530073FF535AF3BE745F0DA
:1039700010050AE045F0200507E045F0400504E0A9
:1039800045F0800501E045F480752068816921F0EB
:10399000700181612068042141602DB1606A284373
:1039A00060622046FFF750FE01B0BDE8F08F0000D6
:1039B000B0B5C8B1044690F8200010B9204600F018
:1039C00077F82068016841F00101016000F0B8FB60
:1039D000054600BF20684168C90707D100F0B0FB69
:1039E000401B0B28F6D312E00120B0BD016821F086
:1039F0000201016000F0A4FB054600BF2068416899
:103A000089070DD500F09CFB401B0B28F6D3606A9C
:103A1000052140F400306062012084F82010B0BD20
:103A2000217E0268012922F0800308BF42F0800352
:103A30000360617E0268012922F0400308BF42F062
:103A400040030360A17E0268012922F0200308BF21
:103A500042F020030360E17E0268012942F0100376
:103A600008BF22F010030360217F0268012922F0C1
:103A7000080308BF42F008030360617F0268012960
:103A800022F0040308BF42F004030360D4E901C23A
:103A9000D4E9033561691A432A431143ACF10102A9
:103AA0001143C16100200121606284F82010B0BD83
:103AB00080B586B000220592CDE9032246F200418E
:103AC0000068C4F2000188420292019201D006B05F
:103AD00080BD43F630000092C4F20200036943F057
:103AE00000730361036903F000730093009B00926D
:103AF000036843F001030360006800F001000090D8
:103B000000984FF4C05001900220CDE9020203203A
:103B100004900920059001F5CE3001A900F036FA95
:103B200015200521002200F027FF152000F020FFBE
:103B300006B080BD7047000070470000704700006D
:103B400010B58EB0016846F20042C4F20002914204
:103B500001D00EB010BD05AA0CAB0121FFF776FD18
:103B60000028F6D107980428F3D10698DDE9081358
:103B70000090002918BF01218DF804106C46002127
:103B8000DAB28DF8053004F10800CDE902110CA974
:103B9000FDF75CF8204602F0CDFF0EB010BD00002E
:103BA00070470000B0B5044690F8200001281DD1F0
:103BB000022084F820002068016821F001010160E2
:103BC00000F0BEFA054600BF20684068C00713D069
:103BD00000F0B6FA401B0B28F6D3606A40F40030C0
:103BE0006062052084F820000120B0BD606A40F4C6
:103BF000002060620120B0BD00206062B0BD000006
:103C000070470000704700007047000070470000D8
:103C100070470000704700007047000070B5866D67
:103C2000044600F08DFA94F83510022925D1054696
:103C30002068216C026822F016020260426922F0BC
:103C40008002426109B9A16C19B1016821F0080133
:103C50000160016821F00101016000BF2068006877
:103C6000C0070ED000F06CFA401B0628F6D32020C7
:103C70006065032084F835000CE080206065012039
:103C800008E0E06D3F2101FA00F0B060012084F807
:103C900035000020002184F8341070BD90F83510F4
:103CA000022909D1052180F835100068016821F04A
:103CB00001010160002070478021416501207047AB
:103CC000406D704790F8350070470000F0B581B046
:103CD00004460020009040F20400C2F20000026896
:103CE000D4E9166048F2B51337680821C1F64E339F
:103CF00081403942A2FB03250CD0226813685B0780
:103D000008D5136823F004031360B160616D41F0BE
:103D10000101616501218140394208D02268526960
:103D2000120604D5B160616D41F0020161650421A4
:103D30008140394208D022681268920704D5B160E8
:103D4000616D41F00401616510218140394215D057
:103D500020680268120711D5B16002680168520339
:103D600006D4C90506D4016821F00801016001E00C
:103D7000080342D4216C09B120468847E16D202018
:103D800000FA01F23A4244D020680368DB0640D5CD
:103D9000B26094F835300268052B1ED122F016026D
:103DA0000260426922F080024261226C0AB9A26C70
:103DB0001AB1026822F0080202603F208840B06019
:103DC000012084F83500216D0020002984F834009A
:103DD00040D02046884701B0F0BD0168520310D49E
:103DE000C90512D4016821F010010160012084F896
:103DF0003500002084F8340007E0A16C0029BBD115
:103E0000BCE7080301D4616C00E0E16B09B1204616
:103E10008847606DF0B1606DC00717D0052084F849
:103E200035002068A90A026822F00102026000BF82
:103E3000009A01328A42009202D80268D207F7D172
:103E4000012084F83500002084F83400E16C09B1C9
:103E50002046884701B0F0BD2DE9F041044600F04E
:103E60006FF9C4B10546022084F8350000202168AE
:103E700084F83400086820F0010008602668306883
:103E8000C0070BD000F05CF9401B0528F6D90321D0
:103E90002022032042E00120BDE8F081306848F292
:103EA0003F01CFF21001251D00EA010C2ECDD4E90F
:103EB000050E41EA0C01114319432943D4E907785F
:103EC000084340EA0E01606A3943042841EA0801C8
:103ED00003D1D4E90B2311431943316071690428DC
:103EE00021F0070141EA00050CD1D4E90A1045EAA6
:103EF000010538B12046FEF7BFFF18B1012140226D
:103F000001200BE020467561FEF798FFE16D3F222E
:103F100002FA01F18160002201210020626584F82B
:103F20003510BDE8F0810000B0B5044690F83400CB
:103F3000012828D0012084F83400A56D94F83500BC
:103F400001281DD1022084F835000020606520463C
:103F5000FEF7BAFFE26D3F23206803FA02F2216CFC
:103F6000AA60026842F01602026019B1016841F0CD
:103F700008010160016841F0010101600020B0BD4D
:103F8000002084F834000220B0BD00002DE9F04F7D
:103F900083B000F13E4202F1FF724FEAB22241F6D5
:103FA00000470192C4F2020708224FF0010E0025DB
:103FB0004FF0000A4FF00008B84208BF07220092F5
:103FC0000AE000BF08F101080AF1040AB8F1100F75
:103FD00005F1020500F0A4800C680EFA08FB14EA53
:103FE0000B09EFD04C6804F0030CACF1010EBEF1EC
:103FF000010F11D80322876802FA05F6CA68B74391
:10400000AA403A4382604268C4F3001722EA0B02D6
:1040100007FA08F73A434260BCF1030F1CD0C268AC
:1040200003238E6803FA05F7BA4306FA05F73A4305
:10403000BCF1020FC2600FD16FF0030202EA580216
:1040400002440AF01C060F23176A03FA06F40B69F0
:10405000A743B3403B431362026803234F68AB405E
:104060009A4307F00303AB401A4317F4403F4FF065
:10407000010E0260A6D0002243F644030292C4F26D
:1040800002031A6843F6004442F480421A601A6838
:10409000C4F2010402F480420292029A28F0030260
:1040A0004FF6084B2244CFF6FF7B52F80B300AF054
:1040B0000C070F26BE4023EA060C019B009E072B2F
:1040C00038BF1E4606FA07F747EA0C0342F80B30E2
:1040D000A2684B6842EA090743F60C4CDE0258BF5F
:1040E00022EA0907A760C4F2010CDCF800209E0256
:1040F00042EA090758BF22EA0907CCF80070626853
:104100009E0342EA090758BF22EA0907676022684E
:10411000DB0342EA090358BF22EA0903236051E79F
:1041200003B0BDE8F08F00000069084018BF01200F
:1041300070470000002A08BF090481617047000031
:1041400045F6F050C2F200000068704770B5B0B399
:10415000044690F83D0028B9002084F83C00204631
:1041600000F028FB242084F83D002068016821F03D
:1041700001010160016841F400410160016821F41E
:104180000041016000F0E2FC48F28041C0F21E01F3
:1041900040F60012666888424FF00001C0F23D020E
:1041A00048F2A16C4FF0000338BF01219042C0F2E9
:1041B000010C38BF0123664538BF0B460BB1012007
:1041C00070BD4DF68361C4F21B31A0FB0112216862
:1041D000930C4D68664525F03F0545EA92424A60DA
:1041E0000A6A22F03F0C09D34FF496725A4344F600
:1041F000D353C1F26203A2FB03239B095A1C42EA78
:104200000C020A6248F2A063CA69C0F201039E422E
:104210004CF6FF7322EA030C0AD801387200B0FB97
:10422000F2F001306FF31F30042898BF04202BE018
:10423000A368A0F1010E9BB119207043BEFBF0F002
:104240000422013062F31F30000512D09BB1192007
:104250007043BEFBF0F00422013062F31F3011E026
:1042600006EB4600BEFBF0F001306FF31F30000597
:10427000ECD1012008E006EB4600BEFBF0F0013077
:104280006FF31F3040F4004040EA0C00C86108683A
:10429000D4E9072320F0C000104318430860886861
:1042A00048F2FF3204F10C0690434CCE1843104301
:1042B000A5698860C86820F0FF0030432843C860C3
:1042C000086840F00100086000202021206484F884
:1042D0003D10206384F83E0070BD00002DE9F04FD2
:1042E00083B01E4691460F460446FFF729FF94F817
:1042F0003D1020290CD102210546C0F210012046B4
:1043000001221923009502F095FA30B1022700E04E
:104310000227384603B0BDE8F08F94F83C0001282E
:1043200001D10227F5E70121206884F83C100168DB
:10433000C90703D1016841F00101016001684FF034
:10434000000A21F400610160242084F83D0000206F
:10435000CFF6FF7007F0FE0B4FF0A0080127C4F85E
:1043600040A0E062206800220168334641F4807179
:10437000016020464FF00111009502F05BFA2168C0
:10438000002850D1C1F810B0FFF7DAFE22680546C8
:104390005169526994F83D30A02B1ED002F4806020
:1043A00001F00201401818D1FFF7CAFE36B1401BD8
:1043B000B04288BF84F83D8002E000BF84F83D80B1
:1043C00021684869496994F83D20A02A05D001F484
:1043D000806100F002004018E6D0202084F83D0003
:1043E000206841690268890742F40072026022D4A1
:1043F0006FF48061416102212046C0F21001012268
:104400001923009502F016FA00287FF482AF0AF112
:10441000010ACA45A6D3202084F83D0000200127C8
:1044200084F83C0075E708680327C00544BF4FF4D3
:10443000007020646DE70026029641690122029116
:1044400080690221029002982046C0F210011923CF
:104450000095012702F0EEF900287FF45AAF2020E2
:1044600084F83D0084F83C60002752E72DE9F043D2
:1044700083B01F4616460D460446FFF761FE94F8CA
:104480003D1020290FD102218146C0F210012046A3
:1044900001221923CDF8009002F0CCF918B994F854
:1044A0003C00012803D1022003B0BDE8F0830121C4
:1044B000226884F83C101368DDE90B080A99DB07D1
:1044C00003D1136843F001031360136823F40063FE
:1044D0001360222284F83D20402284F83E200022EE
:1044E000226461626085608D294620850020CFF6B8
:1044F000FF70E062204632463B46CDF80080CDF8A2
:10450000049002F07BF818B1012003B0BDE8F083FD
:10451000208D022806D0012810D000BB0020029078
:10452000206812E02068016821F480610160016860
:1045300041F4006101600021029113E020680168EC
:1045400021F4806101600021029141690291816939
:1045500002910299016841F40071016007E00020B6
:104560000290206841690291806902900298258D2D
:10457000002D7DD00427C0F201070DE0096901700C
:10458000606A218D01306062481E2085608D01388F
:104590006085258D002D6BD02046032D0CD8012D74
:1045A00029D141464A4602F0E9F90028ACD12068F9
:1045B000616A00690870E3E741464A4602F0DEF9A5
:1045C0000028A1D12068616A00690870606A228DA4
:1045D0000130013A606222852168638D013B638569
:1045E0004B695B07D5D592B2032AC7D10A6822F47A
:1045F00080620A60C2E7394600224346CDF8009047
:1046000002F018F9022D1BD000287FF47DAF20683E
:10461000616A0268434622F48062026000690022F7
:104620000870606A218D01306062481E2085608DAF
:104630003946013860852046CDF8009002F0FAF83E
:1046400000287FF461AF2068616A026842F400725A
:10465000026000690870606A411C6162218D2268F5
:1046600001392185618D013961851169417087E7C3
:10467000202084F83D00002084F83E0084F83C00AF
:1046800003B0BDE8F08300002DE9F04383B0994604
:1046900016460F460446FFF753FD94F83D102029B7
:1046A0000ED102210546C0F2100120460122192335
:1046B000009502F0BFF818B994F83C00012803D126
:1046C000022003B0BDE8F0830121226884F83C1089
:1046D0001368DDE90B080A99DB0703D1136843F07F
:1046E00001031360136823F400631360212284F82C
:1046F0003D20402284F83E200022226461626085D1
:10470000608D394620850020CFF6FF70E06220469C
:1047100032464B46CDF80080019501F0F5FF30B3ED
:10472000012003B0BDE8F083204641462A4602F04E
:1047300061F928BB606A2168034613F8012B0A61FE
:10474000228D6362571E2785638D3F04A3F1010309
:1047500063854B6918BF13F0040308D04378023017
:104760000B616062901E2085608D01386085208D10
:104770000028D9D1204641462A4602F025F840B10A
:10478000206C0428CCD12068016841F400710160DC
:10479000C6E72068016841F400710160202084F8B8
:1047A0003D00002084F83E0084F83C0003B0BDE8E2
:1047B000F0830000B0B586B000240594CDE9034431
:1047C00045F600010068C4F2000188420294019499
:1047D00001D006B0B0BD43F630050094C4F2020526
:1047E000286840F002002860286800F0020000906D
:1047F00000984FF4406001901220CDE9020403209C
:1048000004900420059001F5D63001A9FFF7BEFB06
:104810000094286940F480002861286900F4800031
:104820000090009806B0B0BD40F2500045F6F0513F
:10483000C2F20000C2F2000100780A681044086069
:104840007047000080B543F60040C4F202000168E2
:1048500041F400710160016841F480610160016808
:1048600041F480710160032000F096F80F2000F001
:1048700005F800F059F8002080BD000070B586B042
:10488000002543F640010195C4F202010A6804467E
:1048900042F001020A60096801A801F001010191DA
:1048A0000199694600F02CF9049E002E18BF0126DC
:1048B00000F04CF94DF68361B040C4F21B31A0FB0F
:1048C00001014FF0FF3000EB914140F2AC60C2F2C9
:1048D00000004FF0804240F2E733C0E90021C0E918
:1048E00002530561856100F079FF0546C0B940F2C9
:1048F000AC60C2F2000000F0C3FF054680B91C2086
:1049000000F036F80F2C0AD81C202146002200F0B7
:1049100033F840F25400C2F20000046000E00125C8
:10492000284606B070BD000080B582B0002043F676
:1049300040010190C4F202014A6842F480424A6098
:104940004A6802F480420192019A009008680022AD
:1049500040F08050086008680F2100F080500090FF
:1049600000986FF0010000F007F802B080BD000071
:1049700080B506F093FD80BD70B514460D46064621
:1049800006F09CFD2946224602F06EF801463046AC
:1049900006F09CFD70BD000080B506F0B1FD80BD45
:1049A0002DE9F041002800F08B8043F60808C4F29E
:1049B00002080446D8F8F8030D4600F007008842C4
:1049C00007D288F8F853D8F8F80300F00700A84297
:1049D00076D12068810717D5410705D5D8F8001092
:1049E00041F4E051C8F80010010705D5D8F80010CF
:1049F00041F46041C8F80010D8F80010A26821F016
:104A0000F0011143C8F80010C0073FD1D8F8F803EF
:104A100000F00700A84207D988F8F853D8F8F8033F
:104A200000F00700A8424BD12068410707D5D8F80D
:104A30000010E26821F4E0511143C8F800100007AB
:104A400008D5D8F80000216920F4604040EAC10090
:104A5000C8F8000000F09EF8D8F8001040F24C02B0
:104A6000C1F30311C0F60102515C40F2040220FAC6
:104A700001F140F25400C2F200000068C2F20002EC
:104A80001160FFF7FBFE0020BDE8F0816068811E29
:104A9000022907D258F8081C89015CBF0120BDE833
:104AA000F08110E0012807D158F8081C89035CBF89
:104AB0000120BDE8F08106E058F8081C890702D4FF
:104AC0000120BDE8F081D8F8001021F0030108436F
:104AD000C8F80000FFF734FB064641F2883700BFF4
:104AE000D8F80000616800F00C00B0EB810F8DD0A9
:104AF000FFF726FB801BB842F2D90320BDE8F08106
:104B00000F22026043F60802C4F20202136803F0A7
:104B100003034360136803F0F0038360136803F436
:104B2000E053C360D2F800C04FF4E05303EADC0363
:104B30000361D2F8F80300F0070008607047000036
:104B400040F20400C2F200000068704780B5FFF731
:104B5000F7FF43F60801C4F20201096840F25C0263
:104B6000C1F38221C0F60102515CC84080BD000043
:104B700080B5FFF7E5FF43F60801C4F202010968BA
:104B800040F25C02C1F34231C0F60102515CC84000
:104B900080BD000010B543F60404C4F2020460684E
:104BA00000F00C0142F200400829C0F2F40007D0E6
:104BB000042918BF10BD41F20020C0F27A0010BDD8
:104BC000216801F03F02216823684902C3F388117C
:104BD00005D4A1FB00010023FBF7A0FB06E041F296
:104BE0000020C0F27A004843B0FBF2F021680222B4
:104BF000C1F3014102EB4101B0FBF1F010BD000037
:104C00002DE9F04182B0002800F09F800446007832
:104C100043F60006C007C4F2020641D0B06800F0B7
:104C20000C00042805D13068800339D56068B8BB12
:104C30008BE0B06800F00C00082802D170684002D8
:104C4000F1D46568B5F5803F06D03068B5F5A02F82
:104C500006D140F480203060306840F4803005E0B8
:104C600020F480303060306820F480203060FFF71E
:104C700067FA002D054610D03068800310D4FFF786
:104C80005FFA401B6428F7D922E100BFFFF758FA0A
:104C9000401B64284FF0030054D830688003F5D4DB
:104CA000207880071AD5B06810F00C0F09D0B068D2
:104CB00000F00C00082840F08C807068400200F181
:104CC00088803068800702D5E06801283DD13068CF
:104CD000216920F0F80040EAC10030602078000728
:104CE00037D4207840074AD4A56955B3B06800F09E
:104CF0000C00082840F0A080012D26D07068E169E2
:104D000000F480028A4220D1216A00F03F028A42E8
:104D10001BD147F6C071626A0140B1EB821F14D10A
:104D2000A16A4FF6FF73C903994300F44032A1F51D
:104D300080318A4209D1E16A00F07060B0EB016F06
:104D400003D1002002B0BDE8F081012002B0BDE82F
:104D5000F0816069002840F20000C4F247205AD078
:104D60000121C0F8801EFFF7EBF90546706F800740
:104D7000B7D4FFF7E5F9401B0228F7D9A8E0306C5B
:104D80004FF00008C0000CD4CDF80480306C4FF018
:104D9000010840F080503064306C00F08050019089
:104DA000019847F20007C4F200073868C00525D40F
:104DB000386840F480703860FFF7C2F9054600BFDC
:104DC0003868C0051AD4FFF7BBF9401B0228F7D991
:104DD0007EE0E068002851D00020C4F24720012185
:104DE0000160FFF7ADF90546306880073FF56FAF0A
:104DF000FFF7A6F9401B0228F6D969E0A568012D46
:104E000005D0306F052D4DD140F004003067306F74
:104E100040F001004CE00021C0F8801EFFF790F93F
:104E2000054600BF706F80077FF55BAFFFF788F91D
:104E3000401B0228F6D94BE00027C4F24727002088
:104E40003866FFF77DF9022D05460BD130688001E9
:104E500056D5FFF775F9401B02284FF00300F5D92E
:104E600070E700BF306880017FF56BAFFFF768F92E
:104E7000401B02284FF00300F4D963E70020C4F27E
:104E8000472000210160FFF75BF905463068800785
:104E90007FF524AFFFF754F9401B02284FF00300C1
:104EA000F4D94FE720F001003067306F20F00400A4
:104EB0003067FFF745F9002D054641F2883713D0DA
:104EC000306F800713D4FFF73BF9401BB842F7D986
:104ED000032002B0BDE8F081FFF732F9401BB84271
:104EE0004FF003003FF62EAF306F8007F4D4B8F1D7
:104EF000000F3FF4F9AE306C20F080503064F3E6E0
:104F000004F11C052FCD084340EA8210D9034FF667
:104F1000FF729143A1F5803140EA0560084370605B
:104F200001203866FFF70CF9044600BF30688001A5
:104F30003FF507AFFFF704F9001B02284FF003000D
:104F4000F4D9FFE67047000090F851007047000068
:104F500070B538B10446406A30B10020206104F1D8
:104F6000140007E0012070BD6068B0F5827F03D0B7
:104F700004F11C00002101600026A66294F8510093
:104F800020B9204684F8506000F03CF8022084F8F4
:104F9000510094E80F0001F48271056802F40442A4
:104FA00025F040050560114403F4006223691144B3
:104FB00003F002026369114403F00102A369E56989
:104FC000114403F40072114405F03802256A1144BB
:104FD00005F08002A56A114305F4005211430160F7
:104FE000626A042101EA134102F010021144416097
:104FF000C16921F40061C1610120666584F8510036
:10500000304670BD2DE9F04F87B000270025CDE96F
:105010000577CDE903770446C4F202050068A5F5DB
:1050200050418842029702D007B0BDE8F08F43F6A6
:1050300030000197C4F2020041690DF1080A41F401
:10504000805141614169022601F480510191019929
:10505000019701684FF0030B41F001010160006806
:105060004FF0050800F0010001900198A020029087
:1050700028465146CDE90367CDF814B0CDF8188025
:10508000FEF784FF4FF04009CDE90296CDE9046BAD
:10509000CDF8188046F2104828465146C4F202085E
:1050A000FEF774FF40F29845C2F200054FF0C06B66
:1050B0004FF4806A4FF400362846C5E9008BC5E9F5
:1050C0000277C5E904A7C5E90677C5E90867FEF7D1
:1050D000C3FE002818BFFDF711FFE564AC6340F282
:1050E000F84508F14800C2F200050021C5E9000BAF
:1050F0002846C5E90291C5E904A1C5E90611C5E93B
:105100000861FEF7A9FE002818BFFDF7F7FEA564A9
:10511000AC6307B0BDE8F08F10B5044690F85100BD
:1051200001280ED11346A2686AB96068B0F5827F83
:1051300009D1042084F8510020460A4600F05CF9A9
:1051400010BD02200CE094F85000012804BF02209A
:1051500010BD0120002984F8500018BF002B03D196
:10516000002184F8501010BD04204FF0000CB2F55F
:10517000004F84F85100C4F854C0A163A387E387AB
:10518000C4E910CCA4F834C0A4F836C008D1206813
:10519000016821F040010160016821F48041016053
:1051A000E06C46F6BD3E46F6E133C0F6000EC0F6B2
:1051B00000032168A26BC0E90F3E46F69933C0F6A2
:1051C0000003C0E9133CE38F0C31FEF7ADFE28B1BC
:1051D000606D40F0100060650120C1E72068016843
:1051E000490603D4016841F040010160416841F083
:1051F00020014160416841F0010141600020AFE7BA
:1052000070470000704700002DE9F04381B004466C
:1052100090F85000012803D1022001B0BDE8F083CE
:1052200001201E4615460F4684F85000FEF788FF01
:1052300094F85110814601290CD06068B0F5827F46
:1052400075D104294FF0020040F0B280A168002916
:1052500040F0AE80002F4FF0010018BF002D00F08D
:10526000A780002E00F0A48094F8510000210428AB
:105270001CBF052084F851006165A563E687A687F9
:105280002763E6862068A686216461640168490672
:1052900003D4016841F0400101606168731EE26857
:1052A000B1FA81F1B3FA83F3DDF8208049095B0993
:1052B000B2F5006F41EA03013BD139B1216B098896
:1052C000C160B81C2063E08E0138E086012608F139
:1052D000010500BFE08E10B9E08F00286ED0206875
:1052E000816889070CD5E18E012E09D141B1216B6E
:1052F000002631F8022BC2602163E18E0139E1867C
:105300008168C9070AD0E18F41B1C068A16B01264D
:1053100021F8020BA163E08F0138E087FEF710FF50
:10532000002DD7D0A0EB09004045D3D33CE00220AC
:105330003EE039B139780173206B01302063E08E93
:105340000138E086012608F1010500BFE08E08B9AA
:10535000E08F98B32068816889070DD5E18E012E12
:105360000AD149B1216B002609780173206B013005
:105370002063E08E0138E08620688168C9070BD081
:10538000E18F49B1C068A16B01260870A06B0130A4
:10539000A063E08F0138E087FEF7D2FE002DD5D064
:1053A000A0EB09004045D1D3012084F8510003202F
:1053B000002184F8501001B0BDE8F083204641463A
:1053C0004A4601F0EFFC18B1202060650120EFE7AC
:1053D000A06838B9002000902068C16800918068FA
:1053E00000900098606D00284FF0010004BF84F821
:1053F00051000020DCE7000070B5044690F8500032
:10540000012804BF022070BD012084F8500094F8E8
:10541000510001280AD06568B5F5827F5CD1042867
:105420004FF0020059D1A568002D56D100294FF048
:10543000010018BF002A50D0002B4ED094F8510024
:10544000002604281CBF052084F8510066652163EE
:10545000A386E386A263A387E387C4E9106694F872
:10546000511046F6BD3C46F6D533C0F6000CC0F6EA
:105470000003042946F6B9412568E06C08BF63467D
:1054800046F6E13CC0F60001C0F6000C08BF6146DC
:10549000C0E90F1346F69931C0F60001C0E91316B2
:1054A000E38F05F10C01FEF73FFD78B92268216B0F
:1054B000A06C536843F001035360C0E90F66C0E974
:1054C0001366E38E0C32FEF72FFD50B1606D40F095
:1054D00010006065012000E00220002184F85010D7
:1054E00070BD20680168490603D4016841F040019D
:1054F0000160416841F020014160416841F00201D2
:1055000041600020E9E7000010B5044690F8500023
:10551000012804BF022010BD012084F8500094F837
:10552000510001283FD100294FF0010018BF002A87
:105530003AD00320002384F8510063652163A286DA
:10554000E286A363C4E91033A387E387A068B0F5BC
:10555000004F08D12068016821F040010160016816
:1055600041F480410160A06C46F6C93C46F64942D0
:10557000C0F6000CC0F60002D4F800E0216BC0E9D0
:105580000F2C46F69932C0F60002C0E91323E38ED1
:105590000EF10C02FEF7C8FC50B1606D40F0100037
:1055A0006065012000E00220002184F8501010BD49
:1055B00020680168490603D4016841F04001016098
:1055C000416841F020014160416841F002014160C1
:1055D0000020E9E7704700007047000070470000B6
:1055E000704700007047000070470000B0B590F8A9
:1055F0003C20012A04BF0220B0BD01F108053CCDCA
:10560000D1E900CE23F47C5322F470521A432EF4D5
:10561000F0431A432CF4E0431A4324F4C0431A43E2
:105620002A43C96922F48042036811435964002166
:1056300080F83C100846B0BD10B590F83C20012A17
:105640004FF0020252D0012380F83C3080F83D2018
:105650000268D2F804E0D2F808C00C682EF070039B
:10566000234341F2FF74C4F20004A24253600DDCF4
:1056700040F2FF73C4F200039A4215DCB2F1804F8E
:1056800029D040F20043C4F2000322E040F2FF338D
:10569000C4F201039A4212DC41F60003C4F2000393
:1056A0009A4218D0002312E040F60003C4F200032F
:1056B0009A4210D040F60043C4F2000309E044F2DD
:1056C0000003C4F201039A4205D040F20043C4F241
:1056D00001039A4204D149682CF080031943916078
:1056E0000121002280F83D1080F83C20104610BDBA
:1056F00010B5044641B1082909D0042914BF04F1AA
:10570000450004F1430004E004F1420001E004F12B
:105710004400007801281CBF012010BD022041B1C7
:10572000082909D0042914BF84F8450084F84300EF
:1057300004E084F8420001E084F844002068042278
:1057400001F0D8FC206841F2FF72416CC4F2000203
:1057500041F40041904241640DDC40F2FF71C4F21B
:105760000001884215DCB0F1804F29D040F20041A1
:10577000C4F2000122E040F2FF31C4F2010188428C
:1057800012DC41F60001C4F20001884218D0002169
:1057900012E040F60001C4F20001884210D040F649
:1057A0000041C4F2000109E044F20001C4F2010129
:1057B000884205D040F20041C4F20101884206D17E
:1057C000816801F00701062904BF002010BD0168AF
:1057D00041F001010160002010BD0000002804BF5D
:1057E0000120704710B5044690F83D0028B900200C
:1057F00084F83C00204600F01FF8022084F83D00A9
:105800002068211D01F0CAFB012084F8460084F8BD
:105810003E0084F83F0084F8400084F8410084F89A
:10582000420084F8430084F8440084F8450084F87A
:105830003D00002010BD000080B582B0006800214E
:10584000C4F20101884201D002B080BD0020019065
:1058500043F64400C4F202000168002241F0010155
:10586000016000680A2100F00100019001981920F0
:10587000FFF782F81920FFF77BF802B080BD000027
:1058800090F83D1001291CBF01207047022180F8CB
:105890003D10006841F2FF72C168C4F200029042FC
:1058A00041F00101C1600DDC40F2FF71C4F2000162
:1058B000884215DCB0F1804F29D040F20041C4F29B
:1058C000000122E040F2FF31C4F20101884212DC03
:1058D00041F60001C4F20001884218D0002112E014
:1058E00040F60001C4F20001884210D040F60041A9
:1058F000C4F2000109E044F20001C4F2010188424F
:1059000005D040F20041C4F20101884206D181680D
:1059100001F00701062904BF00207047016841F02B
:10592000010101600020704710B5044690F83C006A
:1059300001284FF0020008BF10BD012284F83C206E
:1059400084F83D0020684FF6777382689A4382603E
:105950000A684F2A0FDC1F2A22DD202A23D0302A92
:1059600021D0402A4DD14B68CA68194601F0AEFCDF
:10597000206840213BE06F2A17DDB2F5005F20D0A0
:10598000B2F5805F2AD0702A3BD1D1E9012CCB68D7
:10599000614601F0C1FB2068816841F077011AE09F
:1059A0000AB1102A2DD1114621E0502A18D0602AC0
:1059B00027D14B68CA68194601F0EEFC20686021C7
:1059C00015E0D1E9012CCB68614601F0A5FB206808
:1059D000816841F48041816000200BE0002009E0F3
:1059E0004B68CA68194601F071FC2068502101F02B
:1059F0009FFB0020012184F83D10002184F83C1019
:105A000010BD0120F6E7000080B582B0016840F2C9
:105A10000042C4F20002914201D002B080BD007F7A
:105A20000828FAD140F2F460C2F20000006840F2A7
:105A3000E422416AC2F2000211800021416240F278
:105A40007830C2F20000006811880DF1040C0322C6
:105A50000023CDF800C008F0D9FA01980028DCD066
:105A60004EF60450CEF200004FF080510160BFF3BB
:105A70004F8FBFF36F8F02B080BD0000B0B50446FA
:105A800090F83C00012804BF0220B0BD0D464FEA4B
:105A9000B2010120032984F83C0037D8DFE801F087
:105AA000020C16242068D5E90012EB6801F020FCF6
:105AB000206850F8181F12E02068D5E90012EB6842
:105AC00001F07CFC206850F8181F16E02068D5E92A
:105AD0000012EB6801F090FC206850F81C1F21F0C8
